{
  "_format": "hh-sol-artifact-1",
  "contractName": "OracleMock",
  "sourceName": "contracts/OracleMock.sol",
  "abi": [
    {
      "anonymous": false,
      "inputs": [
        {
          "indexed": false,
          "internalType": "string",
          "name": "result",
          "type": "string"
        }
      ],
      "name": "RequestFulfilled",
      "type": "event"
    },
    {
      "inputs": [],
      "name": "requestResult",
      "outputs": [],
      "stateMutability": "nonpayable",
      "type": "function"
    }
  ],
  "bytecode": "0x608080604052346100155760ae908161001b8239f35b600080fdfe6080806040526004361015601257600080fd5b600090813560e01c636d7180d314602857600080fd5b346074578160031936011260745760608160207f083542d7532363ebf1f5ddd435e82f33c12251d61bae6088bacc46b57bea3822935260026020820152614f4b60f01b6040820152a180f35b5080fdfea264697066735822122088b5f945bc9e0ad9bfb2e4b1650ef22890b01fd581727d95bbbcd9e16ddc774664736f6c63430008140033",
  "linkReferences": {},
  "deployedLinkReferences": {}
}