{"contracts/Market.sol":{"Market":{"abi":[{"inputs":[],"stateMutability":"nonpayable","type":"constructor"},{"anonymous":false,"inputs":[{"indexed":true,"internalType":"uint256","name":"marketId","type":"uint256"},{"indexed":false,"internalType":"bool","name":"proposedOutcomeYes","type":"bool"},{"indexed":true,"internalType":"address","name":"challenger","type":"address"},{"indexed":false,"internalType":"uint256","name":"amount","type":"uint256"}],"name":"Challenged","type":"event"},{"anonymous":false,"inputs":[{"indexed":true,"internalType":"uint256","name":"marketId","type":"uint256"},{"indexed":true,"internalType":"address","name":"creator","type":"address"},{"indexed":false,"internalType":"uint256","name":"amount","type":"uint256"}],"name":"CommissionPaid","type":"event"},{"anonymous":false,"inputs":[{"indexed":true,"internalType":"uint256","name":"marketId","type":"uint256"}],"name":"MarketActive","type":"event"},{"anonymous":false,"inputs":[{"indexed":true,"internalType":"uint256","name":"marketId","type":"uint256"},{"indexed":false,"internalType":"uint256","name":"betAId","type":"uint256"},{"indexed":false,"internalType":"uint256","name":"betBId","type":"uint256"},{"indexed":false,"internalType":"string","name":"category","type":"string"},{"indexed":false,"internalType":"string","name":"currency","type":"string"},{"indexed":false,"internalType":"uint256","name":"stake","type":"uint256"},{"indexed":false,"internalType":"address","name":"creator","type":"address"}],"name":"MarketCreated","type":"event"},{"anonymous":false,"inputs":[{"indexed":true,"internalType":"uint256","name":"marketId","type":"uint256"},{"indexed":false,"internalType":"enum Market.State","name":"state","type":"uint8"}],"name":"MarketStateChanged","type":"event"},{"anonymous":false,"inputs":[{"indexed":true,"internalType":"uint256","name":"marketId","type":"uint256"},{"indexed":false,"internalType":"bool","name":"outcomeYes","type":"bool"},{"indexed":false,"internalType":"uint256","name":"deadline","type":"uint256"}],"name":"ProvisionalSet","type":"event"},{"anonymous":false,"inputs":[{"indexed":true,"internalType":"uint256","name":"marketId","type":"uint256"},{"indexed":false,"internalType":"bool","name":"finalOutcomeYes","type":"bool"}],"name":"Resolved","type":"event"},{"anonymous":false,"inputs":[{"indexed":true,"internalType":"uint256","name":"marketId","type":"uint256"},{"indexed":true,"internalType":"address","name":"user","type":"address"},{"indexed":false,"internalType":"uint256","name":"amount","type":"uint256"}],"name":"Withdrawn","type":"event"},{"inputs":[{"internalType":"uint256","name":"marketId","type":"uint256"},{"internalType":"bool","name":"proposedOutcomeYes","type":"bool"}],"name":"challengeOutcome","outputs":[],"stateMutability":"payable","type":"function"},{"inputs":[],"name":"challengeWindowSeconds","outputs":[{"internalType":"uint256","name":"","type":"uint256"}],"stateMutability":"view","type":"function"},{"inputs":[{"internalType":"uint256","name":"marketId","type":"uint256"}],"name":"checkExpiration","outputs":[],"stateMutability":"nonpayable","type":"function"},{"inputs":[{"internalType":"uint256","name":"","type":"uint256"},{"internalType":"address","name":"","type":"address"}],"name":"claimed","outputs":[{"internalType":"bool","name":"","type":"bool"}],"stateMutability":"view","type":"function"},{"inputs":[{"internalType":"uint256","name":"marketId","type":"uint256"}],"name":"closeMarket","outputs":[],"stateMutability":"nonpayable","type":"function"},{"inputs":[{"internalType":"uint256","name":"betAId","type":"uint256"},{"internalType":"uint256","name":"betBId","type":"uint256"},{"internalType":"string","name":"category","type":"string"},{"internalType":"string","name":"currency","type":"string"},{"internalType":"uint256","name":"stake","type":"uint256"},{"internalType":"uint256","name":"expiration","type":"uint256"},{"internalType":"bool","name":"isYesSide","type":"bool"}],"name":"createPair","outputs":[{"internalType":"uint256","name":"","type":"uint256"}],"stateMutability":"payable","type":"function"},{"inputs":[{"internalType":"uint256","name":"","type":"uint256"},{"internalType":"address","name":"","type":"address"}],"name":"hasParticipated","outputs":[{"internalType":"bool","name":"","type":"bool"}],"stateMutability":"view","type":"function"},{"inputs":[{"internalType":"uint256","name":"","type":"uint256"}],"name":"markets","outputs":[{"components":[{"internalType":"uint256","name":"betAId","type":"uint256"},{"internalType":"uint256","name":"betBId","type":"uint256"},{"internalType":"string","name":"category","type":"string"},{"internalType":"string","name":"currency","type":"string"},{"internalType":"uint256","name":"stake","type":"uint256"}],"internalType":"struct Market.Pair","name":"pair","type":"tuple"},{"internalType":"enum Market.State","name":"state","type":"uint8"},{"internalType":"bool","name":"provisionalOutcomeYes","type":"bool"},{"internalType":"bool","name":"finalOutcomeYes","type":"bool"},{"internalType":"uint256","name":"totalYes","type":"uint256"},{"internalType":"uint256","name":"totalNo","type":"uint256"},{"internalType":"uint256","name":"challengeDeadline","type":"uint256"},{"internalType":"uint256","name":"challengePot","type":"uint256"},{"internalType":"bool","name":"finalized","type":"bool"},{"internalType":"address","name":"creator","type":"address"},{"internalType":"uint256","name":"participantCount","type":"uint256"},{"internalType":"uint256","name":"commission","type":"uint256"},{"internalType":"uint256","name":"expiration","type":"uint256"}],"stateMutability":"view","type":"function"},{"inputs":[{"internalType":"uint256","name":"marketId","type":"uint256"}],"name":"matchMarket","outputs":[],"stateMutability":"payable","type":"function"},{"inputs":[],"name":"minChallengeStake","outputs":[{"internalType":"uint256","name":"","type":"uint256"}],"stateMutability":"view","type":"function"},{"inputs":[],"name":"nextMarketId","outputs":[{"internalType":"uint256","name":"","type":"uint256"}],"stateMutability":"view","type":"function"},{"inputs":[{"internalType":"uint256","name":"","type":"uint256"},{"internalType":"address","name":"","type":"address"}],"name":"noPositions","outputs":[{"internalType":"uint256","name":"","type":"uint256"}],"stateMutability":"view","type":"function"},{"inputs":[],"name":"oracle","outputs":[{"internalType":"address","name":"","type":"address"}],"stateMutability":"view","type":"function"},{"inputs":[],"name":"owner","outputs":[{"internalType":"address","name":"","type":"address"}],"stateMutability":"view","type":"function"},{"inputs":[{"internalType":"uint256","name":"marketId","type":"uint256"},{"internalType":"bool","name":"yes","type":"bool"}],"name":"placeBet","outputs":[],"stateMutability":"payable","type":"function"},{"inputs":[{"internalType":"uint256","name":"marketId","type":"uint256"},{"internalType":"bool","name":"finalOutcomeYes","type":"bool"}],"name":"resolveOutcome","outputs":[],"stateMutability":"nonpayable","type":"function"},{"inputs":[{"internalType":"uint256","name":"windowSeconds","type":"uint256"},{"internalType":"uint256","name":"minStake","type":"uint256"}],"name":"setChallengeParams","outputs":[],"stateMutability":"nonpayable","type":"function"},{"inputs":[{"internalType":"address","name":"o","type":"address"}],"name":"setOracle","outputs":[],"stateMutability":"nonpayable","type":"function"},{"inputs":[{"internalType":"uint256","name":"marketId","type":"uint256"},{"internalType":"bool","name":"outcomeYes","type":"bool"}],"name":"setProvisionalOutcome","outputs":[],"stateMutability":"nonpayable","type":"function"},{"inputs":[{"internalType":"uint256","name":"marketId","type":"uint256"}],"name":"setProvisionalOutcomeDefault","outputs":[],"stateMutability":"nonpayable","type":"function"},{"inputs":[{"internalType":"uint256","name":"marketId","type":"uint256"}],"name":"withdraw","outputs":[],"stateMutability":"nonpayable","type":"function"},{"inputs":[{"internalType":"uint256","name":"","type":"uint256"},{"internalType":"address","name":"","type":"address"}],"name":"yesPositions","outputs":[{"internalType":"uint256","name":"","type":"uint256"}],"stateMutability":"view","type":"function"}],"evm":{"bytecode":{"linkReferences":{},"object":"6080806040523461003a5762015180600355662386f26fc10000600455600080546001600160a01b03191633179055611ef490816100408239f35b600080fdfe608080604052600436101561001357600080fd5b60003560e01c908163120aa87714611ace575080631986aabd14611ab05780632abd7803146118de5780632e1a7d4d14611651578063406ef2ef14611633578063456f6a151461153857806358f319b2146111c257806366e47cc3146110ca578063723931ca146110205780637adbf97314610fcd5780637dc0d1d014610fa45780638da5cb5b14610f7b5780639ed9c74d14610dbe578063a34398a214610d71578063ae41809514610cb9578063b1283e7714610b4b578063b5615dee14610912578063cc3bdeee146108ca578063d33dc7b4146108ac578063da524e1014610864578063eae85024146107b45763ed5a52f61461011157600080fd5b60e03660031901126107af576044803567ffffffffffffffff81116107af5761013e903690600401611cb5565b906064803567ffffffffffffffff81116107af57610160903690600401611cb5565b9160c435151560c435036107af57600160055461018060ff821615611d34565b60ff1916176005556004351515806107a4575b156107715783518015159081610765575b50156107315782518015159081610725575b50156106f157608435156106c0576084353403610686574260a43511156106505750506101e4600254611d6c565b90816002556040516101f581611b75565b600435815260243560208201526040810190848252826060820152608435608082015283600052600660205260406000209181518355602082015160018401555180519067ffffffffffffffff821161056a5781906102576002860154611b3b565b601f81116105fd575b50602090601f831160011461058b57600092610580575b50508160011b916000199060031b1c19161760028301555b606081015180519067ffffffffffffffff821161056a576102b36003850154611b3b565b601f8111610523575b509160209693918695938890601f831160011461048357608061040b94846103fd98957fc06eff8f60beb27586bef537008582bb227e20e33c8b850ea5265d58a627d6a89a9895600495600092610478575b50508160011b916000199060031b1c19161760038501555b01519101556000868152600689526040902060058101805460ff19169055600a81018054610100600160a81b0319163360081b610100600160a81b031617905560a435600d9091015560c43515610447578560005260078852604060002033600052885260843560406000205585600052600688526084356006604060002001555b85600052600688526001600b60406000200155600a885260406000203360005288526040600020600160ff1982541617905560405193849360043585526024358a86015260c0604086015260c0850190611c59565b908382036060850152611c59565b60843560808301523360a08301520390a280600080516020611e9f8339815191528360405160008152a260ff1960055416600555604051908152f35b60088852604060002033600052885260843560406000205585600052600688526084356007604060002001556103a8565b01519050388061030e565b9060038501600052896000209160005b601f1985168110610509575061040b946001857fc06eff8f60beb27586bef537008582bb227e20e33c8b850ea5265d58a627d6a89a98956004956080956103fd9c99601f198116106104f0575b505050811b016003850155610326565b015160001960f88460031b161c191690553880806104e0565b8183015184558a9950600190930192918b01918b01610493565b600385016000526020600020601f840160051c810160208510610563575b601f830160051c820181106105575750506102bc565b60008155600101610541565b5080610541565b634e487b7160e01b600052604160045260246000fd5b015190503880610277565b9250600285016000526020600020906000935b601f19841685106105e2576001945083601f198116106105c9575b505050811b01600283015561028f565b015160001960f88460031b161c191690553880806105b9565b8181015183556020948501946001909301929091019061059e565b909150600285016000526020600020601f840160051c810160208510610649575b90849392915b601f830160051c8201811061063a575050610260565b60008155859450600101610624565b508061061e565b7124b73b30b634b21032bc3834b930ba34b7b760711b6040519162461bcd60e51b83526020600484015260126024840152820152fd5b75125b98dbdc9c9958dd081cdd185ad948185b5bdd5b9d60521b6040519162461bcd60e51b83526020600484015260166024840152820152fd5b6c496e76616c6964207374616b6560981b6040519162461bcd60e51b835260206004840152600d6024840152820152fd5b6f496e76616c69642063757272656e637960801b6040519162461bcd60e51b83526020600484015260106024840152820152fd5b601091501115386101b6565b6f496e76616c69642063617465676f727960801b6040519162461bcd60e51b83526020600484015260106024840152820152fd5b602091501115386101a4565b6e496e76616c6964206265742069647360881b6040519162461bcd60e51b835260206004840152600f6024840152820152fd5b506024351515610193565b600080fd5b346107af5760403660031901126107af57600435602435906107e160018060a01b03600054163314611cfc565b610e10811061082c5781156107f857600355600455005b60405162461bcd60e51b815260206004820152600c60248201526b06d696e5374616b65203e20360a41b6044820152606490fd5b60405162461bcd60e51b815260206004820152601060248201526f1dda5b991bddc81d1bdbc81cda1bdc9d60821b6044820152606490fd5b346107af5760403660031901126107af5761087d611b16565b600435600052600760205260406000209060018060a01b03166000526020526020604060002054604051908152f35b346107af5760003660031901126107af576020600454604051908152f35b346107af5760403660031901126107af576108e3611b16565b600435600052600860205260406000209060018060a01b03166000526020526020604060002054604051908152f35b6020806003193601126107af576004356005549161093360ff841615611d34565b600160ff198094161760055581600052600681526040600020600581019060ff8254166006811015610b3557610b025760048101543403610ac457600a8101543360089190911c6001600160a01b031614610a8857600681018054600080516020611e9f833981519152949392919015610a66575084600052600883526040600020336000528352346040600020553460078201555b84600052600a8352604060002033600052835260ff6040600020541615610a2f575b50600185825416179055604051837f2a9615e57b2aba23102f9e7ae5d5cff829603ca77618e713b9a80b073cda0961600080a260018152a260055416600555600080f35b600b9085600052600a84526040600020336000528452604060002060018882541617905501610a5e8154611d6c565b9055856109eb565b85600052600784526040600020336000528452346040600020553490556109c9565b60405162461bcd60e51b8152600481018490526014602482015273086e4cac2e8dee440c6c2dcdcdee840dac2e8c6d60631b6044820152606490fd5b60405162461bcd60e51b8152600481018490526016602482015275125b98dbdc9c9958dd081b585d18da08185b5bdd5b9d60521b6044820152606490fd5b60405162461bcd60e51b815260048101849052600b60248201526a4e6f742070656e64696e6760a81b6044820152606490fd5b634e487b7160e01b600052602160045260246000fd5b346107af5760203660031901126107af576004356000526006602052604060002060405190610b7982611b75565b8054825260018101546020830190815291610b9660028301611bb3565b60408201908152610ba960038401611bb3565b926060830193845260048101546080840152600581015493600682015460078301546008840154600985015491600a86015493600b87015495600c88015497600d015498604051809d6101a08083528d519083015251906101c00152516101e08d0160a090526102408d01610c1d91611c59565b90518c820361019f19016102008e0152610c379190611c59565b98608001516102208c015260ff8a166006811015610b35578b9a60ff9160208d0152818160081c16151560408d015260101c16151560608b015260808a015260a089015260c088015260e087015260ff8116151561010087015260018060a01b039060081c166101208601526101408501526101608401526101808301520390f35b346107af5760203660031901126107af57600435610ce260018060a01b03600054163314611cfc565b80600052600660205260056040600020610d0160048201541515611d7b565b01805460ff81166006811015610b3557600103610d3d5760029060ff1916179055600080516020611e9f833981519152602060405160028152a2005b60405162461bcd60e51b815260206004820152600c60248201526b4d757374206265206c69766560a01b6044820152606490fd5b346107af5760403660031901126107af57610d8a611b16565b600435600052600a60205260406000209060018060a01b0316600052602052602060ff604060002054166040519015158152f35b60403660031901126107af57600435610dd5611b2c565b9060055491610de760ff841615611d34565b600160ff198094161760055581600052602060068152604060002091610e1260048401541515611d7b565b60ff6005840154166006811015610b35576001610e2f9114611dba565b3415610f4957600d830154421015610f1a5783600052600a8252604060002033600052825260ff6040600020541615610ee4575b15610eaa576006926000526007815260406000209033600052526040600020610e8d348254611df1565b905501610e9b348254611df1565b90555b60055416600555600080f35b6007926000526008815260406000209033600052526040600020610ecf348254611df1565b905501610edd348254611df1565b9055610e9e565b83600052600a825260406000203360005282526040600020600186825416179055600b8301610f138154611d6c565b9055610e63565b60405162461bcd60e51b8152600481018390526007602482015266115e1c1a5c995960ca1b6044820152606490fd5b60405162461bcd60e51b815260048101839052600a6024820152690616d6f756e74203e20360b41b6044820152606490fd5b346107af5760003660031901126107af576000546040516001600160a01b039091168152602090f35b346107af5760003660031901126107af576001546040516001600160a01b039091168152602090f35b346107af5760203660031901126107af576004356001600160a01b03818116918290036107af5761100390600054163314611cfc565b6bffffffffffffffffffffffff60a01b6001541617600155600080f35b346107af5760203660031901126107af576004358060005260066020526040600020600581019081549060ff8216906006821015610b35576110666001600d9314611dba565b015442106110935760029060ff1916179055600080516020611e9f833981519152602060405160028152a2005b60405162461bcd60e51b815260206004820152600f60248201526e139bdd08195e1c1a5c9959081e595d608a1b6044820152606490fd5b346107af5760203660031901126107af576004356110f360018060a01b03600054163314611cfc565b8060005260066020526040600020600581019060ff8254166006811015610b355783926111a460087f5dfa492edf776bd526302890c698aed537e30b0e025f38033a7158004ccad90d9461114b600260ff9614611dfe565b60068101546007820154855461ff00191691101560081b61ff0016178455600385198554161780945561118060035442611df1565b918291015560405193849360081c1683602090939291936040810194151581520152565b0390a2600080516020611e9f833981519152602060405160038152a2005b346107af5760403660031901126107af576004356111de611b2c565b6000546001600160a01b03919082163314801561152b575b156114f557826000526020906006825260406000206005810180549260ff8416600681101580610b355760038214809281156114e6575b50156114b157610b355761146a575b600a83019182549160ff8316611439579160019160058a9796959415159662ff00008860101b169062ff00ff19161717905560ff1916179586825561128a6006840154600785015490611df1565b918215158061142b575b6112df575b85600080516020611e9f83398151915288827fe940c2f4a2e1dda6ea582b576e35520a2ec6b80e436c26962c1150ddd7d07993828a604051908152a260405160058152a2005b9091929450600b850154600a810290808204600a14901517156114155760640194856064116114155761271061132687600c968c99916103e880911161140d575b50611e3b565b04938491015582611338575b80611299565b919350919394600080808686829560081c165af1611354611e6e565b50156113c8579380938693847fec530ab710fdaa2b5968fe15f486992441a96f643219cf0150904aa5b9eedf82847fe940c2f4a2e1dda6ea582b576e35520a2ec6b80e436c26962c1150ddd7d0799396600080516020611e9f8339815191529a5460081c1693604051908152a39187611332565b60405162461bcd60e51b815260048101869052601a60248201527f436f6d6d697373696f6e207472616e73666572206661696c65640000000000006044820152606490fd5b91508d611320565b634e487b7160e01b600052601160045260246000fd5b50818860081c161515611294565b60405162461bcd60e51b8152600481018890526009602482015268119a5b985b1a5e995960ba1b6044820152606490fd5b6008830154421161123c5760405162461bcd60e51b815260048101869052601460248201527321b430b63632b733b29039ba34b6361037b832b760611b6044820152606490fd5b60405162461bcd60e51b815260048101889052600d60248201526c496e76616c696420737461746560981b6044820152606490fd5b9150506004600091148a61122d565b60405162461bcd60e51b815260206004820152600e60248201526d139bdd08185d5d1a1bdc9a5e995960921b6044820152606490fd5b50816001541633146111f6565b346107af5760403660031901126107af57600435611554611b2c565b6001546001600160a01b0316330361160057816000526006602052604060002090600582019060ff825416906006821015610b355784937f5dfa492edf776bd526302890c698aed537e30b0e025f38033a7158004ccad90d936115bb600260089514611dfe565b805461ffff191661ff0084151560081b16176003908117909155546115e09042611df1565b9201829055604080519115158252602082019290925290819081016111a4565b60405162461bcd60e51b815260206004820152600b60248201526a4f6e6c79206f7261636c6560a81b6044820152606490fd5b346107af5760003660031901126107af576020600254604051908152f35b346107af576020806003193601126107af5760043560059182549161167960ff841615611d34565b600160ff198094161784558060005260068252604060002091848301549260ff84166006811015610b35578614806118d0575b1561189c578260005260098252604060002033600052825260ff6040600020541661186557826000526007825260406000203360005282526040600020548360005260088352604060002033600052835260406000205490600683015492600781015490600c61171c8387611df1565b91015480821061185b57810390811161141557925b60009760101c60ff161561181f57505082151580611816575b6117f8575b5050505b816000526009815260406000203360005281526040600020600185825416179055826117ac575b7fcf7d23a3cbe4e8b36ff82fd1b05b1b17373dc7804b4ebbd6e2356716ef202372906040519384523393a38154169055005b600080808086335af16117bd611e6e565b5061177a576064906040519062461bcd60e51b82526004820152600f60248201526e151c985b9cd9995c8819985a5b1959608a1b6044820152fd5b61180d9395509061180891611e3b565b611e4e565b9185808061174f565b5080151561174a565b9150809350151580611852575b611839575b505050611753565b6118499395509061180891611e3b565b91858080611831565b5080151561182c565b5050600092611731565b60405162461bcd60e51b815260048101839052600f60248201526e105b1c9958591e4818db185a5b5959608a1b6044820152606490fd5b60405162461bcd60e51b815260048101839052600c60248201526b139bdd081c995cdbdb1d995960a21b6044820152606490fd5b5060ff600a820154166116ac565b60403660031901126107af576004356118f5611b2c565b906005549061190760ff831615611d34565b600160ff1980931617600555806000526020600681526040600020936005850180549560ff87166006811015610b3557600303611a755760088101544211611a3d576004543410611a085760ff8760081c161515831515146119d75785600080516020611e9f833981519152959697600960049301611987348254611df1565b905516179055604080519115158252346020830152339185917f74dc3c28712597af17d7089c11c00eefea6373566cfd87d7e8d8607faa298db891a360405160048152a260055416600555600080f35b60405162461bcd60e51b81526004810185905260096024820152684e6f206368616e676560b81b6044820152606490fd5b60405162461bcd60e51b815260048101859052600d60248201526c5374616b6520746f6f206c6f7760981b6044820152606490fd5b60405162461bcd60e51b815260048101859052601060248201526f10da185b1b195b99d94818db1bdcd95960821b6044820152606490fd5b60405162461bcd60e51b8152600481018590526013602482015272135d5cdd081899481c1c9bdd9a5cda5bdb985b606a1b6044820152606490fd5b346107af5760003660031901126107af576020600354604051908152f35b346107af5760403660031901126107af57602090611aea611b16565b60043560009081526009845260408082206001600160a01b039093168252918452205460ff1615158152f35b602435906001600160a01b03821682036107af57565b6024359081151582036107af57565b90600182811c92168015611b6b575b6020831014611b5557565b634e487b7160e01b600052602260045260246000fd5b91607f1691611b4a565b60a0810190811067ffffffffffffffff82111761056a57604052565b90601f8019910116810190811067ffffffffffffffff82111761056a57604052565b9060405191826000825492611bc784611b3b565b908184526001948581169081600014611c365750600114611bf3575b5050611bf192500383611b91565b565b9093915060005260209081600020936000915b818310611c1e575050611bf193508201013880611be3565b85548884018501529485019487945091830191611c06565b915050611bf194506020925060ff191682840152151560051b8201013880611be3565b919082519283825260005b848110611c85575050826000602080949584010152601f8019910116010190565b602081830181015184830182015201611c64565b67ffffffffffffffff811161056a57601f01601f191660200190565b81601f820112156107af57803590611ccc82611c99565b92611cda6040519485611b91565b828452602083830101116107af57816000926020809301838601378301015290565b15611d0357565b60405162461bcd60e51b81526020600482015260096024820152682737ba1037bbb732b960b91b6044820152606490fd5b15611d3b57565b60405162461bcd60e51b81526020600482015260096024820152681499595b9d1c985b9d60ba1b6044820152606490fd5b60001981146114155760010190565b15611d8257565b60405162461bcd60e51b815260206004820152601060248201526f13585c9ad95d081b9bdd08199bdd5b9960821b6044820152606490fd5b15611dc157565b60405162461bcd60e51b81526020600482015260086024820152674e6f74206c69766560c01b6044820152606490fd5b9190820180921161141557565b15611e0557565b60405162461bcd60e51b815260206004820152600e60248201526d135d5cdd0818994818db1bdcd95960921b6044820152606490fd5b8181029291811591840414171561141557565b8115611e58570490565b634e487b7160e01b600052601260045260246000fd5b3d15611e99573d90611e7f82611c99565b91611e8d6040519384611b91565b82523d6000602084013e565b60609056fe248d595ec1f86fca734f2147cbddceb451a4d2a98d6f093ca89f4515f663a00da26469706673582212201a7e4d9ec209820ebab581e1431adf62e57fe79c735b2ccac2948b59b4c8872d64736f6c63430008140033","opcodes":"PUSH1 0x80 DUP1 PUSH1 0x40 MSTORE CALLVALUE PUSH2 0x3A JUMPI PUSH3 0x15180 PUSH1 0x3 SSTORE PUSH7 0x2386F26FC10000 PUSH1 0x4 SSTORE PUSH1 0x0 DUP1 SLOAD PUSH1 0x1 PUSH1 0x1 PUSH1 0xA0 SHL SUB NOT AND CALLER OR SWAP1 SSTORE PUSH2 0x1EF4 SWAP1 DUP2 PUSH2 0x40 DUP3 CODECOPY RETURN JUMPDEST PUSH1 0x0 DUP1 REVERT INVALID PUSH1 0x80 DUP1 PUSH1 0x40 MSTORE PUSH1 0x4 CALLDATASIZE LT ISZERO PUSH2 0x13 JUMPI PUSH1 0x0 DUP1 REVERT JUMPDEST PUSH1 0x0 CALLDATALOAD PUSH1 0xE0 SHR SWAP1 DUP2 PUSH4 0x120AA877 EQ PUSH2 0x1ACE JUMPI POP DUP1 PUSH4 0x1986AABD EQ PUSH2 0x1AB0 JUMPI DUP1 PUSH4 0x2ABD7803 EQ PUSH2 0x18DE JUMPI DUP1 PUSH4 0x2E1A7D4D EQ PUSH2 0x1651 JUMPI DUP1 PUSH4 0x406EF2EF EQ PUSH2 0x1633 JUMPI DUP1 PUSH4 0x456F6A15 EQ PUSH2 0x1538 JUMPI DUP1 PUSH4 0x58F319B2 EQ PUSH2 0x11C2 JUMPI DUP1 PUSH4 0x66E47CC3 EQ PUSH2 0x10CA JUMPI DUP1 PUSH4 0x723931CA EQ PUSH2 0x1020 JUMPI DUP1 PUSH4 0x7ADBF973 EQ PUSH2 0xFCD JUMPI DUP1 PUSH4 0x7DC0D1D0 EQ PUSH2 0xFA4 JUMPI DUP1 PUSH4 0x8DA5CB5B EQ PUSH2 0xF7B JUMPI DUP1 PUSH4 0x9ED9C74D EQ PUSH2 0xDBE JUMPI DUP1 PUSH4 0xA34398A2 EQ PUSH2 0xD71 JUMPI DUP1 PUSH4 0xAE418095 EQ PUSH2 0xCB9 JUMPI DUP1 PUSH4 0xB1283E77 EQ PUSH2 0xB4B JUMPI DUP1 PUSH4 0xB5615DEE EQ PUSH2 0x912 JUMPI DUP1 PUSH4 0xCC3BDEEE EQ PUSH2 0x8CA JUMPI DUP1 PUSH4 0xD33DC7B4 EQ PUSH2 0x8AC JUMPI DUP1 PUSH4 0xDA524E10 EQ PUSH2 0x864 JUMPI DUP1 PUSH4 0xEAE85024 EQ PUSH2 0x7B4 JUMPI PUSH4 0xED5A52F6 EQ PUSH2 0x111 JUMPI PUSH1 0x0 DUP1 REVERT JUMPDEST PUSH1 0xE0 CALLDATASIZE PUSH1 0x3 NOT ADD SLT PUSH2 0x7AF JUMPI PUSH1 0x44 DUP1 CALLDATALOAD PUSH8 0xFFFFFFFFFFFFFFFF DUP2 GT PUSH2 0x7AF JUMPI PUSH2 0x13E SWAP1 CALLDATASIZE SWAP1 PUSH1 0x4 ADD PUSH2 0x1CB5 JUMP JUMPDEST SWAP1 PUSH1 0x64 DUP1 CALLDATALOAD PUSH8 0xFFFFFFFFFFFFFFFF DUP2 GT PUSH2 0x7AF JUMPI PUSH2 0x160 SWAP1 CALLDATASIZE SWAP1 PUSH1 0x4 ADD PUSH2 0x1CB5 JUMP JUMPDEST SWAP2 PUSH1 0xC4 CALLDATALOAD ISZERO ISZERO PUSH1 0xC4 CALLDATALOAD SUB PUSH2 0x7AF JUMPI PUSH1 0x1 PUSH1 0x5 SLOAD PUSH2 0x180 PUSH1 0xFF DUP3 AND ISZERO PUSH2 0x1D34 JUMP JUMPDEST PUSH1 0xFF NOT AND OR PUSH1 0x5 SSTORE PUSH1 0x4 CALLDATALOAD ISZERO ISZERO DUP1 PUSH2 0x7A4 JUMPI JUMPDEST ISZERO PUSH2 0x771 JUMPI DUP4 MLOAD DUP1 ISZERO ISZERO SWAP1 DUP2 PUSH2 0x765 JUMPI JUMPDEST POP ISZERO PUSH2 0x731 JUMPI DUP3 MLOAD DUP1 ISZERO ISZERO SWAP1 DUP2 PUSH2 0x725 JUMPI JUMPDEST POP ISZERO PUSH2 0x6F1 JUMPI PUSH1 0x84 CALLDATALOAD ISZERO PUSH2 0x6C0 JUMPI PUSH1 0x84 CALLDATALOAD CALLVALUE SUB PUSH2 0x686 JUMPI TIMESTAMP PUSH1 0xA4 CALLDATALOAD GT ISZERO PUSH2 0x650 JUMPI POP POP PUSH2 0x1E4 PUSH1 0x2 SLOAD PUSH2 0x1D6C JUMP JUMPDEST SWAP1 DUP2 PUSH1 0x2 SSTORE PUSH1 0x40 MLOAD PUSH2 0x1F5 DUP2 PUSH2 0x1B75 JUMP JUMPDEST PUSH1 0x4 CALLDATALOAD DUP2 MSTORE PUSH1 0x24 CALLDATALOAD PUSH1 0x20 DUP3 ADD MSTORE PUSH1 0x40 DUP2 ADD SWAP1 DUP5 DUP3 MSTORE DUP3 PUSH1 0x60 DUP3 ADD MSTORE PUSH1 0x84 CALLDATALOAD PUSH1 0x80 DUP3 ADD MSTORE DUP4 PUSH1 0x0 MSTORE PUSH1 0x6 PUSH1 0x20 MSTORE PUSH1 0x40 PUSH1 0x0 KECCAK256 SWAP2 DUP2 MLOAD DUP4 SSTORE PUSH1 0x20 DUP3 ADD MLOAD PUSH1 0x1 DUP5 ADD SSTORE MLOAD DUP1 MLOAD SWAP1 PUSH8 0xFFFFFFFFFFFFFFFF DUP3 GT PUSH2 0x56A JUMPI DUP2 SWAP1 PUSH2 0x257 PUSH1 0x2 DUP7 ADD SLOAD PUSH2 0x1B3B JUMP JUMPDEST PUSH1 0x1F DUP2 GT PUSH2 0x5FD JUMPI JUMPDEST POP PUSH1 0x20 SWAP1 PUSH1 0x1F DUP4 GT PUSH1 0x1 EQ PUSH2 0x58B JUMPI PUSH1 0x0 SWAP3 PUSH2 0x580 JUMPI JUMPDEST POP POP DUP2 PUSH1 0x1 SHL SWAP2 PUSH1 0x0 NOT SWAP1 PUSH1 0x3 SHL SHR NOT AND OR PUSH1 0x2 DUP4 ADD SSTORE JUMPDEST PUSH1 0x60 DUP2 ADD MLOAD DUP1 MLOAD SWAP1 PUSH8 0xFFFFFFFFFFFFFFFF DUP3 GT PUSH2 0x56A JUMPI PUSH2 0x2B3 PUSH1 0x3 DUP6 ADD SLOAD PUSH2 0x1B3B JUMP JUMPDEST PUSH1 0x1F DUP2 GT PUSH2 0x523 JUMPI JUMPDEST POP SWAP2 PUSH1 0x20 SWAP7 SWAP4 SWAP2 DUP7 SWAP6 SWAP4 DUP9 SWAP1 PUSH1 0x1F DUP4 GT PUSH1 0x1 EQ PUSH2 0x483 JUMPI PUSH1 0x80 PUSH2 0x40B SWAP5 DUP5 PUSH2 0x3FD SWAP9 SWAP6 PUSH32 0xC06EFF8F60BEB27586BEF537008582BB227E20E33C8B850EA5265D58A627D6A8 SWAP11 SWAP9 SWAP6 PUSH1 0x4 SWAP6 PUSH1 0x0 SWAP3 PUSH2 0x478 JUMPI JUMPDEST POP POP DUP2 PUSH1 0x1 SHL SWAP2 PUSH1 0x0 NOT SWAP1 PUSH1 0x3 SHL SHR NOT AND OR PUSH1 0x3 DUP6 ADD SSTORE JUMPDEST ADD MLOAD SWAP2 ADD SSTORE PUSH1 0x0 DUP7 DUP2 MSTORE PUSH1 0x6 DUP10 MSTORE PUSH1 0x40 SWAP1 KECCAK256 PUSH1 0x5 DUP2 ADD DUP1 SLOAD PUSH1 0xFF NOT AND SWAP1 SSTORE PUSH1 0xA DUP2 ADD DUP1 SLOAD PUSH2 0x100 PUSH1 0x1 PUSH1 0xA8 SHL SUB NOT AND CALLER PUSH1 0x8 SHL PUSH2 0x100 PUSH1 0x1 PUSH1 0xA8 SHL SUB AND OR SWAP1 SSTORE PUSH1 0xA4 CALLDATALOAD PUSH1 0xD SWAP1 SWAP2 ADD SSTORE PUSH1 0xC4 CALLDATALOAD ISZERO PUSH2 0x447 JUMPI DUP6 PUSH1 0x0 MSTORE PUSH1 0x7 DUP9 MSTORE PUSH1 0x40 PUSH1 0x0 KECCAK256 CALLER PUSH1 0x0 MSTORE DUP9 MSTORE PUSH1 0x84 CALLDATALOAD PUSH1 0x40 PUSH1 0x0 KECCAK256 SSTORE DUP6 PUSH1 0x0 MSTORE PUSH1 0x6 DUP9 MSTORE PUSH1 0x84 CALLDATALOAD PUSH1 0x6 PUSH1 0x40 PUSH1 0x0 KECCAK256 ADD SSTORE JUMPDEST DUP6 PUSH1 0x0 MSTORE PUSH1 0x6 DUP9 MSTORE PUSH1 0x1 PUSH1 0xB PUSH1 0x40 PUSH1 0x0 KECCAK256 ADD SSTORE PUSH1 0xA DUP9 MSTORE PUSH1 0x40 PUSH1 0x0 KECCAK256 CALLER PUSH1 0x0 MSTORE DUP9 MSTORE PUSH1 0x40 PUSH1 0x0 KECCAK256 PUSH1 0x1 PUSH1 0xFF NOT DUP3 SLOAD AND OR SWAP1 SSTORE PUSH1 0x40 MLOAD SWAP4 DUP5 SWAP4 PUSH1 0x4 CALLDATALOAD DUP6 MSTORE PUSH1 0x24 CALLDATALOAD DUP11 DUP7 ADD MSTORE PUSH1 0xC0 PUSH1 0x40 DUP7 ADD MSTORE PUSH1 0xC0 DUP6 ADD SWAP1 PUSH2 0x1C59 JUMP JUMPDEST SWAP1 DUP4 DUP3 SUB PUSH1 0x60 DUP6 ADD MSTORE PUSH2 0x1C59 JUMP JUMPDEST PUSH1 0x84 CALLDATALOAD PUSH1 0x80 DUP4 ADD MSTORE CALLER PUSH1 0xA0 DUP4 ADD MSTORE SUB SWAP1 LOG2 DUP1 PUSH1 0x0 DUP1 MLOAD PUSH1 0x20 PUSH2 0x1E9F DUP4 CODECOPY DUP2 MLOAD SWAP2 MSTORE DUP4 PUSH1 0x40 MLOAD PUSH1 0x0 DUP2 MSTORE LOG2 PUSH1 0xFF NOT PUSH1 0x5 SLOAD AND PUSH1 0x5 SSTORE PUSH1 0x40 MLOAD SWAP1 DUP2 MSTORE RETURN JUMPDEST PUSH1 0x8 DUP9 MSTORE PUSH1 0x40 PUSH1 0x0 KECCAK256 CALLER PUSH1 0x0 MSTORE DUP9 MSTORE PUSH1 0x84 CALLDATALOAD PUSH1 0x40 PUSH1 0x0 KECCAK256 SSTORE DUP6 PUSH1 0x0 MSTORE PUSH1 0x6 DUP9 MSTORE PUSH1 0x84 CALLDATALOAD PUSH1 0x7 PUSH1 0x40 PUSH1 0x0 KECCAK256 ADD SSTORE PUSH2 0x3A8 JUMP JUMPDEST ADD MLOAD SWAP1 POP CODESIZE DUP1 PUSH2 0x30E JUMP JUMPDEST SWAP1 PUSH1 0x3 DUP6 ADD PUSH1 0x0 MSTORE DUP10 PUSH1 0x0 KECCAK256 SWAP2 PUSH1 0x0 JUMPDEST PUSH1 0x1F NOT DUP6 AND DUP2 LT PUSH2 0x509 JUMPI POP PUSH2 0x40B SWAP5 PUSH1 0x1 DUP6 PUSH32 0xC06EFF8F60BEB27586BEF537008582BB227E20E33C8B850EA5265D58A627D6A8 SWAP11 SWAP9 SWAP6 PUSH1 0x4 SWAP6 PUSH1 0x80 SWAP6 PUSH2 0x3FD SWAP13 SWAP10 PUSH1 0x1F NOT DUP2 AND LT PUSH2 0x4F0 JUMPI JUMPDEST POP POP POP DUP2 SHL ADD PUSH1 0x3 DUP6 ADD SSTORE PUSH2 0x326 JUMP JUMPDEST ADD MLOAD PUSH1 0x0 NOT PUSH1 0xF8 DUP5 PUSH1 0x3 SHL AND SHR NOT AND SWAP1 SSTORE CODESIZE DUP1 DUP1 PUSH2 0x4E0 JUMP JUMPDEST DUP2 DUP4 ADD MLOAD DUP5 SSTORE DUP11 SWAP10 POP PUSH1 0x1 SWAP1 SWAP4 ADD SWAP3 SWAP2 DUP12 ADD SWAP2 DUP12 ADD PUSH2 0x493 JUMP JUMPDEST PUSH1 0x3 DUP6 ADD PUSH1 0x0 MSTORE PUSH1 0x20 PUSH1 0x0 KECCAK256 PUSH1 0x1F DUP5 ADD PUSH1 0x5 SHR DUP2 ADD PUSH1 0x20 DUP6 LT PUSH2 0x563 JUMPI JUMPDEST PUSH1 0x1F DUP4 ADD PUSH1 0x5 SHR DUP3 ADD DUP2 LT PUSH2 0x557 JUMPI POP POP PUSH2 0x2BC JUMP JUMPDEST PUSH1 0x0 DUP2 SSTORE PUSH1 0x1 ADD PUSH2 0x541 JUMP JUMPDEST POP DUP1 PUSH2 0x541 JUMP JUMPDEST PUSH4 0x4E487B71 PUSH1 0xE0 SHL PUSH1 0x0 MSTORE PUSH1 0x41 PUSH1 0x4 MSTORE PUSH1 0x24 PUSH1 0x0 REVERT JUMPDEST ADD MLOAD SWAP1 POP CODESIZE DUP1 PUSH2 0x277 JUMP JUMPDEST SWAP3 POP PUSH1 0x2 DUP6 ADD PUSH1 0x0 MSTORE PUSH1 0x20 PUSH1 0x0 KECCAK256 SWAP1 PUSH1 0x0 SWAP4 JUMPDEST PUSH1 0x1F NOT DUP5 AND DUP6 LT PUSH2 0x5E2 JUMPI PUSH1 0x1 SWAP5 POP DUP4 PUSH1 0x1F NOT DUP2 AND LT PUSH2 0x5C9 JUMPI JUMPDEST POP POP POP DUP2 SHL ADD PUSH1 0x2 DUP4 ADD SSTORE PUSH2 0x28F JUMP JUMPDEST ADD MLOAD PUSH1 0x0 NOT PUSH1 0xF8 DUP5 PUSH1 0x3 SHL AND SHR NOT AND SWAP1 SSTORE CODESIZE DUP1 DUP1 PUSH2 0x5B9 JUMP JUMPDEST DUP2 DUP2 ADD MLOAD DUP4 SSTORE PUSH1 0x20 SWAP5 DUP6 ADD SWAP5 PUSH1 0x1 SWAP1 SWAP4 ADD SWAP3 SWAP1 SWAP2 ADD SWAP1 PUSH2 0x59E JUMP JUMPDEST SWAP1 SWAP2 POP PUSH1 0x2 DUP6 ADD PUSH1 0x0 MSTORE PUSH1 0x20 PUSH1 0x0 KECCAK256 PUSH1 0x1F DUP5 ADD PUSH1 0x5 SHR DUP2 ADD PUSH1 0x20 DUP6 LT PUSH2 0x649 JUMPI JUMPDEST SWAP1 DUP5 SWAP4 SWAP3 SWAP2 JUMPDEST PUSH1 0x1F DUP4 ADD PUSH1 0x5 SHR DUP3 ADD DUP2 LT PUSH2 0x63A JUMPI POP POP PUSH2 0x260 JUMP JUMPDEST PUSH1 0x0 DUP2 SSTORE DUP6 SWAP5 POP PUSH1 0x1 ADD PUSH2 0x624 JUMP JUMPDEST POP DUP1 PUSH2 0x61E JUMP JUMPDEST PUSH18 0x24B73B30B634B21032BC3834B930BA34B7B7 PUSH1 0x71 SHL PUSH1 0x40 MLOAD SWAP2 PUSH3 0x461BCD PUSH1 0xE5 SHL DUP4 MSTORE PUSH1 0x20 PUSH1 0x4 DUP5 ADD MSTORE PUSH1 0x12 PUSH1 0x24 DUP5 ADD MSTORE DUP3 ADD MSTORE REVERT JUMPDEST PUSH22 0x125B98DBDC9C9958DD081CDD185AD948185B5BDD5B9D PUSH1 0x52 SHL PUSH1 0x40 MLOAD SWAP2 PUSH3 0x461BCD PUSH1 0xE5 SHL DUP4 MSTORE PUSH1 0x20 PUSH1 0x4 DUP5 ADD MSTORE PUSH1 0x16 PUSH1 0x24 DUP5 ADD MSTORE DUP3 ADD MSTORE REVERT JUMPDEST PUSH13 0x496E76616C6964207374616B65 PUSH1 0x98 SHL PUSH1 0x40 MLOAD SWAP2 PUSH3 0x461BCD PUSH1 0xE5 SHL DUP4 MSTORE PUSH1 0x20 PUSH1 0x4 DUP5 ADD MSTORE PUSH1 0xD PUSH1 0x24 DUP5 ADD MSTORE DUP3 ADD MSTORE REVERT JUMPDEST PUSH16 0x496E76616C69642063757272656E6379 PUSH1 0x80 SHL PUSH1 0x40 MLOAD SWAP2 PUSH3 0x461BCD PUSH1 0xE5 SHL DUP4 MSTORE PUSH1 0x20 PUSH1 0x4 DUP5 ADD MSTORE PUSH1 0x10 PUSH1 0x24 DUP5 ADD MSTORE DUP3 ADD MSTORE REVERT JUMPDEST PUSH1 0x10 SWAP2 POP GT ISZERO CODESIZE PUSH2 0x1B6 JUMP JUMPDEST PUSH16 0x496E76616C69642063617465676F7279 PUSH1 0x80 SHL PUSH1 0x40 MLOAD SWAP2 PUSH3 0x461BCD PUSH1 0xE5 SHL DUP4 MSTORE PUSH1 0x20 PUSH1 0x4 DUP5 ADD MSTORE PUSH1 0x10 PUSH1 0x24 DUP5 ADD MSTORE DUP3 ADD MSTORE REVERT JUMPDEST PUSH1 0x20 SWAP2 POP GT ISZERO CODESIZE PUSH2 0x1A4 JUMP JUMPDEST PUSH15 0x496E76616C69642062657420696473 PUSH1 0x88 SHL PUSH1 0x40 MLOAD SWAP2 PUSH3 0x461BCD PUSH1 0xE5 SHL DUP4 MSTORE PUSH1 0x20 PUSH1 0x4 DUP5 ADD MSTORE PUSH1 0xF PUSH1 0x24 DUP5 ADD MSTORE DUP3 ADD MSTORE REVERT JUMPDEST POP PUSH1 0x24 CALLDATALOAD ISZERO ISZERO PUSH2 0x193 JUMP JUMPDEST PUSH1 0x0 DUP1 REVERT JUMPDEST CALLVALUE PUSH2 0x7AF JUMPI PUSH1 0x40 CALLDATASIZE PUSH1 0x3 NOT ADD SLT PUSH2 0x7AF JUMPI PUSH1 0x4 CALLDATALOAD PUSH1 0x24 CALLDATALOAD SWAP1 PUSH2 0x7E1 PUSH1 0x1 DUP1 PUSH1 0xA0 SHL SUB PUSH1 0x0 SLOAD AND CALLER EQ PUSH2 0x1CFC JUMP JUMPDEST PUSH2 0xE10 DUP2 LT PUSH2 0x82C JUMPI DUP2 ISZERO PUSH2 0x7F8 JUMPI PUSH1 0x3 SSTORE PUSH1 0x4 SSTORE STOP JUMPDEST PUSH1 0x40 MLOAD PUSH3 0x461BCD PUSH1 0xE5 SHL DUP2 MSTORE PUSH1 0x20 PUSH1 0x4 DUP3 ADD MSTORE PUSH1 0xC PUSH1 0x24 DUP3 ADD MSTORE PUSH12 0x6D696E5374616B65203E203 PUSH1 0xA4 SHL PUSH1 0x44 DUP3 ADD MSTORE PUSH1 0x64 SWAP1 REVERT JUMPDEST PUSH1 0x40 MLOAD PUSH3 0x461BCD PUSH1 0xE5 SHL DUP2 MSTORE PUSH1 0x20 PUSH1 0x4 DUP3 ADD MSTORE PUSH1 0x10 PUSH1 0x24 DUP3 ADD MSTORE PUSH16 0x1DDA5B991BDDC81D1BDBC81CDA1BDC9D PUSH1 0x82 SHL PUSH1 0x44 DUP3 ADD MSTORE PUSH1 0x64 SWAP1 REVERT JUMPDEST CALLVALUE PUSH2 0x7AF JUMPI PUSH1 0x40 CALLDATASIZE PUSH1 0x3 NOT ADD SLT PUSH2 0x7AF JUMPI PUSH2 0x87D PUSH2 0x1B16 JUMP JUMPDEST PUSH1 0x4 CALLDATALOAD PUSH1 0x0 MSTORE PUSH1 0x7 PUSH1 0x20 MSTORE PUSH1 0x40 PUSH1 0x0 KECCAK256 SWAP1 PUSH1 0x1 DUP1 PUSH1 0xA0 SHL SUB AND PUSH1 0x0 MSTORE PUSH1 0x20 MSTORE PUSH1 0x20 PUSH1 0x40 PUSH1 0x0 KECCAK256 SLOAD PUSH1 0x40 MLOAD SWAP1 DUP2 MSTORE RETURN JUMPDEST CALLVALUE PUSH2 0x7AF JUMPI PUSH1 0x0 CALLDATASIZE PUSH1 0x3 NOT ADD SLT PUSH2 0x7AF JUMPI PUSH1 0x20 PUSH1 0x4 SLOAD PUSH1 0x40 MLOAD SWAP1 DUP2 MSTORE RETURN JUMPDEST CALLVALUE PUSH2 0x7AF JUMPI PUSH1 0x40 CALLDATASIZE PUSH1 0x3 NOT ADD SLT PUSH2 0x7AF JUMPI PUSH2 0x8E3 PUSH2 0x1B16 JUMP JUMPDEST PUSH1 0x4 CALLDATALOAD PUSH1 0x0 MSTORE PUSH1 0x8 PUSH1 0x20 MSTORE PUSH1 0x40 PUSH1 0x0 KECCAK256 SWAP1 PUSH1 0x1 DUP1 PUSH1 0xA0 SHL SUB AND PUSH1 0x0 MSTORE PUSH1 0x20 MSTORE PUSH1 0x20 PUSH1 0x40 PUSH1 0x0 KECCAK256 SLOAD PUSH1 0x40 MLOAD SWAP1 DUP2 MSTORE RETURN JUMPDEST PUSH1 0x20 DUP1 PUSH1 0x3 NOT CALLDATASIZE ADD SLT PUSH2 0x7AF JUMPI PUSH1 0x4 CALLDATALOAD PUSH1 0x5 SLOAD SWAP2 PUSH2 0x933 PUSH1 0xFF DUP5 AND ISZERO PUSH2 0x1D34 JUMP JUMPDEST PUSH1 0x1 PUSH1 0xFF NOT DUP1 SWAP5 AND OR PUSH1 0x5 SSTORE DUP2 PUSH1 0x0 MSTORE PUSH1 0x6 DUP2 MSTORE PUSH1 0x40 PUSH1 0x0 KECCAK256 PUSH1 0x5 DUP2 ADD SWAP1 PUSH1 0xFF DUP3 SLOAD AND PUSH1 0x6 DUP2 LT ISZERO PUSH2 0xB35 JUMPI PUSH2 0xB02 JUMPI PUSH1 0x4 DUP2 ADD SLOAD CALLVALUE SUB PUSH2 0xAC4 JUMPI PUSH1 0xA DUP2 ADD SLOAD CALLER PUSH1 0x8 SWAP2 SWAP1 SWAP2 SHR PUSH1 0x1 PUSH1 0x1 PUSH1 0xA0 SHL SUB AND EQ PUSH2 0xA88 JUMPI PUSH1 0x6 DUP2 ADD DUP1 SLOAD PUSH1 0x0 DUP1 MLOAD PUSH1 0x20 PUSH2 0x1E9F DUP4 CODECOPY DUP2 MLOAD SWAP2 MSTORE SWAP5 SWAP4 SWAP3 SWAP2 SWAP1 ISZERO PUSH2 0xA66 JUMPI POP DUP5 PUSH1 0x0 MSTORE PUSH1 0x8 DUP4 MSTORE PUSH1 0x40 PUSH1 0x0 KECCAK256 CALLER PUSH1 0x0 MSTORE DUP4 MSTORE CALLVALUE PUSH1 0x40 PUSH1 0x0 KECCAK256 SSTORE CALLVALUE PUSH1 0x7 DUP3 ADD SSTORE JUMPDEST DUP5 PUSH1 0x0 MSTORE PUSH1 0xA DUP4 MSTORE PUSH1 0x40 PUSH1 0x0 KECCAK256 CALLER PUSH1 0x0 MSTORE DUP4 MSTORE PUSH1 0xFF PUSH1 0x40 PUSH1 0x0 KECCAK256 SLOAD AND ISZERO PUSH2 0xA2F JUMPI JUMPDEST POP PUSH1 0x1 DUP6 DUP3 SLOAD AND OR SWAP1 SSTORE PUSH1 0x40 MLOAD DUP4 PUSH32 0x2A9615E57B2ABA23102F9E7AE5D5CFF829603CA77618E713B9A80B073CDA0961 PUSH1 0x0 DUP1 LOG2 PUSH1 0x1 DUP2 MSTORE LOG2 PUSH1 0x5 SLOAD AND PUSH1 0x5 SSTORE PUSH1 0x0 DUP1 RETURN JUMPDEST PUSH1 0xB SWAP1 DUP6 PUSH1 0x0 MSTORE PUSH1 0xA DUP5 MSTORE PUSH1 0x40 PUSH1 0x0 KECCAK256 CALLER PUSH1 0x0 MSTORE DUP5 MSTORE PUSH1 0x40 PUSH1 0x0 KECCAK256 PUSH1 0x1 DUP9 DUP3 SLOAD AND OR SWAP1 SSTORE ADD PUSH2 0xA5E DUP2 SLOAD PUSH2 0x1D6C JUMP JUMPDEST SWAP1 SSTORE DUP6 PUSH2 0x9EB JUMP JUMPDEST DUP6 PUSH1 0x0 MSTORE PUSH1 0x7 DUP5 MSTORE PUSH1 0x40 PUSH1 0x0 KECCAK256 CALLER PUSH1 0x0 MSTORE DUP5 MSTORE CALLVALUE PUSH1 0x40 PUSH1 0x0 KECCAK256 SSTORE CALLVALUE SWAP1 SSTORE PUSH2 0x9C9 JUMP JUMPDEST PUSH1 0x40 MLOAD PUSH3 0x461BCD PUSH1 0xE5 SHL DUP2 MSTORE PUSH1 0x4 DUP2 ADD DUP5 SWAP1 MSTORE PUSH1 0x14 PUSH1 0x24 DUP3 ADD MSTORE PUSH20 0x86E4CAC2E8DEE440C6C2DCDCDEE840DAC2E8C6D PUSH1 0x63 SHL PUSH1 0x44 DUP3 ADD MSTORE PUSH1 0x64 SWAP1 REVERT JUMPDEST PUSH1 0x40 MLOAD PUSH3 0x461BCD PUSH1 0xE5 SHL DUP2 MSTORE PUSH1 0x4 DUP2 ADD DUP5 SWAP1 MSTORE PUSH1 0x16 PUSH1 0x24 DUP3 ADD MSTORE PUSH22 0x125B98DBDC9C9958DD081B585D18DA08185B5BDD5B9D PUSH1 0x52 SHL PUSH1 0x44 DUP3 ADD MSTORE PUSH1 0x64 SWAP1 REVERT JUMPDEST PUSH1 0x40 MLOAD PUSH3 0x461BCD PUSH1 0xE5 SHL DUP2 MSTORE PUSH1 0x4 DUP2 ADD DUP5 SWAP1 MSTORE PUSH1 0xB PUSH1 0x24 DUP3 ADD MSTORE PUSH11 0x4E6F742070656E64696E67 PUSH1 0xA8 SHL PUSH1 0x44 DUP3 ADD MSTORE PUSH1 0x64 SWAP1 REVERT JUMPDEST PUSH4 0x4E487B71 PUSH1 0xE0 SHL PUSH1 0x0 MSTORE PUSH1 0x21 PUSH1 0x4 MSTORE PUSH1 0x24 PUSH1 0x0 REVERT JUMPDEST CALLVALUE PUSH2 0x7AF JUMPI PUSH1 0x20 CALLDATASIZE PUSH1 0x3 NOT ADD SLT PUSH2 0x7AF JUMPI PUSH1 0x4 CALLDATALOAD PUSH1 0x0 MSTORE PUSH1 0x6 PUSH1 0x20 MSTORE PUSH1 0x40 PUSH1 0x0 KECCAK256 PUSH1 0x40 MLOAD SWAP1 PUSH2 0xB79 DUP3 PUSH2 0x1B75 JUMP JUMPDEST DUP1 SLOAD DUP3 MSTORE PUSH1 0x1 DUP2 ADD SLOAD PUSH1 0x20 DUP4 ADD SWAP1 DUP2 MSTORE SWAP2 PUSH2 0xB96 PUSH1 0x2 DUP4 ADD PUSH2 0x1BB3 JUMP JUMPDEST PUSH1 0x40 DUP3 ADD SWAP1 DUP2 MSTORE PUSH2 0xBA9 PUSH1 0x3 DUP5 ADD PUSH2 0x1BB3 JUMP JUMPDEST SWAP3 PUSH1 0x60 DUP4 ADD SWAP4 DUP5 MSTORE PUSH1 0x4 DUP2 ADD SLOAD PUSH1 0x80 DUP5 ADD MSTORE PUSH1 0x5 DUP2 ADD SLOAD SWAP4 PUSH1 0x6 DUP3 ADD SLOAD PUSH1 0x7 DUP4 ADD SLOAD PUSH1 0x8 DUP5 ADD SLOAD PUSH1 0x9 DUP6 ADD SLOAD SWAP2 PUSH1 0xA DUP7 ADD SLOAD SWAP4 PUSH1 0xB DUP8 ADD SLOAD SWAP6 PUSH1 0xC DUP9 ADD SLOAD SWAP8 PUSH1 0xD ADD SLOAD SWAP9 PUSH1 0x40 MLOAD DUP1 SWAP14 PUSH2 0x1A0 DUP1 DUP4 MSTORE DUP14 MLOAD SWAP1 DUP4 ADD MSTORE MLOAD SWAP1 PUSH2 0x1C0 ADD MSTORE MLOAD PUSH2 0x1E0 DUP14 ADD PUSH1 0xA0 SWAP1 MSTORE PUSH2 0x240 DUP14 ADD PUSH2 0xC1D SWAP2 PUSH2 0x1C59 JUMP JUMPDEST SWAP1 MLOAD DUP13 DUP3 SUB PUSH2 0x19F NOT ADD PUSH2 0x200 DUP15 ADD MSTORE PUSH2 0xC37 SWAP2 SWAP1 PUSH2 0x1C59 JUMP JUMPDEST SWAP9 PUSH1 0x80 ADD MLOAD PUSH2 0x220 DUP13 ADD MSTORE PUSH1 0xFF DUP11 AND PUSH1 0x6 DUP2 LT ISZERO PUSH2 0xB35 JUMPI DUP12 SWAP11 PUSH1 0xFF SWAP2 PUSH1 0x20 DUP14 ADD MSTORE DUP2 DUP2 PUSH1 0x8 SHR AND ISZERO ISZERO PUSH1 0x40 DUP14 ADD MSTORE PUSH1 0x10 SHR AND ISZERO ISZERO PUSH1 0x60 DUP12 ADD MSTORE PUSH1 0x80 DUP11 ADD MSTORE PUSH1 0xA0 DUP10 ADD MSTORE PUSH1 0xC0 DUP9 ADD MSTORE PUSH1 0xE0 DUP8 ADD MSTORE PUSH1 0xFF DUP2 AND ISZERO ISZERO PUSH2 0x100 DUP8 ADD MSTORE PUSH1 0x1 DUP1 PUSH1 0xA0 SHL SUB SWAP1 PUSH1 0x8 SHR AND PUSH2 0x120 DUP7 ADD MSTORE PUSH2 0x140 DUP6 ADD MSTORE PUSH2 0x160 DUP5 ADD MSTORE PUSH2 0x180 DUP4 ADD MSTORE SUB SWAP1 RETURN JUMPDEST CALLVALUE PUSH2 0x7AF JUMPI PUSH1 0x20 CALLDATASIZE PUSH1 0x3 NOT ADD SLT PUSH2 0x7AF JUMPI PUSH1 0x4 CALLDATALOAD PUSH2 0xCE2 PUSH1 0x1 DUP1 PUSH1 0xA0 SHL SUB PUSH1 0x0 SLOAD AND CALLER EQ PUSH2 0x1CFC JUMP JUMPDEST DUP1 PUSH1 0x0 MSTORE PUSH1 0x6 PUSH1 0x20 MSTORE PUSH1 0x5 PUSH1 0x40 PUSH1 0x0 KECCAK256 PUSH2 0xD01 PUSH1 0x4 DUP3 ADD SLOAD ISZERO ISZERO PUSH2 0x1D7B JUMP JUMPDEST ADD DUP1 SLOAD PUSH1 0xFF DUP2 AND PUSH1 0x6 DUP2 LT ISZERO PUSH2 0xB35 JUMPI PUSH1 0x1 SUB PUSH2 0xD3D JUMPI PUSH1 0x2 SWAP1 PUSH1 0xFF NOT AND OR SWAP1 SSTORE PUSH1 0x0 DUP1 MLOAD PUSH1 0x20 PUSH2 0x1E9F DUP4 CODECOPY DUP2 MLOAD SWAP2 MSTORE PUSH1 0x20 PUSH1 0x40 MLOAD PUSH1 0x2 DUP2 MSTORE LOG2 STOP JUMPDEST PUSH1 0x40 MLOAD PUSH3 0x461BCD PUSH1 0xE5 SHL DUP2 MSTORE PUSH1 0x20 PUSH1 0x4 DUP3 ADD MSTORE PUSH1 0xC PUSH1 0x24 DUP3 ADD MSTORE PUSH12 0x4D757374206265206C697665 PUSH1 0xA0 SHL PUSH1 0x44 DUP3 ADD MSTORE PUSH1 0x64 SWAP1 REVERT JUMPDEST CALLVALUE PUSH2 0x7AF JUMPI PUSH1 0x40 CALLDATASIZE PUSH1 0x3 NOT ADD SLT PUSH2 0x7AF JUMPI PUSH2 0xD8A PUSH2 0x1B16 JUMP JUMPDEST PUSH1 0x4 CALLDATALOAD PUSH1 0x0 MSTORE PUSH1 0xA PUSH1 0x20 MSTORE PUSH1 0x40 PUSH1 0x0 KECCAK256 SWAP1 PUSH1 0x1 DUP1 PUSH1 0xA0 SHL SUB AND PUSH1 0x0 MSTORE PUSH1 0x20 MSTORE PUSH1 0x20 PUSH1 0xFF PUSH1 0x40 PUSH1 0x0 KECCAK256 SLOAD AND PUSH1 0x40 MLOAD SWAP1 ISZERO ISZERO DUP2 MSTORE RETURN JUMPDEST PUSH1 0x40 CALLDATASIZE PUSH1 0x3 NOT ADD SLT PUSH2 0x7AF JUMPI PUSH1 0x4 CALLDATALOAD PUSH2 0xDD5 PUSH2 0x1B2C JUMP JUMPDEST SWAP1 PUSH1 0x5 SLOAD SWAP2 PUSH2 0xDE7 PUSH1 0xFF DUP5 AND ISZERO PUSH2 0x1D34 JUMP JUMPDEST PUSH1 0x1 PUSH1 0xFF NOT DUP1 SWAP5 AND OR PUSH1 0x5 SSTORE DUP2 PUSH1 0x0 MSTORE PUSH1 0x20 PUSH1 0x6 DUP2 MSTORE PUSH1 0x40 PUSH1 0x0 KECCAK256 SWAP2 PUSH2 0xE12 PUSH1 0x4 DUP5 ADD SLOAD ISZERO ISZERO PUSH2 0x1D7B JUMP JUMPDEST PUSH1 0xFF PUSH1 0x5 DUP5 ADD SLOAD AND PUSH1 0x6 DUP2 LT ISZERO PUSH2 0xB35 JUMPI PUSH1 0x1 PUSH2 0xE2F SWAP2 EQ PUSH2 0x1DBA JUMP JUMPDEST CALLVALUE ISZERO PUSH2 0xF49 JUMPI PUSH1 0xD DUP4 ADD SLOAD TIMESTAMP LT ISZERO PUSH2 0xF1A JUMPI DUP4 PUSH1 0x0 MSTORE PUSH1 0xA DUP3 MSTORE PUSH1 0x40 PUSH1 0x0 KECCAK256 CALLER PUSH1 0x0 MSTORE DUP3 MSTORE PUSH1 0xFF PUSH1 0x40 PUSH1 0x0 KECCAK256 SLOAD AND ISZERO PUSH2 0xEE4 JUMPI JUMPDEST ISZERO PUSH2 0xEAA JUMPI PUSH1 0x6 SWAP3 PUSH1 0x0 MSTORE PUSH1 0x7 DUP2 MSTORE PUSH1 0x40 PUSH1 0x0 KECCAK256 SWAP1 CALLER PUSH1 0x0 MSTORE MSTORE PUSH1 0x40 PUSH1 0x0 KECCAK256 PUSH2 0xE8D CALLVALUE DUP3 SLOAD PUSH2 0x1DF1 JUMP JUMPDEST SWAP1 SSTORE ADD PUSH2 0xE9B CALLVALUE DUP3 SLOAD PUSH2 0x1DF1 JUMP JUMPDEST SWAP1 SSTORE JUMPDEST PUSH1 0x5 SLOAD AND PUSH1 0x5 SSTORE PUSH1 0x0 DUP1 RETURN JUMPDEST PUSH1 0x7 SWAP3 PUSH1 0x0 MSTORE PUSH1 0x8 DUP2 MSTORE PUSH1 0x40 PUSH1 0x0 KECCAK256 SWAP1 CALLER PUSH1 0x0 MSTORE MSTORE PUSH1 0x40 PUSH1 0x0 KECCAK256 PUSH2 0xECF CALLVALUE DUP3 SLOAD PUSH2 0x1DF1 JUMP JUMPDEST SWAP1 SSTORE ADD PUSH2 0xEDD CALLVALUE DUP3 SLOAD PUSH2 0x1DF1 JUMP JUMPDEST SWAP1 SSTORE PUSH2 0xE9E JUMP JUMPDEST DUP4 PUSH1 0x0 MSTORE PUSH1 0xA DUP3 MSTORE PUSH1 0x40 PUSH1 0x0 KECCAK256 CALLER PUSH1 0x0 MSTORE DUP3 MSTORE PUSH1 0x40 PUSH1 0x0 KECCAK256 PUSH1 0x1 DUP7 DUP3 SLOAD AND OR SWAP1 SSTORE PUSH1 0xB DUP4 ADD PUSH2 0xF13 DUP2 SLOAD PUSH2 0x1D6C JUMP JUMPDEST SWAP1 SSTORE PUSH2 0xE63 JUMP JUMPDEST PUSH1 0x40 MLOAD PUSH3 0x461BCD PUSH1 0xE5 SHL DUP2 MSTORE PUSH1 0x4 DUP2 ADD DUP4 SWAP1 MSTORE PUSH1 0x7 PUSH1 0x24 DUP3 ADD MSTORE PUSH7 0x115E1C1A5C9959 PUSH1 0xCA SHL PUSH1 0x44 DUP3 ADD MSTORE PUSH1 0x64 SWAP1 REVERT JUMPDEST PUSH1 0x40 MLOAD PUSH3 0x461BCD PUSH1 0xE5 SHL DUP2 MSTORE PUSH1 0x4 DUP2 ADD DUP4 SWAP1 MSTORE PUSH1 0xA PUSH1 0x24 DUP3 ADD MSTORE PUSH10 0x616D6F756E74203E203 PUSH1 0xB4 SHL PUSH1 0x44 DUP3 ADD MSTORE PUSH1 0x64 SWAP1 REVERT JUMPDEST CALLVALUE PUSH2 0x7AF JUMPI PUSH1 0x0 CALLDATASIZE PUSH1 0x3 NOT ADD SLT PUSH2 0x7AF JUMPI PUSH1 0x0 SLOAD PUSH1 0x40 MLOAD PUSH1 0x1 PUSH1 0x1 PUSH1 0xA0 SHL SUB SWAP1 SWAP2 AND DUP2 MSTORE PUSH1 0x20 SWAP1 RETURN JUMPDEST CALLVALUE PUSH2 0x7AF JUMPI PUSH1 0x0 CALLDATASIZE PUSH1 0x3 NOT ADD SLT PUSH2 0x7AF JUMPI PUSH1 0x1 SLOAD PUSH1 0x40 MLOAD PUSH1 0x1 PUSH1 0x1 PUSH1 0xA0 SHL SUB SWAP1 SWAP2 AND DUP2 MSTORE PUSH1 0x20 SWAP1 RETURN JUMPDEST CALLVALUE PUSH2 0x7AF JUMPI PUSH1 0x20 CALLDATASIZE PUSH1 0x3 NOT ADD SLT PUSH2 0x7AF JUMPI PUSH1 0x4 CALLDATALOAD PUSH1 0x1 PUSH1 0x1 PUSH1 0xA0 SHL SUB DUP2 DUP2 AND SWAP2 DUP3 SWAP1 SUB PUSH2 0x7AF JUMPI PUSH2 0x1003 SWAP1 PUSH1 0x0 SLOAD AND CALLER EQ PUSH2 0x1CFC JUMP JUMPDEST PUSH12 0xFFFFFFFFFFFFFFFFFFFFFFFF PUSH1 0xA0 SHL PUSH1 0x1 SLOAD AND OR PUSH1 0x1 SSTORE PUSH1 0x0 DUP1 RETURN JUMPDEST CALLVALUE PUSH2 0x7AF JUMPI PUSH1 0x20 CALLDATASIZE PUSH1 0x3 NOT ADD SLT PUSH2 0x7AF JUMPI PUSH1 0x4 CALLDATALOAD DUP1 PUSH1 0x0 MSTORE PUSH1 0x6 PUSH1 0x20 MSTORE PUSH1 0x40 PUSH1 0x0 KECCAK256 PUSH1 0x5 DUP2 ADD SWAP1 DUP2 SLOAD SWAP1 PUSH1 0xFF DUP3 AND SWAP1 PUSH1 0x6 DUP3 LT ISZERO PUSH2 0xB35 JUMPI PUSH2 0x1066 PUSH1 0x1 PUSH1 0xD SWAP4 EQ PUSH2 0x1DBA JUMP JUMPDEST ADD SLOAD TIMESTAMP LT PUSH2 0x1093 JUMPI PUSH1 0x2 SWAP1 PUSH1 0xFF NOT AND OR SWAP1 SSTORE PUSH1 0x0 DUP1 MLOAD PUSH1 0x20 PUSH2 0x1E9F DUP4 CODECOPY DUP2 MLOAD SWAP2 MSTORE PUSH1 0x20 PUSH1 0x40 MLOAD PUSH1 0x2 DUP2 MSTORE LOG2 STOP JUMPDEST PUSH1 0x40 MLOAD PUSH3 0x461BCD PUSH1 0xE5 SHL DUP2 MSTORE PUSH1 0x20 PUSH1 0x4 DUP3 ADD MSTORE PUSH1 0xF PUSH1 0x24 DUP3 ADD MSTORE PUSH15 0x139BDD08195E1C1A5C9959081E595D PUSH1 0x8A SHL PUSH1 0x44 DUP3 ADD MSTORE PUSH1 0x64 SWAP1 REVERT JUMPDEST CALLVALUE PUSH2 0x7AF JUMPI PUSH1 0x20 CALLDATASIZE PUSH1 0x3 NOT ADD SLT PUSH2 0x7AF JUMPI PUSH1 0x4 CALLDATALOAD PUSH2 0x10F3 PUSH1 0x1 DUP1 PUSH1 0xA0 SHL SUB PUSH1 0x0 SLOAD AND CALLER EQ PUSH2 0x1CFC JUMP JUMPDEST DUP1 PUSH1 0x0 MSTORE PUSH1 0x6 PUSH1 0x20 MSTORE PUSH1 0x40 PUSH1 0x0 KECCAK256 PUSH1 0x5 DUP2 ADD SWAP1 PUSH1 0xFF DUP3 SLOAD AND PUSH1 0x6 DUP2 LT ISZERO PUSH2 0xB35 JUMPI DUP4 SWAP3 PUSH2 0x11A4 PUSH1 0x8 PUSH32 0x5DFA492EDF776BD526302890C698AED537E30B0E025F38033A7158004CCAD90D SWAP5 PUSH2 0x114B PUSH1 0x2 PUSH1 0xFF SWAP7 EQ PUSH2 0x1DFE JUMP JUMPDEST PUSH1 0x6 DUP2 ADD SLOAD PUSH1 0x7 DUP3 ADD SLOAD DUP6 SLOAD PUSH2 0xFF00 NOT AND SWAP2 LT ISZERO PUSH1 0x8 SHL PUSH2 0xFF00 AND OR DUP5 SSTORE PUSH1 0x3 DUP6 NOT DUP6 SLOAD AND OR DUP1 SWAP5 SSTORE PUSH2 0x1180 PUSH1 0x3 SLOAD TIMESTAMP PUSH2 0x1DF1 JUMP JUMPDEST SWAP2 DUP3 SWAP2 ADD SSTORE PUSH1 0x40 MLOAD SWAP4 DUP5 SWAP4 PUSH1 0x8 SHR AND DUP4 PUSH1 0x20 SWAP1 SWAP4 SWAP3 SWAP2 SWAP4 PUSH1 0x40 DUP2 ADD SWAP5 ISZERO ISZERO DUP2 MSTORE ADD MSTORE JUMP JUMPDEST SUB SWAP1 LOG2 PUSH1 0x0 DUP1 MLOAD PUSH1 0x20 PUSH2 0x1E9F DUP4 CODECOPY DUP2 MLOAD SWAP2 MSTORE PUSH1 0x20 PUSH1 0x40 MLOAD PUSH1 0x3 DUP2 MSTORE LOG2 STOP JUMPDEST CALLVALUE PUSH2 0x7AF JUMPI PUSH1 0x40 CALLDATASIZE PUSH1 0x3 NOT ADD SLT PUSH2 0x7AF JUMPI PUSH1 0x4 CALLDATALOAD PUSH2 0x11DE PUSH2 0x1B2C JUMP JUMPDEST PUSH1 0x0 SLOAD PUSH1 0x1 PUSH1 0x1 PUSH1 0xA0 SHL SUB SWAP2 SWAP1 DUP3 AND CALLER EQ DUP1 ISZERO PUSH2 0x152B JUMPI JUMPDEST ISZERO PUSH2 0x14F5 JUMPI DUP3 PUSH1 0x0 MSTORE PUSH1 0x20 SWAP1 PUSH1 0x6 DUP3 MSTORE PUSH1 0x40 PUSH1 0x0 KECCAK256 PUSH1 0x5 DUP2 ADD DUP1 SLOAD SWAP3 PUSH1 0xFF DUP5 AND PUSH1 0x6 DUP2 LT ISZERO DUP1 PUSH2 0xB35 JUMPI PUSH1 0x3 DUP3 EQ DUP1 SWAP3 DUP2 ISZERO PUSH2 0x14E6 JUMPI JUMPDEST POP ISZERO PUSH2 0x14B1 JUMPI PUSH2 0xB35 JUMPI PUSH2 0x146A JUMPI JUMPDEST PUSH1 0xA DUP4 ADD SWAP2 DUP3 SLOAD SWAP2 PUSH1 0xFF DUP4 AND PUSH2 0x1439 JUMPI SWAP2 PUSH1 0x1 SWAP2 PUSH1 0x5 DUP11 SWAP8 SWAP7 SWAP6 SWAP5 ISZERO ISZERO SWAP7 PUSH3 0xFF0000 DUP9 PUSH1 0x10 SHL AND SWAP1 PUSH3 0xFF00FF NOT AND OR OR SWAP1 SSTORE PUSH1 0xFF NOT AND OR SWAP6 DUP7 DUP3 SSTORE PUSH2 0x128A PUSH1 0x6 DUP5 ADD SLOAD PUSH1 0x7 DUP6 ADD SLOAD SWAP1 PUSH2 0x1DF1 JUMP JUMPDEST SWAP2 DUP3 ISZERO ISZERO DUP1 PUSH2 0x142B JUMPI JUMPDEST PUSH2 0x12DF JUMPI JUMPDEST DUP6 PUSH1 0x0 DUP1 MLOAD PUSH1 0x20 PUSH2 0x1E9F DUP4 CODECOPY DUP2 MLOAD SWAP2 MSTORE DUP9 DUP3 PUSH32 0xE940C2F4A2E1DDA6EA582B576E35520A2EC6B80E436C26962C1150DDD7D07993 DUP3 DUP11 PUSH1 0x40 MLOAD SWAP1 DUP2 MSTORE LOG2 PUSH1 0x40 MLOAD PUSH1 0x5 DUP2 MSTORE LOG2 STOP JUMPDEST SWAP1 SWAP2 SWAP3 SWAP5 POP PUSH1 0xB DUP6 ADD SLOAD PUSH1 0xA DUP2 MUL SWAP1 DUP1 DUP3 DIV PUSH1 0xA EQ SWAP1 ISZERO OR ISZERO PUSH2 0x1415 JUMPI PUSH1 0x64 ADD SWAP5 DUP6 PUSH1 0x64 GT PUSH2 0x1415 JUMPI PUSH2 0x2710 PUSH2 0x1326 DUP8 PUSH1 0xC SWAP7 DUP13 SWAP10 SWAP2 PUSH2 0x3E8 DUP1 SWAP2 GT PUSH2 0x140D JUMPI JUMPDEST POP PUSH2 0x1E3B JUMP JUMPDEST DIV SWAP4 DUP5 SWAP2 ADD SSTORE DUP3 PUSH2 0x1338 JUMPI JUMPDEST DUP1 PUSH2 0x1299 JUMP JUMPDEST SWAP2 SWAP4 POP SWAP2 SWAP4 SWAP5 PUSH1 0x0 DUP1 DUP1 DUP7 DUP7 DUP3 SWAP6 PUSH1 0x8 SHR AND GAS CALL PUSH2 0x1354 PUSH2 0x1E6E JUMP JUMPDEST POP ISZERO PUSH2 0x13C8 JUMPI SWAP4 DUP1 SWAP4 DUP7 SWAP4 DUP5 PUSH32 0xEC530AB710FDAA2B5968FE15F486992441A96F643219CF0150904AA5B9EEDF82 DUP5 PUSH32 0xE940C2F4A2E1DDA6EA582B576E35520A2EC6B80E436C26962C1150DDD7D07993 SWAP7 PUSH1 0x0 DUP1 MLOAD PUSH1 0x20 PUSH2 0x1E9F DUP4 CODECOPY DUP2 MLOAD SWAP2 MSTORE SWAP11 SLOAD PUSH1 0x8 SHR AND SWAP4 PUSH1 0x40 MLOAD SWAP1 DUP2 MSTORE LOG3 SWAP2 DUP8 PUSH2 0x1332 JUMP JUMPDEST PUSH1 0x40 MLOAD PUSH3 0x461BCD PUSH1 0xE5 SHL DUP2 MSTORE PUSH1 0x4 DUP2 ADD DUP7 SWAP1 MSTORE PUSH1 0x1A PUSH1 0x24 DUP3 ADD MSTORE PUSH32 0x436F6D6D697373696F6E207472616E73666572206661696C6564000000000000 PUSH1 0x44 DUP3 ADD MSTORE PUSH1 0x64 SWAP1 REVERT JUMPDEST SWAP2 POP DUP14 PUSH2 0x1320 JUMP JUMPDEST PUSH4 0x4E487B71 PUSH1 0xE0 SHL PUSH1 0x0 MSTORE PUSH1 0x11 PUSH1 0x4 MSTORE PUSH1 0x24 PUSH1 0x0 REVERT JUMPDEST POP DUP2 DUP9 PUSH1 0x8 SHR AND ISZERO ISZERO PUSH2 0x1294 JUMP JUMPDEST PUSH1 0x40 MLOAD PUSH3 0x461BCD PUSH1 0xE5 SHL DUP2 MSTORE PUSH1 0x4 DUP2 ADD DUP9 SWAP1 MSTORE PUSH1 0x9 PUSH1 0x24 DUP3 ADD MSTORE PUSH9 0x119A5B985B1A5E9959 PUSH1 0xBA SHL PUSH1 0x44 DUP3 ADD MSTORE PUSH1 0x64 SWAP1 REVERT JUMPDEST PUSH1 0x8 DUP4 ADD SLOAD TIMESTAMP GT PUSH2 0x123C JUMPI PUSH1 0x40 MLOAD PUSH3 0x461BCD PUSH1 0xE5 SHL DUP2 MSTORE PUSH1 0x4 DUP2 ADD DUP7 SWAP1 MSTORE PUSH1 0x14 PUSH1 0x24 DUP3 ADD MSTORE PUSH20 0x21B430B63632B733B29039BA34B6361037B832B7 PUSH1 0x61 SHL PUSH1 0x44 DUP3 ADD MSTORE PUSH1 0x64 SWAP1 REVERT JUMPDEST PUSH1 0x40 MLOAD PUSH3 0x461BCD PUSH1 0xE5 SHL DUP2 MSTORE PUSH1 0x4 DUP2 ADD DUP9 SWAP1 MSTORE PUSH1 0xD PUSH1 0x24 DUP3 ADD MSTORE PUSH13 0x496E76616C6964207374617465 PUSH1 0x98 SHL PUSH1 0x44 DUP3 ADD MSTORE PUSH1 0x64 SWAP1 REVERT JUMPDEST SWAP2 POP POP PUSH1 0x4 PUSH1 0x0 SWAP2 EQ DUP11 PUSH2 0x122D JUMP JUMPDEST PUSH1 0x40 MLOAD PUSH3 0x461BCD PUSH1 0xE5 SHL DUP2 MSTORE PUSH1 0x20 PUSH1 0x4 DUP3 ADD MSTORE PUSH1 0xE PUSH1 0x24 DUP3 ADD MSTORE PUSH14 0x139BDD08185D5D1A1BDC9A5E9959 PUSH1 0x92 SHL PUSH1 0x44 DUP3 ADD MSTORE PUSH1 0x64 SWAP1 REVERT JUMPDEST POP DUP2 PUSH1 0x1 SLOAD AND CALLER EQ PUSH2 0x11F6 JUMP JUMPDEST CALLVALUE PUSH2 0x7AF JUMPI PUSH1 0x40 CALLDATASIZE PUSH1 0x3 NOT ADD SLT PUSH2 0x7AF JUMPI PUSH1 0x4 CALLDATALOAD PUSH2 0x1554 PUSH2 0x1B2C JUMP JUMPDEST PUSH1 0x1 SLOAD PUSH1 0x1 PUSH1 0x1 PUSH1 0xA0 SHL SUB AND CALLER SUB PUSH2 0x1600 JUMPI DUP2 PUSH1 0x0 MSTORE PUSH1 0x6 PUSH1 0x20 MSTORE PUSH1 0x40 PUSH1 0x0 KECCAK256 SWAP1 PUSH1 0x5 DUP3 ADD SWAP1 PUSH1 0xFF DUP3 SLOAD AND SWAP1 PUSH1 0x6 DUP3 LT ISZERO PUSH2 0xB35 JUMPI DUP5 SWAP4 PUSH32 0x5DFA492EDF776BD526302890C698AED537E30B0E025F38033A7158004CCAD90D SWAP4 PUSH2 0x15BB PUSH1 0x2 PUSH1 0x8 SWAP6 EQ PUSH2 0x1DFE JUMP JUMPDEST DUP1 SLOAD PUSH2 0xFFFF NOT AND PUSH2 0xFF00 DUP5 ISZERO ISZERO PUSH1 0x8 SHL AND OR PUSH1 0x3 SWAP1 DUP2 OR SWAP1 SWAP2 SSTORE SLOAD PUSH2 0x15E0 SWAP1 TIMESTAMP PUSH2 0x1DF1 JUMP JUMPDEST SWAP3 ADD DUP3 SWAP1 SSTORE PUSH1 0x40 DUP1 MLOAD SWAP2 ISZERO ISZERO DUP3 MSTORE PUSH1 0x20 DUP3 ADD SWAP3 SWAP1 SWAP3 MSTORE SWAP1 DUP2 SWAP1 DUP2 ADD PUSH2 0x11A4 JUMP JUMPDEST PUSH1 0x40 MLOAD PUSH3 0x461BCD PUSH1 0xE5 SHL DUP2 MSTORE PUSH1 0x20 PUSH1 0x4 DUP3 ADD MSTORE PUSH1 0xB PUSH1 0x24 DUP3 ADD MSTORE PUSH11 0x4F6E6C79206F7261636C65 PUSH1 0xA8 SHL PUSH1 0x44 DUP3 ADD MSTORE PUSH1 0x64 SWAP1 REVERT JUMPDEST CALLVALUE PUSH2 0x7AF JUMPI PUSH1 0x0 CALLDATASIZE PUSH1 0x3 NOT ADD SLT PUSH2 0x7AF JUMPI PUSH1 0x20 PUSH1 0x2 SLOAD PUSH1 0x40 MLOAD SWAP1 DUP2 MSTORE RETURN JUMPDEST CALLVALUE PUSH2 0x7AF JUMPI PUSH1 0x20 DUP1 PUSH1 0x3 NOT CALLDATASIZE ADD SLT PUSH2 0x7AF JUMPI PUSH1 0x4 CALLDATALOAD PUSH1 0x5 SWAP2 DUP3 SLOAD SWAP2 PUSH2 0x1679 PUSH1 0xFF DUP5 AND ISZERO PUSH2 0x1D34 JUMP JUMPDEST PUSH1 0x1 PUSH1 0xFF NOT DUP1 SWAP5 AND OR DUP5 SSTORE DUP1 PUSH1 0x0 MSTORE PUSH1 0x6 DUP3 MSTORE PUSH1 0x40 PUSH1 0x0 KECCAK256 SWAP2 DUP5 DUP4 ADD SLOAD SWAP3 PUSH1 0xFF DUP5 AND PUSH1 0x6 DUP2 LT ISZERO PUSH2 0xB35 JUMPI DUP7 EQ DUP1 PUSH2 0x18D0 JUMPI JUMPDEST ISZERO PUSH2 0x189C JUMPI DUP3 PUSH1 0x0 MSTORE PUSH1 0x9 DUP3 MSTORE PUSH1 0x40 PUSH1 0x0 KECCAK256 CALLER PUSH1 0x0 MSTORE DUP3 MSTORE PUSH1 0xFF PUSH1 0x40 PUSH1 0x0 KECCAK256 SLOAD AND PUSH2 0x1865 JUMPI DUP3 PUSH1 0x0 MSTORE PUSH1 0x7 DUP3 MSTORE PUSH1 0x40 PUSH1 0x0 KECCAK256 CALLER PUSH1 0x0 MSTORE DUP3 MSTORE PUSH1 0x40 PUSH1 0x0 KECCAK256 SLOAD DUP4 PUSH1 0x0 MSTORE PUSH1 0x8 DUP4 MSTORE PUSH1 0x40 PUSH1 0x0 KECCAK256 CALLER PUSH1 0x0 MSTORE DUP4 MSTORE PUSH1 0x40 PUSH1 0x0 KECCAK256 SLOAD SWAP1 PUSH1 0x6 DUP4 ADD SLOAD SWAP3 PUSH1 0x7 DUP2 ADD SLOAD SWAP1 PUSH1 0xC PUSH2 0x171C DUP4 DUP8 PUSH2 0x1DF1 JUMP JUMPDEST SWAP2 ADD SLOAD DUP1 DUP3 LT PUSH2 0x185B JUMPI DUP2 SUB SWAP1 DUP2 GT PUSH2 0x1415 JUMPI SWAP3 JUMPDEST PUSH1 0x0 SWAP8 PUSH1 0x10 SHR PUSH1 0xFF AND ISZERO PUSH2 0x181F JUMPI POP POP DUP3 ISZERO ISZERO DUP1 PUSH2 0x1816 JUMPI JUMPDEST PUSH2 0x17F8 JUMPI JUMPDEST POP POP POP JUMPDEST DUP2 PUSH1 0x0 MSTORE PUSH1 0x9 DUP2 MSTORE PUSH1 0x40 PUSH1 0x0 KECCAK256 CALLER PUSH1 0x0 MSTORE DUP2 MSTORE PUSH1 0x40 PUSH1 0x0 KECCAK256 PUSH1 0x1 DUP6 DUP3 SLOAD AND OR SWAP1 SSTORE DUP3 PUSH2 0x17AC JUMPI JUMPDEST PUSH32 0xCF7D23A3CBE4E8B36FF82FD1B05B1B17373DC7804B4EBBD6E2356716EF202372 SWAP1 PUSH1 0x40 MLOAD SWAP4 DUP5 MSTORE CALLER SWAP4 LOG3 DUP2 SLOAD AND SWAP1 SSTORE STOP JUMPDEST PUSH1 0x0 DUP1 DUP1 DUP1 DUP7 CALLER GAS CALL PUSH2 0x17BD PUSH2 0x1E6E JUMP JUMPDEST POP PUSH2 0x177A JUMPI PUSH1 0x64 SWAP1 PUSH1 0x40 MLOAD SWAP1 PUSH3 0x461BCD PUSH1 0xE5 SHL DUP3 MSTORE PUSH1 0x4 DUP3 ADD MSTORE PUSH1 0xF PUSH1 0x24 DUP3 ADD MSTORE PUSH15 0x151C985B9CD9995C8819985A5B1959 PUSH1 0x8A SHL PUSH1 0x44 DUP3 ADD MSTORE REVERT JUMPDEST PUSH2 0x180D SWAP4 SWAP6 POP SWAP1 PUSH2 0x1808 SWAP2 PUSH2 0x1E3B JUMP JUMPDEST PUSH2 0x1E4E JUMP JUMPDEST SWAP2 DUP6 DUP1 DUP1 PUSH2 0x174F JUMP JUMPDEST POP DUP1 ISZERO ISZERO PUSH2 0x174A JUMP JUMPDEST SWAP2 POP DUP1 SWAP4 POP ISZERO ISZERO DUP1 PUSH2 0x1852 JUMPI JUMPDEST PUSH2 0x1839 JUMPI JUMPDEST POP POP POP PUSH2 0x1753 JUMP JUMPDEST PUSH2 0x1849 SWAP4 SWAP6 POP SWAP1 PUSH2 0x1808 SWAP2 PUSH2 0x1E3B JUMP JUMPDEST SWAP2 DUP6 DUP1 DUP1 PUSH2 0x1831 JUMP JUMPDEST POP DUP1 ISZERO ISZERO PUSH2 0x182C JUMP JUMPDEST POP POP PUSH1 0x0 SWAP3 PUSH2 0x1731 JUMP JUMPDEST PUSH1 0x40 MLOAD PUSH3 0x461BCD PUSH1 0xE5 SHL DUP2 MSTORE PUSH1 0x4 DUP2 ADD DUP4 SWAP1 MSTORE PUSH1 0xF PUSH1 0x24 DUP3 ADD MSTORE PUSH15 0x105B1C9958591E4818DB185A5B5959 PUSH1 0x8A SHL PUSH1 0x44 DUP3 ADD MSTORE PUSH1 0x64 SWAP1 REVERT JUMPDEST PUSH1 0x40 MLOAD PUSH3 0x461BCD PUSH1 0xE5 SHL DUP2 MSTORE PUSH1 0x4 DUP2 ADD DUP4 SWAP1 MSTORE PUSH1 0xC PUSH1 0x24 DUP3 ADD MSTORE PUSH12 0x139BDD081C995CDBDB1D9959 PUSH1 0xA2 SHL PUSH1 0x44 DUP3 ADD MSTORE PUSH1 0x64 SWAP1 REVERT JUMPDEST POP PUSH1 0xFF PUSH1 0xA DUP3 ADD SLOAD AND PUSH2 0x16AC JUMP JUMPDEST PUSH1 0x40 CALLDATASIZE PUSH1 0x3 NOT ADD SLT PUSH2 0x7AF JUMPI PUSH1 0x4 CALLDATALOAD PUSH2 0x18F5 PUSH2 0x1B2C JUMP JUMPDEST SWAP1 PUSH1 0x5 SLOAD SWAP1 PUSH2 0x1907 PUSH1 0xFF DUP4 AND ISZERO PUSH2 0x1D34 JUMP JUMPDEST PUSH1 0x1 PUSH1 0xFF NOT DUP1 SWAP4 AND OR PUSH1 0x5 SSTORE DUP1 PUSH1 0x0 MSTORE PUSH1 0x20 PUSH1 0x6 DUP2 MSTORE PUSH1 0x40 PUSH1 0x0 KECCAK256 SWAP4 PUSH1 0x5 DUP6 ADD DUP1 SLOAD SWAP6 PUSH1 0xFF DUP8 AND PUSH1 0x6 DUP2 LT ISZERO PUSH2 0xB35 JUMPI PUSH1 0x3 SUB PUSH2 0x1A75 JUMPI PUSH1 0x8 DUP2 ADD SLOAD TIMESTAMP GT PUSH2 0x1A3D JUMPI PUSH1 0x4 SLOAD CALLVALUE LT PUSH2 0x1A08 JUMPI PUSH1 0xFF DUP8 PUSH1 0x8 SHR AND ISZERO ISZERO DUP4 ISZERO ISZERO EQ PUSH2 0x19D7 JUMPI DUP6 PUSH1 0x0 DUP1 MLOAD PUSH1 0x20 PUSH2 0x1E9F DUP4 CODECOPY DUP2 MLOAD SWAP2 MSTORE SWAP6 SWAP7 SWAP8 PUSH1 0x9 PUSH1 0x4 SWAP4 ADD PUSH2 0x1987 CALLVALUE DUP3 SLOAD PUSH2 0x1DF1 JUMP JUMPDEST SWAP1 SSTORE AND OR SWAP1 SSTORE PUSH1 0x40 DUP1 MLOAD SWAP2 ISZERO ISZERO DUP3 MSTORE CALLVALUE PUSH1 0x20 DUP4 ADD MSTORE CALLER SWAP2 DUP6 SWAP2 PUSH32 0x74DC3C28712597AF17D7089C11C00EEFEA6373566CFD87D7E8D8607FAA298DB8 SWAP2 LOG3 PUSH1 0x40 MLOAD PUSH1 0x4 DUP2 MSTORE LOG2 PUSH1 0x5 SLOAD AND PUSH1 0x5 SSTORE PUSH1 0x0 DUP1 RETURN JUMPDEST PUSH1 0x40 MLOAD PUSH3 0x461BCD PUSH1 0xE5 SHL DUP2 MSTORE PUSH1 0x4 DUP2 ADD DUP6 SWAP1 MSTORE PUSH1 0x9 PUSH1 0x24 DUP3 ADD MSTORE PUSH9 0x4E6F206368616E6765 PUSH1 0xB8 SHL PUSH1 0x44 DUP3 ADD MSTORE PUSH1 0x64 SWAP1 REVERT JUMPDEST PUSH1 0x40 MLOAD PUSH3 0x461BCD PUSH1 0xE5 SHL DUP2 MSTORE PUSH1 0x4 DUP2 ADD DUP6 SWAP1 MSTORE PUSH1 0xD PUSH1 0x24 DUP3 ADD MSTORE PUSH13 0x5374616B6520746F6F206C6F77 PUSH1 0x98 SHL PUSH1 0x44 DUP3 ADD MSTORE PUSH1 0x64 SWAP1 REVERT JUMPDEST PUSH1 0x40 MLOAD PUSH3 0x461BCD PUSH1 0xE5 SHL DUP2 MSTORE PUSH1 0x4 DUP2 ADD DUP6 SWAP1 MSTORE PUSH1 0x10 PUSH1 0x24 DUP3 ADD MSTORE PUSH16 0x10DA185B1B195B99D94818DB1BDCD959 PUSH1 0x82 SHL PUSH1 0x44 DUP3 ADD MSTORE PUSH1 0x64 SWAP1 REVERT JUMPDEST PUSH1 0x40 MLOAD PUSH3 0x461BCD PUSH1 0xE5 SHL DUP2 MSTORE PUSH1 0x4 DUP2 ADD DUP6 SWAP1 MSTORE PUSH1 0x13 PUSH1 0x24 DUP3 ADD MSTORE PUSH19 0x135D5CDD081899481C1C9BDD9A5CDA5BDB985B PUSH1 0x6A SHL PUSH1 0x44 DUP3 ADD MSTORE PUSH1 0x64 SWAP1 REVERT JUMPDEST CALLVALUE PUSH2 0x7AF JUMPI PUSH1 0x0 CALLDATASIZE PUSH1 0x3 NOT ADD SLT PUSH2 0x7AF JUMPI PUSH1 0x20 PUSH1 0x3 SLOAD PUSH1 0x40 MLOAD SWAP1 DUP2 MSTORE RETURN JUMPDEST CALLVALUE PUSH2 0x7AF JUMPI PUSH1 0x40 CALLDATASIZE PUSH1 0x3 NOT ADD SLT PUSH2 0x7AF JUMPI PUSH1 0x20 SWAP1 PUSH2 0x1AEA PUSH2 0x1B16 JUMP JUMPDEST PUSH1 0x4 CALLDATALOAD PUSH1 0x0 SWAP1 DUP2 MSTORE PUSH1 0x9 DUP5 MSTORE PUSH1 0x40 DUP1 DUP3 KECCAK256 PUSH1 0x1 PUSH1 0x1 PUSH1 0xA0 SHL SUB SWAP1 SWAP4 AND DUP3 MSTORE SWAP2 DUP5 MSTORE KECCAK256 SLOAD PUSH1 0xFF AND ISZERO ISZERO DUP2 MSTORE RETURN JUMPDEST PUSH1 0x24 CALLDATALOAD SWAP1 PUSH1 0x1 PUSH1 0x1 PUSH1 0xA0 SHL SUB DUP3 AND DUP3 SUB PUSH2 0x7AF JUMPI JUMP JUMPDEST PUSH1 0x24 CALLDATALOAD SWAP1 DUP2 ISZERO ISZERO DUP3 SUB PUSH2 0x7AF JUMPI JUMP JUMPDEST SWAP1 PUSH1 0x1 DUP3 DUP2 SHR SWAP3 AND DUP1 ISZERO PUSH2 0x1B6B JUMPI JUMPDEST PUSH1 0x20 DUP4 LT EQ PUSH2 0x1B55 JUMPI JUMP JUMPDEST PUSH4 0x4E487B71 PUSH1 0xE0 SHL PUSH1 0x0 MSTORE PUSH1 0x22 PUSH1 0x4 MSTORE PUSH1 0x24 PUSH1 0x0 REVERT JUMPDEST SWAP2 PUSH1 0x7F AND SWAP2 PUSH2 0x1B4A JUMP JUMPDEST PUSH1 0xA0 DUP2 ADD SWAP1 DUP2 LT PUSH8 0xFFFFFFFFFFFFFFFF DUP3 GT OR PUSH2 0x56A JUMPI PUSH1 0x40 MSTORE JUMP JUMPDEST SWAP1 PUSH1 0x1F DUP1 NOT SWAP2 ADD AND DUP2 ADD SWAP1 DUP2 LT PUSH8 0xFFFFFFFFFFFFFFFF DUP3 GT OR PUSH2 0x56A JUMPI PUSH1 0x40 MSTORE JUMP JUMPDEST SWAP1 PUSH1 0x40 MLOAD SWAP2 DUP3 PUSH1 0x0 DUP3 SLOAD SWAP3 PUSH2 0x1BC7 DUP5 PUSH2 0x1B3B JUMP JUMPDEST SWAP1 DUP2 DUP5 MSTORE PUSH1 0x1 SWAP5 DUP6 DUP2 AND SWAP1 DUP2 PUSH1 0x0 EQ PUSH2 0x1C36 JUMPI POP PUSH1 0x1 EQ PUSH2 0x1BF3 JUMPI JUMPDEST POP POP PUSH2 0x1BF1 SWAP3 POP SUB DUP4 PUSH2 0x1B91 JUMP JUMPDEST JUMP JUMPDEST SWAP1 SWAP4 SWAP2 POP PUSH1 0x0 MSTORE PUSH1 0x20 SWAP1 DUP2 PUSH1 0x0 KECCAK256 SWAP4 PUSH1 0x0 SWAP2 JUMPDEST DUP2 DUP4 LT PUSH2 0x1C1E JUMPI POP POP PUSH2 0x1BF1 SWAP4 POP DUP3 ADD ADD CODESIZE DUP1 PUSH2 0x1BE3 JUMP JUMPDEST DUP6 SLOAD DUP9 DUP5 ADD DUP6 ADD MSTORE SWAP5 DUP6 ADD SWAP5 DUP8 SWAP5 POP SWAP2 DUP4 ADD SWAP2 PUSH2 0x1C06 JUMP JUMPDEST SWAP2 POP POP PUSH2 0x1BF1 SWAP5 POP PUSH1 0x20 SWAP3 POP PUSH1 0xFF NOT AND DUP3 DUP5 ADD MSTORE ISZERO ISZERO PUSH1 0x5 SHL DUP3 ADD ADD CODESIZE DUP1 PUSH2 0x1BE3 JUMP JUMPDEST SWAP2 SWAP1 DUP3 MLOAD SWAP3 DUP4 DUP3 MSTORE PUSH1 0x0 JUMPDEST DUP5 DUP2 LT PUSH2 0x1C85 JUMPI POP POP DUP3 PUSH1 0x0 PUSH1 0x20 DUP1 SWAP5 SWAP6 DUP5 ADD ADD MSTORE PUSH1 0x1F DUP1 NOT SWAP2 ADD AND ADD ADD SWAP1 JUMP JUMPDEST PUSH1 0x20 DUP2 DUP4 ADD DUP2 ADD MLOAD DUP5 DUP4 ADD DUP3 ADD MSTORE ADD PUSH2 0x1C64 JUMP JUMPDEST PUSH8 0xFFFFFFFFFFFFFFFF DUP2 GT PUSH2 0x56A JUMPI PUSH1 0x1F ADD PUSH1 0x1F NOT AND PUSH1 0x20 ADD SWAP1 JUMP JUMPDEST DUP2 PUSH1 0x1F DUP3 ADD SLT ISZERO PUSH2 0x7AF JUMPI DUP1 CALLDATALOAD SWAP1 PUSH2 0x1CCC DUP3 PUSH2 0x1C99 JUMP JUMPDEST SWAP3 PUSH2 0x1CDA PUSH1 0x40 MLOAD SWAP5 DUP6 PUSH2 0x1B91 JUMP JUMPDEST DUP3 DUP5 MSTORE PUSH1 0x20 DUP4 DUP4 ADD ADD GT PUSH2 0x7AF JUMPI DUP2 PUSH1 0x0 SWAP3 PUSH1 0x20 DUP1 SWAP4 ADD DUP4 DUP7 ADD CALLDATACOPY DUP4 ADD ADD MSTORE SWAP1 JUMP JUMPDEST ISZERO PUSH2 0x1D03 JUMPI JUMP JUMPDEST PUSH1 0x40 MLOAD PUSH3 0x461BCD PUSH1 0xE5 SHL DUP2 MSTORE PUSH1 0x20 PUSH1 0x4 DUP3 ADD MSTORE PUSH1 0x9 PUSH1 0x24 DUP3 ADD MSTORE PUSH9 0x2737BA1037BBB732B9 PUSH1 0xB9 SHL PUSH1 0x44 DUP3 ADD MSTORE PUSH1 0x64 SWAP1 REVERT JUMPDEST ISZERO PUSH2 0x1D3B JUMPI JUMP JUMPDEST PUSH1 0x40 MLOAD PUSH3 0x461BCD PUSH1 0xE5 SHL DUP2 MSTORE PUSH1 0x20 PUSH1 0x4 DUP3 ADD MSTORE PUSH1 0x9 PUSH1 0x24 DUP3 ADD MSTORE PUSH9 0x1499595B9D1C985B9D PUSH1 0xBA SHL PUSH1 0x44 DUP3 ADD MSTORE PUSH1 0x64 SWAP1 REVERT JUMPDEST PUSH1 0x0 NOT DUP2 EQ PUSH2 0x1415 JUMPI PUSH1 0x1 ADD SWAP1 JUMP JUMPDEST ISZERO PUSH2 0x1D82 JUMPI JUMP JUMPDEST PUSH1 0x40 MLOAD PUSH3 0x461BCD PUSH1 0xE5 SHL DUP2 MSTORE PUSH1 0x20 PUSH1 0x4 DUP3 ADD MSTORE PUSH1 0x10 PUSH1 0x24 DUP3 ADD MSTORE PUSH16 0x13585C9AD95D081B9BDD08199BDD5B99 PUSH1 0x82 SHL PUSH1 0x44 DUP3 ADD MSTORE PUSH1 0x64 SWAP1 REVERT JUMPDEST ISZERO PUSH2 0x1DC1 JUMPI JUMP JUMPDEST PUSH1 0x40 MLOAD PUSH3 0x461BCD PUSH1 0xE5 SHL DUP2 MSTORE PUSH1 0x20 PUSH1 0x4 DUP3 ADD MSTORE PUSH1 0x8 PUSH1 0x24 DUP3 ADD MSTORE PUSH8 0x4E6F74206C697665 PUSH1 0xC0 SHL PUSH1 0x44 DUP3 ADD MSTORE PUSH1 0x64 SWAP1 REVERT JUMPDEST SWAP2 SWAP1 DUP3 ADD DUP1 SWAP3 GT PUSH2 0x1415 JUMPI JUMP JUMPDEST ISZERO PUSH2 0x1E05 JUMPI JUMP JUMPDEST PUSH1 0x40 MLOAD PUSH3 0x461BCD PUSH1 0xE5 SHL DUP2 MSTORE PUSH1 0x20 PUSH1 0x4 DUP3 ADD MSTORE PUSH1 0xE PUSH1 0x24 DUP3 ADD MSTORE PUSH14 0x135D5CDD0818994818DB1BDCD959 PUSH1 0x92 SHL PUSH1 0x44 DUP3 ADD MSTORE PUSH1 0x64 SWAP1 REVERT JUMPDEST DUP2 DUP2 MUL SWAP3 SWAP2 DUP2 ISZERO SWAP2 DUP5 DIV EQ OR ISZERO PUSH2 0x1415 JUMPI JUMP JUMPDEST DUP2 ISZERO PUSH2 0x1E58 JUMPI DIV SWAP1 JUMP JUMPDEST PUSH4 0x4E487B71 PUSH1 0xE0 SHL PUSH1 0x0 MSTORE PUSH1 0x12 PUSH1 0x4 MSTORE PUSH1 0x24 PUSH1 0x0 REVERT JUMPDEST RETURNDATASIZE ISZERO PUSH2 0x1E99 JUMPI RETURNDATASIZE SWAP1 PUSH2 0x1E7F DUP3 PUSH2 0x1C99 JUMP JUMPDEST SWAP2 PUSH2 0x1E8D PUSH1 0x40 MLOAD SWAP4 DUP5 PUSH2 0x1B91 JUMP JUMPDEST DUP3 MSTORE RETURNDATASIZE PUSH1 0x0 PUSH1 0x20 DUP5 ADD RETURNDATACOPY JUMP JUMPDEST PUSH1 0x60 SWAP1 JUMP INVALID 0x24 DUP14 MSIZE 0x5E 0xC1 0xF8 PUSH16 0xCA734F2147CBDDCEB451A4D2A98D6F09 EXTCODECOPY 0xA8 SWAP16 GASLIMIT ISZERO 0xF6 PUSH4 0xA00DA264 PUSH10 0x706673582212201A7E4D SWAP15 0xC2 MULMOD DUP3 0xE 0xBA 0xB5 DUP2 0xE1 NUMBER BYTE 0xDF PUSH3 0xE57FE7 SWAP13 PUSH20 0x5B2CCAC2948B59B4C8872D64736F6C6343000814 STOP CALLER "},"methodIdentifiers":{"challengeOutcome(uint256,bool)":"2abd7803","challengeWindowSeconds()":"1986aabd","checkExpiration(uint256)":"723931ca","claimed(uint256,address)":"120aa877","closeMarket(uint256)":"ae418095","createPair(uint256,uint256,string,string,uint256,uint256,bool)":"ed5a52f6","hasParticipated(uint256,address)":"a34398a2","markets(uint256)":"b1283e77","matchMarket(uint256)":"b5615dee","minChallengeStake()":"d33dc7b4","nextMarketId()":"406ef2ef","noPositions(uint256,address)":"cc3bdeee","oracle()":"7dc0d1d0","owner()":"8da5cb5b","placeBet(uint256,bool)":"9ed9c74d","resolveOutcome(uint256,bool)":"58f319b2","setChallengeParams(uint256,uint256)":"eae85024","setOracle(address)":"7adbf973","setProvisionalOutcome(uint256,bool)":"456f6a15","setProvisionalOutcomeDefault(uint256)":"66e47cc3","withdraw(uint256)":"2e1a7d4d","yesPositions(uint256,address)":"da524e10"}}}}}