{"contracts/OracleMock.sol":{"OracleMock":{"abi":[{"anonymous":false,"inputs":[{"indexed":false,"internalType":"string","name":"result","type":"string"}],"name":"RequestFulfilled","type":"event"},{"inputs":[],"name":"requestResult","outputs":[],"stateMutability":"nonpayable","type":"function"}],"evm":{"bytecode":{"linkReferences":{},"object":"608080604052346100155760ae908161001b8239f35b600080fdfe6080806040526004361015601257600080fd5b600090813560e01c636d7180d314602857600080fd5b346074578160031936011260745760608160207f083542d7532363ebf1f5ddd435e82f33c12251d61bae6088bacc46b57bea3822935260026020820152614f4b60f01b6040820152a180f35b5080fdfea264697066735822122088b5f945bc9e0ad9bfb2e4b1650ef22890b01fd581727d95bbbcd9e16ddc774664736f6c63430008140033","opcodes":"PUSH1 0x80 DUP1 PUSH1 0x40 MSTORE CALLVALUE PUSH2 0x15 JUMPI PUSH1 0xAE SWAP1 DUP2 PUSH2 0x1B DUP3 CODECOPY RETURN JUMPDEST PUSH1 0x0 DUP1 REVERT INVALID PUSH1 0x80 DUP1 PUSH1 0x40 MSTORE PUSH1 0x4 CALLDATASIZE LT ISZERO PUSH1 0x12 JUMPI PUSH1 0x0 DUP1 REVERT JUMPDEST PUSH1 0x0 SWAP1 DUP2 CALLDATALOAD PUSH1 0xE0 SHR PUSH4 0x6D7180D3 EQ PUSH1 0x28 JUMPI PUSH1 0x0 DUP1 REVERT JUMPDEST CALLVALUE PUSH1 0x74 JUMPI DUP2 PUSH1 0x3 NOT CALLDATASIZE ADD SLT PUSH1 0x74 JUMPI PUSH1 0x60 DUP2 PUSH1 0x20 PUSH32 0x83542D7532363EBF1F5DDD435E82F33C12251D61BAE6088BACC46B57BEA3822 SWAP4 MSTORE PUSH1 0x2 PUSH1 0x20 DUP3 ADD MSTORE PUSH2 0x4F4B PUSH1 0xF0 SHL PUSH1 0x40 DUP3 ADD MSTORE LOG1 DUP1 RETURN JUMPDEST POP DUP1 REVERT INVALID LOG2 PUSH5 0x6970667358 0x22 SLT KECCAK256 DUP9 0xB5 0xF9 GASLIMIT 0xBC SWAP15 EXP 0xD9 0xBF 0xB2 0xE4 0xB1 PUSH6 0xEF22890B01F 0xD5 DUP2 PUSH19 0x7D95BBBCD9E16DDC774664736F6C6343000814 STOP CALLER "},"methodIdentifiers":{"requestResult()":"6d7180d3"}}}}}