{"contracts/OracleTest.sol":{"Betting":{"abi":[{"inputs":[],"stateMutability":"nonpayable","type":"constructor"},{"anonymous":false,"inputs":[{"indexed":true,"internalType":"address","name":"user","type":"address"},{"indexed":false,"internalType":"uint256","name":"amount","type":"uint256"},{"indexed":false,"internalType":"string","name":"choice","type":"string"}],"name":"BetPlaced","type":"event"},{"anonymous":false,"inputs":[{"indexed":false,"internalType":"uint256","name":"minBet","type":"uint256"},{"indexed":false,"internalType":"uint256","name":"maxBet","type":"uint256"}],"name":"LimitsUpdated","type":"event"},{"anonymous":false,"inputs":[{"indexed":true,"internalType":"address","name":"account","type":"address"}],"name":"Paused","type":"event"},{"anonymous":false,"inputs":[{"indexed":true,"internalType":"address","name":"account","type":"address"}],"name":"Unpaused","type":"event"},{"inputs":[{"internalType":"uint256","name":"","type":"uint256"}],"name":"bets","outputs":[{"internalType":"address","name":"user","type":"address"},{"internalType":"uint256","name":"amount","type":"uint256"},{"internalType":"string","name":"choice","type":"string"}],"stateMutability":"view","type":"function"},{"inputs":[],"name":"getBets","outputs":[{"components":[{"internalType":"address","name":"user","type":"address"},{"internalType":"uint256","name":"amount","type":"uint256"},{"internalType":"string","name":"choice","type":"string"}],"internalType":"struct Betting.Bet[]","name":"","type":"tuple[]"}],"stateMutability":"view","type":"function"},{"inputs":[{"internalType":"uint256","name":"start","type":"uint256"},{"internalType":"uint256","name":"count","type":"uint256"}],"name":"getBetsRange","outputs":[{"components":[{"internalType":"address","name":"user","type":"address"},{"internalType":"uint256","name":"amount","type":"uint256"},{"internalType":"string","name":"choice","type":"string"}],"internalType":"struct Betting.Bet[]","name":"","type":"tuple[]"}],"stateMutability":"view","type":"function"},{"inputs":[],"name":"maxBet","outputs":[{"internalType":"uint256","name":"","type":"uint256"}],"stateMutability":"view","type":"function"},{"inputs":[],"name":"minBet","outputs":[{"internalType":"uint256","name":"","type":"uint256"}],"stateMutability":"view","type":"function"},{"inputs":[],"name":"owner","outputs":[{"internalType":"address","name":"","type":"address"}],"stateMutability":"view","type":"function"},{"inputs":[],"name":"paused","outputs":[{"internalType":"bool","name":"","type":"bool"}],"stateMutability":"view","type":"function"},{"inputs":[{"internalType":"string","name":"choice","type":"string"}],"name":"placeBet","outputs":[],"stateMutability":"payable","type":"function"},{"inputs":[{"internalType":"uint256","name":"minAmount","type":"uint256"},{"internalType":"uint256","name":"maxAmount","type":"uint256"}],"name":"setLimits","outputs":[],"stateMutability":"nonpayable","type":"function"},{"inputs":[{"internalType":"bool","name":"v","type":"bool"}],"name":"setPaused","outputs":[],"stateMutability":"nonpayable","type":"function"}],"evm":{"bytecode":{"linkReferences":{},"object":"6080806040523461003957600080546001600160a81b0319163360ff60a01b191617905560018055600019600255610c64908161003f8239f35b600080fdfe604060a081526004908136101561001557600080fd5b600090813560e01c806316c38b3c1461086457806322af00fa146107fe5780632e5b2168146107e05780635c975abb146107bc5780638da5cb5b1461079557806391d943b5146106405780639619367d1461062257806397bfeb88146101ec578063a6afd5fd1461015a5763c4590d3f1461008f57600080fd5b346101565761009d36610acb565b936100b260018060a01b038554163314610b6c565b8115610129578185106100f957507f4d4981437d0211f9e6843eb024d9ada1fa3a99514d4343d4aece106dd11524bb9293816001558060025582519182526020820152a180f35b606490602084519162461bcd60e51b8352820152600a60248201526936b0bc101f1e9036b4b760b11b6044820152fd5b606490602084519162461bcd60e51b8352820152600760248201526606d696e203e20360cc1b6044820152fd5b5080fd5b509190346101e957806003193601126101e9579080549061017a82610ba4565b92610187855194856109c3565b82845290815260207f8a35acfbc15ff81a39ae7d344fd709f28e8600b4aa8c65c6b64bfe7fe36bd19b8185015b8484106101cc578651806101c88882610ae6565b0390f35b6003836001926101db85610bbc565b8152019201930192906101b4565b80fd5b5060208060031936011261061e57833567ffffffffffffffff9182821161061a573660238301121561061a57818601358381116106165760249283810190848336920101116106125760ff875460a01c166105e75760039586549560ff87166105b95760018060ff1980991617895580543410610587576002543411610555578415158061054b575b1561051857899a839a98999a519061028c82610991565b33825287820198348a52601f199283601f8a01169b6102b48d8c8a51918260805201906109c3565b896080515289898c60805101378a8a6080510101528681019a6080518c528354680100000000000000008110156105045780876102f392018655610906565b9290926104f1575182546001600160a01b0319166001600160a01b039190911617825551858201559951805160029b909b019a9590929086116104e0575050918b918d97969594936103458b54610957565b8a601f8211610483575b50508991601f86116001146103da5750938088979594818998957ff14919ff92658c8b721faa944957b48dedaee13316a12a2635add911929e91709e9560609c988e956103cf575b50501b92600019911b1c19161790555b80805198348a52890152870152838601378301015260608133948101030190a2815416905580f35b015193503880610397565b859394919b951691858a528a8a20928a5b818110610453575092899896939285927ff14919ff92658c8b721faa944957b48dedaee13316a12a2635add911929e91709e8b9a9760609d999610610439575b50505050811b0190556103a7565b01519060f884600019921b161c19169055388f818061042b565b9496989a5091509395979980878d9487839f015181550195019301928f99979593918f929c9b999795939c6103eb565b91939596979899909294508b815220601f860160051c8101918a87106104d6575b918f999897969593918f9593601f0160051c01905b8181106104c757508a61034f565b998a558f998f955084016104b9565b90915081906104a4565b634e487b7160e01b8f52604190528dfd5b5050634e487b7160e01b8f52508d82528dfd5b5050634e487b7160e01b8f5250604182528dfd5b825162461bcd60e51b8152808c01879052600e818901526d496e76616c69642063686f69636560901b6044820152606490fd5b5085851115610275565b825162461bcd60e51b8152808c01879052600d818901526c42657420746f6f206c6172676560981b6044820152606490fd5b825162461bcd60e51b8152808c01879052600d818901526c10995d081d1bdbc81cdb585b1b609a1b6044820152606490fd5b815162461bcd60e51b8152808b01869052600981880152681499595b9d1c985b9d60ba1b6044820152606490fd5b855162461bcd60e51b81528089018490526006818601526514185d5cd95960d21b6044820152606490fd5b8680fd5b8580fd5b8480fd5b8280fd5b50346101565781600319360112610156576020906001549051908152f35b5082903461061e5761065136610acb565b9390928054948585101561075d5784019485851161074a57808611610742575b5061067c8486610bf7565b9361068685610ba4565b94610693855196876109c3565b8086526106a2601f1991610ba4565b01835b81811061071a575050805b8681106106c4578451806101c88882610ae6565b6106f56106d082610906565b506106e46106de8585610bf7565b91610bbc565b6106ee828a610c1a565b5287610c1a565b506000198114610707576001016106b0565b634e487b7160e01b845260118352602484fd5b602090865161072881610991565b868152828781830152606089830152828a010152016106a5565b945085610671565b634e487b7160e01b835260118252602483fd5b835162461bcd60e51b815260208184015260126024820152717374617274206f7574206f662072616e676560701b6044820152606490fd5b5034610156578160031936011261015657905490516001600160a01b039091168152602090f35b503461015657816003193601126101565760ff6020925460a01c1690519015158152f35b50346101565781600319360112610156576020906002549051908152f35b509190346101e95760203660031901126101e957813591548210156101e9575061082790610906565b50906101c860018060a01b0383541691606061084a6002600187015496016109e5565b918051958695865260208601528401526060830190610a8b565b828434610156576020366003190112610156573580151580820361061e57825490610899336001600160a01b03841614610b6c565b60ff60a01b1990911660a09190911b60ff60a01b16178255156108de57337f62e78cea01bee320cd4e420270b5ea74000d11b0c9f74754ebdbfc544b05a2588280a280f35b337f5db9ee0a495bf2e6ff9c91a7834c1ba4fdd244a5e8aa4e537bd38aeae4b073aa8280a280f35b600454811015610941576003906004600052027f8a35acfbc15ff81a39ae7d344fd709f28e8600b4aa8c65c6b64bfe7fe36bd19b0190600090565b634e487b7160e01b600052603260045260246000fd5b90600182811c92168015610987575b602083101461097157565b634e487b7160e01b600052602260045260246000fd5b91607f1691610966565b6060810190811067ffffffffffffffff8211176109ad57604052565b634e487b7160e01b600052604160045260246000fd5b90601f8019910116810190811067ffffffffffffffff8211176109ad57604052565b90604051918260008254926109f984610957565b908184526001948581169081600014610a685750600114610a25575b5050610a23925003836109c3565b565b9093915060005260209081600020936000915b818310610a50575050610a2393508201013880610a15565b85548884018501529485019487945091830191610a38565b915050610a2394506020925060ff191682840152151560051b8201013880610a15565b919082519283825260005b848110610ab7575050826000602080949584010152601f8019910116010190565b602081830181015184830182015201610a96565b6040906003190112610ae1576004359060243590565b600080fd5b602080820190808352835180925260409283810182858560051b8401019601946000925b858410610b1b575050505050505090565b909192939495968580610b5b600193603f19868203018852868c51868060a01b038151168352848101518584015201519060609081898201520190610a8b565b990194019401929594939190610b0a565b15610b7357565b60405162461bcd60e51b81526020600482015260096024820152682737ba1037bbb732b960b91b6044820152606490fd5b67ffffffffffffffff81116109ad5760051b60200190565b90604051610bc981610991565b82546001600160a01b0316815260018301546020820152918290604090610bf2906002016109e5565b910152565b91908203918211610c0457565b634e487b7160e01b600052601160045260246000fd5b80518210156109415760209160051b01019056fea2646970667358221220658991816b61168a8330aa4398c666a271606cfc9c6621cfa8c0ff8b6fb22faf64736f6c63430008140033","opcodes":"PUSH1 0x80 DUP1 PUSH1 0x40 MSTORE CALLVALUE PUSH2 0x39 JUMPI PUSH1 0x0 DUP1 SLOAD PUSH1 0x1 PUSH1 0x1 PUSH1 0xA8 SHL SUB NOT AND CALLER PUSH1 0xFF PUSH1 0xA0 SHL NOT AND OR SWAP1 SSTORE PUSH1 0x1 DUP1 SSTORE PUSH1 0x0 NOT PUSH1 0x2 SSTORE PUSH2 0xC64 SWAP1 DUP2 PUSH2 0x3F DUP3 CODECOPY RETURN JUMPDEST PUSH1 0x0 DUP1 REVERT INVALID PUSH1 0x40 PUSH1 0xA0 DUP2 MSTORE PUSH1 0x4 SWAP1 DUP2 CALLDATASIZE LT ISZERO PUSH2 0x15 JUMPI PUSH1 0x0 DUP1 REVERT JUMPDEST PUSH1 0x0 SWAP1 DUP2 CALLDATALOAD PUSH1 0xE0 SHR DUP1 PUSH4 0x16C38B3C EQ PUSH2 0x864 JUMPI DUP1 PUSH4 0x22AF00FA EQ PUSH2 0x7FE JUMPI DUP1 PUSH4 0x2E5B2168 EQ PUSH2 0x7E0 JUMPI DUP1 PUSH4 0x5C975ABB EQ PUSH2 0x7BC JUMPI DUP1 PUSH4 0x8DA5CB5B EQ PUSH2 0x795 JUMPI DUP1 PUSH4 0x91D943B5 EQ PUSH2 0x640 JUMPI DUP1 PUSH4 0x9619367D EQ PUSH2 0x622 JUMPI DUP1 PUSH4 0x97BFEB88 EQ PUSH2 0x1EC JUMPI DUP1 PUSH4 0xA6AFD5FD EQ PUSH2 0x15A JUMPI PUSH4 0xC4590D3F EQ PUSH2 0x8F JUMPI PUSH1 0x0 DUP1 REVERT JUMPDEST CALLVALUE PUSH2 0x156 JUMPI PUSH2 0x9D CALLDATASIZE PUSH2 0xACB JUMP JUMPDEST SWAP4 PUSH2 0xB2 PUSH1 0x1 DUP1 PUSH1 0xA0 SHL SUB DUP6 SLOAD AND CALLER EQ PUSH2 0xB6C JUMP JUMPDEST DUP2 ISZERO PUSH2 0x129 JUMPI DUP2 DUP6 LT PUSH2 0xF9 JUMPI POP PUSH32 0x4D4981437D0211F9E6843EB024D9ADA1FA3A99514D4343D4AECE106DD11524BB SWAP3 SWAP4 DUP2 PUSH1 0x1 SSTORE DUP1 PUSH1 0x2 SSTORE DUP3 MLOAD SWAP2 DUP3 MSTORE PUSH1 0x20 DUP3 ADD MSTORE LOG1 DUP1 RETURN JUMPDEST PUSH1 0x64 SWAP1 PUSH1 0x20 DUP5 MLOAD SWAP2 PUSH3 0x461BCD PUSH1 0xE5 SHL DUP4 MSTORE DUP3 ADD MSTORE PUSH1 0xA PUSH1 0x24 DUP3 ADD MSTORE PUSH10 0x36B0BC101F1E9036B4B7 PUSH1 0xB1 SHL PUSH1 0x44 DUP3 ADD MSTORE REVERT JUMPDEST PUSH1 0x64 SWAP1 PUSH1 0x20 DUP5 MLOAD SWAP2 PUSH3 0x461BCD PUSH1 0xE5 SHL DUP4 MSTORE DUP3 ADD MSTORE PUSH1 0x7 PUSH1 0x24 DUP3 ADD MSTORE PUSH7 0x6D696E203E203 PUSH1 0xCC SHL PUSH1 0x44 DUP3 ADD MSTORE REVERT JUMPDEST POP DUP1 REVERT JUMPDEST POP SWAP2 SWAP1 CALLVALUE PUSH2 0x1E9 JUMPI DUP1 PUSH1 0x3 NOT CALLDATASIZE ADD SLT PUSH2 0x1E9 JUMPI SWAP1 DUP1 SLOAD SWAP1 PUSH2 0x17A DUP3 PUSH2 0xBA4 JUMP JUMPDEST SWAP3 PUSH2 0x187 DUP6 MLOAD SWAP5 DUP6 PUSH2 0x9C3 JUMP JUMPDEST DUP3 DUP5 MSTORE SWAP1 DUP2 MSTORE PUSH1 0x20 PUSH32 0x8A35ACFBC15FF81A39AE7D344FD709F28E8600B4AA8C65C6B64BFE7FE36BD19B DUP2 DUP6 ADD JUMPDEST DUP5 DUP5 LT PUSH2 0x1CC JUMPI DUP7 MLOAD DUP1 PUSH2 0x1C8 DUP9 DUP3 PUSH2 0xAE6 JUMP JUMPDEST SUB SWAP1 RETURN JUMPDEST PUSH1 0x3 DUP4 PUSH1 0x1 SWAP3 PUSH2 0x1DB DUP6 PUSH2 0xBBC JUMP JUMPDEST DUP2 MSTORE ADD SWAP3 ADD SWAP4 ADD SWAP3 SWAP1 PUSH2 0x1B4 JUMP JUMPDEST DUP1 REVERT JUMPDEST POP PUSH1 0x20 DUP1 PUSH1 0x3 NOT CALLDATASIZE ADD SLT PUSH2 0x61E JUMPI DUP4 CALLDATALOAD PUSH8 0xFFFFFFFFFFFFFFFF SWAP2 DUP3 DUP3 GT PUSH2 0x61A JUMPI CALLDATASIZE PUSH1 0x23 DUP4 ADD SLT ISZERO PUSH2 0x61A JUMPI DUP2 DUP7 ADD CALLDATALOAD DUP4 DUP2 GT PUSH2 0x616 JUMPI PUSH1 0x24 SWAP3 DUP4 DUP2 ADD SWAP1 DUP5 DUP4 CALLDATASIZE SWAP3 ADD ADD GT PUSH2 0x612 JUMPI PUSH1 0xFF DUP8 SLOAD PUSH1 0xA0 SHR AND PUSH2 0x5E7 JUMPI PUSH1 0x3 SWAP6 DUP7 SLOAD SWAP6 PUSH1 0xFF DUP8 AND PUSH2 0x5B9 JUMPI PUSH1 0x1 DUP1 PUSH1 0xFF NOT DUP1 SWAP10 AND OR DUP10 SSTORE DUP1 SLOAD CALLVALUE LT PUSH2 0x587 JUMPI PUSH1 0x2 SLOAD CALLVALUE GT PUSH2 0x555 JUMPI DUP5 ISZERO ISZERO DUP1 PUSH2 0x54B JUMPI JUMPDEST ISZERO PUSH2 0x518 JUMPI DUP10 SWAP11 DUP4 SWAP11 SWAP9 SWAP10 SWAP11 MLOAD SWAP1 PUSH2 0x28C DUP3 PUSH2 0x991 JUMP JUMPDEST CALLER DUP3 MSTORE DUP8 DUP3 ADD SWAP9 CALLVALUE DUP11 MSTORE PUSH1 0x1F NOT SWAP3 DUP4 PUSH1 0x1F DUP11 ADD AND SWAP12 PUSH2 0x2B4 DUP14 DUP13 DUP11 MLOAD SWAP2 DUP3 PUSH1 0x80 MSTORE ADD SWAP1 PUSH2 0x9C3 JUMP JUMPDEST DUP10 PUSH1 0x80 MLOAD MSTORE DUP10 DUP10 DUP13 PUSH1 0x80 MLOAD ADD CALLDATACOPY DUP11 DUP11 PUSH1 0x80 MLOAD ADD ADD MSTORE DUP7 DUP2 ADD SWAP11 PUSH1 0x80 MLOAD DUP13 MSTORE DUP4 SLOAD PUSH9 0x10000000000000000 DUP2 LT ISZERO PUSH2 0x504 JUMPI DUP1 DUP8 PUSH2 0x2F3 SWAP3 ADD DUP7 SSTORE PUSH2 0x906 JUMP JUMPDEST SWAP3 SWAP1 SWAP3 PUSH2 0x4F1 JUMPI MLOAD DUP3 SLOAD PUSH1 0x1 PUSH1 0x1 PUSH1 0xA0 SHL SUB NOT AND PUSH1 0x1 PUSH1 0x1 PUSH1 0xA0 SHL SUB SWAP2 SWAP1 SWAP2 AND OR DUP3 SSTORE MLOAD DUP6 DUP3 ADD SSTORE SWAP10 MLOAD DUP1 MLOAD PUSH1 0x2 SWAP12 SWAP1 SWAP12 ADD SWAP11 SWAP6 SWAP1 SWAP3 SWAP1 DUP7 GT PUSH2 0x4E0 JUMPI POP POP SWAP2 DUP12 SWAP2 DUP14 SWAP8 SWAP7 SWAP6 SWAP5 SWAP4 PUSH2 0x345 DUP12 SLOAD PUSH2 0x957 JUMP JUMPDEST DUP11 PUSH1 0x1F DUP3 GT PUSH2 0x483 JUMPI JUMPDEST POP POP DUP10 SWAP2 PUSH1 0x1F DUP7 GT PUSH1 0x1 EQ PUSH2 0x3DA JUMPI POP SWAP4 DUP1 DUP9 SWAP8 SWAP6 SWAP5 DUP2 DUP10 SWAP9 SWAP6 PUSH32 0xF14919FF92658C8B721FAA944957B48DEDAEE13316A12A2635ADD911929E9170 SWAP15 SWAP6 PUSH1 0x60 SWAP13 SWAP9 DUP15 SWAP6 PUSH2 0x3CF JUMPI JUMPDEST POP POP SHL SWAP3 PUSH1 0x0 NOT SWAP2 SHL SHR NOT AND OR SWAP1 SSTORE JUMPDEST DUP1 DUP1 MLOAD SWAP9 CALLVALUE DUP11 MSTORE DUP10 ADD MSTORE DUP8 ADD MSTORE DUP4 DUP7 ADD CALLDATACOPY DUP4 ADD ADD MSTORE PUSH1 0x60 DUP2 CALLER SWAP5 DUP2 ADD SUB ADD SWAP1 LOG2 DUP2 SLOAD AND SWAP1 SSTORE DUP1 RETURN JUMPDEST ADD MLOAD SWAP4 POP CODESIZE DUP1 PUSH2 0x397 JUMP JUMPDEST DUP6 SWAP4 SWAP5 SWAP2 SWAP12 SWAP6 AND SWAP2 DUP6 DUP11 MSTORE DUP11 DUP11 KECCAK256 SWAP3 DUP11 JUMPDEST DUP2 DUP2 LT PUSH2 0x453 JUMPI POP SWAP3 DUP10 SWAP9 SWAP7 SWAP4 SWAP3 DUP6 SWAP3 PUSH32 0xF14919FF92658C8B721FAA944957B48DEDAEE13316A12A2635ADD911929E9170 SWAP15 DUP12 SWAP11 SWAP8 PUSH1 0x60 SWAP14 SWAP10 SWAP7 LT PUSH2 0x439 JUMPI JUMPDEST POP POP POP POP DUP2 SHL ADD SWAP1 SSTORE PUSH2 0x3A7 JUMP JUMPDEST ADD MLOAD SWAP1 PUSH1 0xF8 DUP5 PUSH1 0x0 NOT SWAP3 SHL AND SHR NOT AND SWAP1 SSTORE CODESIZE DUP16 DUP2 DUP1 PUSH2 0x42B JUMP JUMPDEST SWAP5 SWAP7 SWAP9 SWAP11 POP SWAP2 POP SWAP4 SWAP6 SWAP8 SWAP10 DUP1 DUP8 DUP14 SWAP5 DUP8 DUP4 SWAP16 ADD MLOAD DUP2 SSTORE ADD SWAP6 ADD SWAP4 ADD SWAP3 DUP16 SWAP10 SWAP8 SWAP6 SWAP4 SWAP2 DUP16 SWAP3 SWAP13 SWAP12 SWAP10 SWAP8 SWAP6 SWAP4 SWAP13 PUSH2 0x3EB JUMP JUMPDEST SWAP2 SWAP4 SWAP6 SWAP7 SWAP8 SWAP9 SWAP10 SWAP1 SWAP3 SWAP5 POP DUP12 DUP2 MSTORE KECCAK256 PUSH1 0x1F DUP7 ADD PUSH1 0x5 SHR DUP2 ADD SWAP2 DUP11 DUP8 LT PUSH2 0x4D6 JUMPI JUMPDEST SWAP2 DUP16 SWAP10 SWAP9 SWAP8 SWAP7 SWAP6 SWAP4 SWAP2 DUP16 SWAP6 SWAP4 PUSH1 0x1F ADD PUSH1 0x5 SHR ADD SWAP1 JUMPDEST DUP2 DUP2 LT PUSH2 0x4C7 JUMPI POP DUP11 PUSH2 0x34F JUMP JUMPDEST SWAP10 DUP11 SSTORE DUP16 SWAP10 DUP16 SWAP6 POP DUP5 ADD PUSH2 0x4B9 JUMP JUMPDEST SWAP1 SWAP2 POP DUP2 SWAP1 PUSH2 0x4A4 JUMP JUMPDEST PUSH4 0x4E487B71 PUSH1 0xE0 SHL DUP16 MSTORE PUSH1 0x41 SWAP1 MSTORE DUP14 REVERT JUMPDEST POP POP PUSH4 0x4E487B71 PUSH1 0xE0 SHL DUP16 MSTORE POP DUP14 DUP3 MSTORE DUP14 REVERT JUMPDEST POP POP PUSH4 0x4E487B71 PUSH1 0xE0 SHL DUP16 MSTORE POP PUSH1 0x41 DUP3 MSTORE DUP14 REVERT JUMPDEST DUP3 MLOAD PUSH3 0x461BCD PUSH1 0xE5 SHL DUP2 MSTORE DUP1 DUP13 ADD DUP8 SWAP1 MSTORE PUSH1 0xE DUP2 DUP10 ADD MSTORE PUSH14 0x496E76616C69642063686F696365 PUSH1 0x90 SHL PUSH1 0x44 DUP3 ADD MSTORE PUSH1 0x64 SWAP1 REVERT JUMPDEST POP DUP6 DUP6 GT ISZERO PUSH2 0x275 JUMP JUMPDEST DUP3 MLOAD PUSH3 0x461BCD PUSH1 0xE5 SHL DUP2 MSTORE DUP1 DUP13 ADD DUP8 SWAP1 MSTORE PUSH1 0xD DUP2 DUP10 ADD MSTORE PUSH13 0x42657420746F6F206C61726765 PUSH1 0x98 SHL PUSH1 0x44 DUP3 ADD MSTORE PUSH1 0x64 SWAP1 REVERT JUMPDEST DUP3 MLOAD PUSH3 0x461BCD PUSH1 0xE5 SHL DUP2 MSTORE DUP1 DUP13 ADD DUP8 SWAP1 MSTORE PUSH1 0xD DUP2 DUP10 ADD MSTORE PUSH13 0x10995D081D1BDBC81CDB585B1B PUSH1 0x9A SHL PUSH1 0x44 DUP3 ADD MSTORE PUSH1 0x64 SWAP1 REVERT JUMPDEST DUP2 MLOAD PUSH3 0x461BCD PUSH1 0xE5 SHL DUP2 MSTORE DUP1 DUP12 ADD DUP7 SWAP1 MSTORE PUSH1 0x9 DUP2 DUP9 ADD MSTORE PUSH9 0x1499595B9D1C985B9D PUSH1 0xBA SHL PUSH1 0x44 DUP3 ADD MSTORE PUSH1 0x64 SWAP1 REVERT JUMPDEST DUP6 MLOAD PUSH3 0x461BCD PUSH1 0xE5 SHL DUP2 MSTORE DUP1 DUP10 ADD DUP5 SWAP1 MSTORE PUSH1 0x6 DUP2 DUP7 ADD MSTORE PUSH6 0x14185D5CD959 PUSH1 0xD2 SHL PUSH1 0x44 DUP3 ADD MSTORE PUSH1 0x64 SWAP1 REVERT JUMPDEST DUP7 DUP1 REVERT JUMPDEST DUP6 DUP1 REVERT JUMPDEST DUP5 DUP1 REVERT JUMPDEST DUP3 DUP1 REVERT JUMPDEST POP CALLVALUE PUSH2 0x156 JUMPI DUP2 PUSH1 0x3 NOT CALLDATASIZE ADD SLT PUSH2 0x156 JUMPI PUSH1 0x20 SWAP1 PUSH1 0x1 SLOAD SWAP1 MLOAD SWAP1 DUP2 MSTORE RETURN JUMPDEST POP DUP3 SWAP1 CALLVALUE PUSH2 0x61E JUMPI PUSH2 0x651 CALLDATASIZE PUSH2 0xACB JUMP JUMPDEST SWAP4 SWAP1 SWAP3 DUP1 SLOAD SWAP5 DUP6 DUP6 LT ISZERO PUSH2 0x75D JUMPI DUP5 ADD SWAP5 DUP6 DUP6 GT PUSH2 0x74A JUMPI DUP1 DUP7 GT PUSH2 0x742 JUMPI JUMPDEST POP PUSH2 0x67C DUP5 DUP7 PUSH2 0xBF7 JUMP JUMPDEST SWAP4 PUSH2 0x686 DUP6 PUSH2 0xBA4 JUMP JUMPDEST SWAP5 PUSH2 0x693 DUP6 MLOAD SWAP7 DUP8 PUSH2 0x9C3 JUMP JUMPDEST DUP1 DUP7 MSTORE PUSH2 0x6A2 PUSH1 0x1F NOT SWAP2 PUSH2 0xBA4 JUMP JUMPDEST ADD DUP4 JUMPDEST DUP2 DUP2 LT PUSH2 0x71A JUMPI POP POP DUP1 JUMPDEST DUP7 DUP2 LT PUSH2 0x6C4 JUMPI DUP5 MLOAD DUP1 PUSH2 0x1C8 DUP9 DUP3 PUSH2 0xAE6 JUMP JUMPDEST PUSH2 0x6F5 PUSH2 0x6D0 DUP3 PUSH2 0x906 JUMP JUMPDEST POP PUSH2 0x6E4 PUSH2 0x6DE DUP6 DUP6 PUSH2 0xBF7 JUMP JUMPDEST SWAP2 PUSH2 0xBBC JUMP JUMPDEST PUSH2 0x6EE DUP3 DUP11 PUSH2 0xC1A JUMP JUMPDEST MSTORE DUP8 PUSH2 0xC1A JUMP JUMPDEST POP PUSH1 0x0 NOT DUP2 EQ PUSH2 0x707 JUMPI PUSH1 0x1 ADD PUSH2 0x6B0 JUMP JUMPDEST PUSH4 0x4E487B71 PUSH1 0xE0 SHL DUP5 MSTORE PUSH1 0x11 DUP4 MSTORE PUSH1 0x24 DUP5 REVERT JUMPDEST PUSH1 0x20 SWAP1 DUP7 MLOAD PUSH2 0x728 DUP2 PUSH2 0x991 JUMP JUMPDEST DUP7 DUP2 MSTORE DUP3 DUP8 DUP2 DUP4 ADD MSTORE PUSH1 0x60 DUP10 DUP4 ADD MSTORE DUP3 DUP11 ADD ADD MSTORE ADD PUSH2 0x6A5 JUMP JUMPDEST SWAP5 POP DUP6 PUSH2 0x671 JUMP JUMPDEST PUSH4 0x4E487B71 PUSH1 0xE0 SHL DUP4 MSTORE PUSH1 0x11 DUP3 MSTORE PUSH1 0x24 DUP4 REVERT JUMPDEST DUP4 MLOAD PUSH3 0x461BCD PUSH1 0xE5 SHL DUP2 MSTORE PUSH1 0x20 DUP2 DUP5 ADD MSTORE PUSH1 0x12 PUSH1 0x24 DUP3 ADD MSTORE PUSH18 0x7374617274206F7574206F662072616E6765 PUSH1 0x70 SHL PUSH1 0x44 DUP3 ADD MSTORE PUSH1 0x64 SWAP1 REVERT JUMPDEST POP CALLVALUE PUSH2 0x156 JUMPI DUP2 PUSH1 0x3 NOT CALLDATASIZE ADD SLT PUSH2 0x156 JUMPI SWAP1 SLOAD SWAP1 MLOAD PUSH1 0x1 PUSH1 0x1 PUSH1 0xA0 SHL SUB SWAP1 SWAP2 AND DUP2 MSTORE PUSH1 0x20 SWAP1 RETURN JUMPDEST POP CALLVALUE PUSH2 0x156 JUMPI DUP2 PUSH1 0x3 NOT CALLDATASIZE ADD SLT PUSH2 0x156 JUMPI PUSH1 0xFF PUSH1 0x20 SWAP3 SLOAD PUSH1 0xA0 SHR AND SWAP1 MLOAD SWAP1 ISZERO ISZERO DUP2 MSTORE RETURN JUMPDEST POP CALLVALUE PUSH2 0x156 JUMPI DUP2 PUSH1 0x3 NOT CALLDATASIZE ADD SLT PUSH2 0x156 JUMPI PUSH1 0x20 SWAP1 PUSH1 0x2 SLOAD SWAP1 MLOAD SWAP1 DUP2 MSTORE RETURN JUMPDEST POP SWAP2 SWAP1 CALLVALUE PUSH2 0x1E9 JUMPI PUSH1 0x20 CALLDATASIZE PUSH1 0x3 NOT ADD SLT PUSH2 0x1E9 JUMPI DUP2 CALLDATALOAD SWAP2 SLOAD DUP3 LT ISZERO PUSH2 0x1E9 JUMPI POP PUSH2 0x827 SWAP1 PUSH2 0x906 JUMP JUMPDEST POP SWAP1 PUSH2 0x1C8 PUSH1 0x1 DUP1 PUSH1 0xA0 SHL SUB DUP4 SLOAD AND SWAP2 PUSH1 0x60 PUSH2 0x84A PUSH1 0x2 PUSH1 0x1 DUP8 ADD SLOAD SWAP7 ADD PUSH2 0x9E5 JUMP JUMPDEST SWAP2 DUP1 MLOAD SWAP6 DUP7 SWAP6 DUP7 MSTORE PUSH1 0x20 DUP7 ADD MSTORE DUP5 ADD MSTORE PUSH1 0x60 DUP4 ADD SWAP1 PUSH2 0xA8B JUMP JUMPDEST DUP3 DUP5 CALLVALUE PUSH2 0x156 JUMPI PUSH1 0x20 CALLDATASIZE PUSH1 0x3 NOT ADD SLT PUSH2 0x156 JUMPI CALLDATALOAD DUP1 ISZERO ISZERO DUP1 DUP3 SUB PUSH2 0x61E JUMPI DUP3 SLOAD SWAP1 PUSH2 0x899 CALLER PUSH1 0x1 PUSH1 0x1 PUSH1 0xA0 SHL SUB DUP5 AND EQ PUSH2 0xB6C JUMP JUMPDEST PUSH1 0xFF PUSH1 0xA0 SHL NOT SWAP1 SWAP2 AND PUSH1 0xA0 SWAP2 SWAP1 SWAP2 SHL PUSH1 0xFF PUSH1 0xA0 SHL AND OR DUP3 SSTORE ISZERO PUSH2 0x8DE JUMPI CALLER PUSH32 0x62E78CEA01BEE320CD4E420270B5EA74000D11B0C9F74754EBDBFC544B05A258 DUP3 DUP1 LOG2 DUP1 RETURN JUMPDEST CALLER PUSH32 0x5DB9EE0A495BF2E6FF9C91A7834C1BA4FDD244A5E8AA4E537BD38AEAE4B073AA DUP3 DUP1 LOG2 DUP1 RETURN JUMPDEST PUSH1 0x4 SLOAD DUP2 LT ISZERO PUSH2 0x941 JUMPI PUSH1 0x3 SWAP1 PUSH1 0x4 PUSH1 0x0 MSTORE MUL PUSH32 0x8A35ACFBC15FF81A39AE7D344FD709F28E8600B4AA8C65C6B64BFE7FE36BD19B ADD SWAP1 PUSH1 0x0 SWAP1 JUMP JUMPDEST PUSH4 0x4E487B71 PUSH1 0xE0 SHL PUSH1 0x0 MSTORE PUSH1 0x32 PUSH1 0x4 MSTORE PUSH1 0x24 PUSH1 0x0 REVERT JUMPDEST SWAP1 PUSH1 0x1 DUP3 DUP2 SHR SWAP3 AND DUP1 ISZERO PUSH2 0x987 JUMPI JUMPDEST PUSH1 0x20 DUP4 LT EQ PUSH2 0x971 JUMPI JUMP JUMPDEST PUSH4 0x4E487B71 PUSH1 0xE0 SHL PUSH1 0x0 MSTORE PUSH1 0x22 PUSH1 0x4 MSTORE PUSH1 0x24 PUSH1 0x0 REVERT JUMPDEST SWAP2 PUSH1 0x7F AND SWAP2 PUSH2 0x966 JUMP JUMPDEST PUSH1 0x60 DUP2 ADD SWAP1 DUP2 LT PUSH8 0xFFFFFFFFFFFFFFFF DUP3 GT OR PUSH2 0x9AD JUMPI PUSH1 0x40 MSTORE JUMP JUMPDEST PUSH4 0x4E487B71 PUSH1 0xE0 SHL PUSH1 0x0 MSTORE PUSH1 0x41 PUSH1 0x4 MSTORE PUSH1 0x24 PUSH1 0x0 REVERT JUMPDEST SWAP1 PUSH1 0x1F DUP1 NOT SWAP2 ADD AND DUP2 ADD SWAP1 DUP2 LT PUSH8 0xFFFFFFFFFFFFFFFF DUP3 GT OR PUSH2 0x9AD JUMPI PUSH1 0x40 MSTORE JUMP JUMPDEST SWAP1 PUSH1 0x40 MLOAD SWAP2 DUP3 PUSH1 0x0 DUP3 SLOAD SWAP3 PUSH2 0x9F9 DUP5 PUSH2 0x957 JUMP JUMPDEST SWAP1 DUP2 DUP5 MSTORE PUSH1 0x1 SWAP5 DUP6 DUP2 AND SWAP1 DUP2 PUSH1 0x0 EQ PUSH2 0xA68 JUMPI POP PUSH1 0x1 EQ PUSH2 0xA25 JUMPI JUMPDEST POP POP PUSH2 0xA23 SWAP3 POP SUB DUP4 PUSH2 0x9C3 JUMP JUMPDEST JUMP JUMPDEST SWAP1 SWAP4 SWAP2 POP PUSH1 0x0 MSTORE PUSH1 0x20 SWAP1 DUP2 PUSH1 0x0 KECCAK256 SWAP4 PUSH1 0x0 SWAP2 JUMPDEST DUP2 DUP4 LT PUSH2 0xA50 JUMPI POP POP PUSH2 0xA23 SWAP4 POP DUP3 ADD ADD CODESIZE DUP1 PUSH2 0xA15 JUMP JUMPDEST DUP6 SLOAD DUP9 DUP5 ADD DUP6 ADD MSTORE SWAP5 DUP6 ADD SWAP5 DUP8 SWAP5 POP SWAP2 DUP4 ADD SWAP2 PUSH2 0xA38 JUMP JUMPDEST SWAP2 POP POP PUSH2 0xA23 SWAP5 POP PUSH1 0x20 SWAP3 POP PUSH1 0xFF NOT AND DUP3 DUP5 ADD MSTORE ISZERO ISZERO PUSH1 0x5 SHL DUP3 ADD ADD CODESIZE DUP1 PUSH2 0xA15 JUMP JUMPDEST SWAP2 SWAP1 DUP3 MLOAD SWAP3 DUP4 DUP3 MSTORE PUSH1 0x0 JUMPDEST DUP5 DUP2 LT PUSH2 0xAB7 JUMPI POP POP DUP3 PUSH1 0x0 PUSH1 0x20 DUP1 SWAP5 SWAP6 DUP5 ADD ADD MSTORE PUSH1 0x1F DUP1 NOT SWAP2 ADD AND ADD ADD SWAP1 JUMP JUMPDEST PUSH1 0x20 DUP2 DUP4 ADD DUP2 ADD MLOAD DUP5 DUP4 ADD DUP3 ADD MSTORE ADD PUSH2 0xA96 JUMP JUMPDEST PUSH1 0x40 SWAP1 PUSH1 0x3 NOT ADD SLT PUSH2 0xAE1 JUMPI PUSH1 0x4 CALLDATALOAD SWAP1 PUSH1 0x24 CALLDATALOAD SWAP1 JUMP JUMPDEST PUSH1 0x0 DUP1 REVERT JUMPDEST PUSH1 0x20 DUP1 DUP3 ADD SWAP1 DUP1 DUP4 MSTORE DUP4 MLOAD DUP1 SWAP3 MSTORE PUSH1 0x40 SWAP3 DUP4 DUP2 ADD DUP3 DUP6 DUP6 PUSH1 0x5 SHL DUP5 ADD ADD SWAP7 ADD SWAP5 PUSH1 0x0 SWAP3 JUMPDEST DUP6 DUP5 LT PUSH2 0xB1B JUMPI POP POP POP POP POP POP POP SWAP1 JUMP JUMPDEST SWAP1 SWAP2 SWAP3 SWAP4 SWAP5 SWAP6 SWAP7 DUP6 DUP1 PUSH2 0xB5B PUSH1 0x1 SWAP4 PUSH1 0x3F NOT DUP7 DUP3 SUB ADD DUP9 MSTORE DUP7 DUP13 MLOAD DUP7 DUP1 PUSH1 0xA0 SHL SUB DUP2 MLOAD AND DUP4 MSTORE DUP5 DUP2 ADD MLOAD DUP6 DUP5 ADD MSTORE ADD MLOAD SWAP1 PUSH1 0x60 SWAP1 DUP2 DUP10 DUP3 ADD MSTORE ADD SWAP1 PUSH2 0xA8B JUMP JUMPDEST SWAP10 ADD SWAP5 ADD SWAP5 ADD SWAP3 SWAP6 SWAP5 SWAP4 SWAP2 SWAP1 PUSH2 0xB0A JUMP JUMPDEST ISZERO PUSH2 0xB73 JUMPI JUMP JUMPDEST PUSH1 0x40 MLOAD PUSH3 0x461BCD PUSH1 0xE5 SHL DUP2 MSTORE PUSH1 0x20 PUSH1 0x4 DUP3 ADD MSTORE PUSH1 0x9 PUSH1 0x24 DUP3 ADD MSTORE PUSH9 0x2737BA1037BBB732B9 PUSH1 0xB9 SHL PUSH1 0x44 DUP3 ADD MSTORE PUSH1 0x64 SWAP1 REVERT JUMPDEST PUSH8 0xFFFFFFFFFFFFFFFF DUP2 GT PUSH2 0x9AD JUMPI PUSH1 0x5 SHL PUSH1 0x20 ADD SWAP1 JUMP JUMPDEST SWAP1 PUSH1 0x40 MLOAD PUSH2 0xBC9 DUP2 PUSH2 0x991 JUMP JUMPDEST DUP3 SLOAD PUSH1 0x1 PUSH1 0x1 PUSH1 0xA0 SHL SUB AND DUP2 MSTORE PUSH1 0x1 DUP4 ADD SLOAD PUSH1 0x20 DUP3 ADD MSTORE SWAP2 DUP3 SWAP1 PUSH1 0x40 SWAP1 PUSH2 0xBF2 SWAP1 PUSH1 0x2 ADD PUSH2 0x9E5 JUMP JUMPDEST SWAP2 ADD MSTORE JUMP JUMPDEST SWAP2 SWAP1 DUP3 SUB SWAP2 DUP3 GT PUSH2 0xC04 JUMPI JUMP JUMPDEST PUSH4 0x4E487B71 PUSH1 0xE0 SHL PUSH1 0x0 MSTORE PUSH1 0x11 PUSH1 0x4 MSTORE PUSH1 0x24 PUSH1 0x0 REVERT JUMPDEST DUP1 MLOAD DUP3 LT ISZERO PUSH2 0x941 JUMPI PUSH1 0x20 SWAP2 PUSH1 0x5 SHL ADD ADD SWAP1 JUMP INVALID LOG2 PUSH5 0x6970667358 0x22 SLT KECCAK256 PUSH6 0x8991816B6116 DUP11 DUP4 ADDRESS 0xAA NUMBER SWAP9 0xC6 PUSH7 0xA271606CFC9C66 0x21 0xCF 0xA8 0xC0 SELFDESTRUCT DUP12 PUSH16 0xB22FAF64736F6C634300081400330000 "},"methodIdentifiers":{"bets(uint256)":"22af00fa","getBets()":"a6afd5fd","getBetsRange(uint256,uint256)":"91d943b5","maxBet()":"2e5b2168","minBet()":"9619367d","owner()":"8da5cb5b","paused()":"5c975abb","placeBet(string)":"97bfeb88","setLimits(uint256,uint256)":"c4590d3f","setPaused(bool)":"16c38b3c"}}}}}