{"contracts/StakingOracle.sol":{"StakingOracle":{"abi":[{"inputs":[{"internalType":"address","name":"_market","type":"address"}],"stateMutability":"nonpayable","type":"constructor"},{"anonymous":false,"inputs":[{"indexed":true,"internalType":"uint256","name":"marketId","type":"uint256"},{"indexed":false,"internalType":"bool","name":"outcomeYes","type":"bool"},{"indexed":false,"internalType":"uint256","name":"totalYes","type":"uint256"},{"indexed":false,"internalType":"uint256","name":"totalNo","type":"uint256"}],"name":"OracleResolved","type":"event"},{"anonymous":false,"inputs":[{"indexed":true,"internalType":"uint256","name":"marketId","type":"uint256"},{"indexed":false,"internalType":"uint256","name":"deadline","type":"uint256"}],"name":"ResolutionRequested","type":"event"},{"anonymous":false,"inputs":[{"indexed":true,"internalType":"uint256","name":"marketId","type":"uint256"},{"indexed":true,"internalType":"address","name":"voter","type":"address"},{"indexed":false,"internalType":"uint256","name":"amount","type":"uint256"}],"name":"RewardClaimed","type":"event"},{"anonymous":false,"inputs":[{"indexed":true,"internalType":"uint256","name":"marketId","type":"uint256"},{"indexed":true,"internalType":"address","name":"voter","type":"address"},{"indexed":false,"internalType":"bool","name":"supportYes","type":"bool"},{"indexed":false,"internalType":"uint256","name":"amount","type":"uint256"}],"name":"VoteSubmitted","type":"event"},{"inputs":[{"internalType":"uint256","name":"marketId","type":"uint256"}],"name":"claimReward","outputs":[],"stateMutability":"nonpayable","type":"function"},{"inputs":[],"name":"market","outputs":[{"internalType":"contract IMarket","name":"","type":"address"}],"stateMutability":"view","type":"function"},{"inputs":[{"internalType":"address","name":"","type":"address"}],"name":"reputation","outputs":[{"internalType":"uint256","name":"","type":"uint256"}],"stateMutability":"view","type":"function"},{"inputs":[{"internalType":"uint256","name":"marketId","type":"uint256"}],"name":"requestResolution","outputs":[],"stateMutability":"nonpayable","type":"function"},{"inputs":[{"internalType":"uint256","name":"","type":"uint256"}],"name":"requests","outputs":[{"internalType":"uint256","name":"startTime","type":"uint256"},{"internalType":"uint256","name":"votingDeadline","type":"uint256"},{"internalType":"uint256","name":"totalStakeYes","type":"uint256"},{"internalType":"uint256","name":"totalStakeNo","type":"uint256"},{"internalType":"bool","name":"resolved","type":"bool"},{"internalType":"bool","name":"outcomeYes","type":"bool"},{"internalType":"bool","name":"exists","type":"bool"}],"stateMutability":"view","type":"function"},{"inputs":[{"internalType":"uint256","name":"marketId","type":"uint256"}],"name":"resolve","outputs":[],"stateMutability":"nonpayable","type":"function"},{"inputs":[{"internalType":"uint256","name":"marketId","type":"uint256"},{"internalType":"bool","name":"supportYes","type":"bool"}],"name":"vote","outputs":[],"stateMutability":"payable","type":"function"},{"inputs":[{"internalType":"uint256","name":"","type":"uint256"},{"internalType":"address","name":"","type":"address"}],"name":"votes","outputs":[{"internalType":"uint256","name":"amount","type":"uint256"},{"internalType":"bool","name":"supportYes","type":"bool"},{"internalType":"bool","name":"claimed","type":"bool"}],"stateMutability":"view","type":"function"},{"inputs":[],"name":"votingDuration","outputs":[{"internalType":"uint256","name":"","type":"uint256"}],"stateMutability":"view","type":"function"}],"evm":{"bytecode":{"linkReferences":{},"object":"60803461007a57601f610b4a38819003918201601f19168301916001600160401b0383118484101761007f5780849260209460405283398101031261007a57516001600160a01b0381169081900361007a57610e10600155600080546001600160a01b031916919091179055604051610ab490816100968239f35b600080fd5b634e487b7160e01b600052604160045260246000fdfe6080604081815260048036101561001557600080fd5b600092833560e01c908163132002fc14610a3f57508063416a4f19146108c55780634f896d4f146106d957806380f55605146106b157806381d12c581461063f578063ae169a501461036b578063b9f794511461032e578063c9d27afe146100f35763d23254b41461008657600080fd5b346100ef57816003193601126100ef576024356001600160a01b03811691908290036100ea57606093839135815260036020522090600052602052806000209060ff6001835493015482519384528181161515602085015260081c16151590820152f35b600080fd5b8280fd5b5082908260031936011261032a57803560249384358015159384820361032657838652602091600283528387209160ff8184015460101c16156102e45760018301544210156102b257341561027f5785885260038452848820336000528452846000205461024d5784519860608a01918a831067ffffffffffffffff84111761023a5750507fd5fbdad2a4bb43b8c8ee1becc8085bb21684241593a04bf8795a83f56436b43d959697986101ff918652348152896101e86001878401938c855289808201948086528d815260038b522033600052895289600020905181550192511515839060ff801983541691151516179055565b51815461ff00191690151560081b61ff0016179055565b1561022557600201610212348254610a5b565b90555b815194855234908501523393a380f35b600301610233348254610a5b565b9055610215565b604190634e487b7160e01b600052526000fd5b845162461bcd60e51b8152908101849052600d818a01526c105b1c9958591e481d9bdd1959609a1b6044820152606490fd5b845162461bcd60e51b8152908101849052600e818a01526d14dd185ad9481c995c5d5a5c995960921b6044820152606490fd5b845162461bcd60e51b8152908101849052600d818a01526c159bdd1a5b99c818db1bdcd959609a1b6044820152606490fd5b845162461bcd60e51b81529081018490526018818a01527f5265736f6c7574696f6e206e6f742072657175657374656400000000000000006044820152606490fd5b8580fd5b5080fd5b5091346103685760203660031901126103685782356001600160a01b03811691908290036100ea5760209383928252845220549051908152f35b80fd5b5090346100ef5760208060031936011261063b578235918285526002825280852093808501549460ff86161561060a5784875260038452828720336000528452826000209081549182156105dd576001019182549760ff8960081c166105a85760ff9060081c1680151560ff8a161515036105715715610563576103ff6002830154925b6003600282015491015490610a5b565b82159081610556578083029283040361054357610530570495610100905b61ff0019161790553386528083528186208054906001820180921161051d575584610471575b50907f24b5efa61dd1cfc659205a97fb8ed868f3cb8c81922bab2b96423e5de1de2cb791519384523393a380f35b8580808088335af13d156105185767ffffffffffffffff3d81811161050557845191601f8201601f19908116603f01168301908111838210176104f0578552815287853d92013e5b6104435782606492519162461bcd60e51b8352820152600f60248201526e151c985b9cd9995c8819985a5b1959608a1b6044820152fd5b604185634e487b7160e01b6000525260246000fd5b634e487b7160e01b895260418452602489fd5b6104b9565b634e487b7160e01b885260118352602488fd5b634e487b7160e01b895260128452602489fd5b634e487b7160e01b8a526011855260248afd5b505061010091509661041d565b6103ff6003830154926103ef565b855162461bcd60e51b81528086018890526011602482015270566f74656420696e636f72726563746c7960781b6044820152606490fd5b855162461bcd60e51b8152808601889052600f60248201526e105b1c9958591e4818db185a5b5959608a1b6044820152606490fd5b845162461bcd60e51b815280850187905260076024820152664e6f20766f746560c81b6044820152606490fd5b5082606492519162461bcd60e51b8352820152600c60248201526b139bdd081c995cdbdb1d995960a21b6044820152fd5b8380fd5b5090346100ef5760203660031901126100ef578060ff9160e0948435815260026020522080549360018201549260028301549160038401549301549381519687526020870152850152606084015281811615156080840152818160081c16151560a084015260101c16151560c0820152f35b50503461032a578160031936011261032a57905490516001600160a01b039091168152602090f35b50346100ef5760208060031936011261063b578135928385526002825280852083810193845460ff8160101c16156108925760ff1661085c576001820154421061082857866002830191600383549401938454109661074b88829061ff00825491151560081b169061ff001916179055565b805460ff1916600117905581546001600160a01b0316803b156100ef578290604487518095819363456f6a1560e01b83528d878401528c60248401525af1801561081e576107ce575b50505490548251948552928401528201527f09b1acfa1df6412c1e28798791091b690fa3f291eb47073454626675e7d0fce590606090a280f35b67ffffffffffffffff829993991161080b5750835295817f09b1acfa1df6412c1e28798791091b690fa3f291eb47073454626675e7d0fce5610794565b634e487b7160e01b835260419052602482fd5b85513d8b823e3d90fd5b825162461bcd60e51b8152908101849052600e60248201526d566f74696e67206f6e676f696e6760901b6044820152606490fd5b825162461bcd60e51b8152908101849052601060248201526f105b1c9958591e481c995cdbdb1d995960821b6044820152606490fd5b835162461bcd60e51b8152808301869052600d60248201526c139bdd081c995c5d595cdd1959609a1b6044820152606490fd5b5091903461032a576020806003193601126100ef578335918284526002825260ff85828620015460101c16610a085761090060015442610a5b565b81519060e0820182811067ffffffffffffffff8211176109f557856109b188997f5ad836d211b61ede522afd8ad8002af2302833bb6de0fe2aac370f49634d28b4989995886001966109c8968a52428352818301908152898301908982528a8a60026060870195828752608088019d8e5260a088019a838c5260c089019d8e5283525220935184555160018401555160028301555160038201550194511515859060ff801983541691151516179055565b51835461ff00191690151560081b61ff0016178355565b51815462ff0000191690151560101b62ff0000161790556001546109ec9042610a5b565b9051908152a280f35b634e487b7160e01b875260418852602487fd5b5162461bcd60e51b8152808501919091526011602482015270105b1c9958591e481c995c5d595cdd1959607a1b6044820152606490fd5b84903461032a578160031936011261032a576020906001548152f35b91908201809211610a6857565b634e487b7160e01b600052601160045260246000fdfea2646970667358221220ea4a7b080f735cf36fc21f72ac86626d8a5a3fbd05b7a16c8934d214d8f29d9264736f6c63430008140033","opcodes":"PUSH1 0x80 CALLVALUE PUSH2 0x7A JUMPI PUSH1 0x1F PUSH2 0xB4A CODESIZE DUP2 SWAP1 SUB SWAP2 DUP3 ADD PUSH1 0x1F NOT AND DUP4 ADD SWAP2 PUSH1 0x1 PUSH1 0x1 PUSH1 0x40 SHL SUB DUP4 GT DUP5 DUP5 LT OR PUSH2 0x7F JUMPI DUP1 DUP5 SWAP3 PUSH1 0x20 SWAP5 PUSH1 0x40 MSTORE DUP4 CODECOPY DUP2 ADD SUB SLT PUSH2 0x7A JUMPI MLOAD PUSH1 0x1 PUSH1 0x1 PUSH1 0xA0 SHL SUB DUP2 AND SWAP1 DUP2 SWAP1 SUB PUSH2 0x7A JUMPI PUSH2 0xE10 PUSH1 0x1 SSTORE PUSH1 0x0 DUP1 SLOAD PUSH1 0x1 PUSH1 0x1 PUSH1 0xA0 SHL SUB NOT AND SWAP2 SWAP1 SWAP2 OR SWAP1 SSTORE PUSH1 0x40 MLOAD PUSH2 0xAB4 SWAP1 DUP2 PUSH2 0x96 DUP3 CODECOPY RETURN JUMPDEST PUSH1 0x0 DUP1 REVERT JUMPDEST PUSH4 0x4E487B71 PUSH1 0xE0 SHL PUSH1 0x0 MSTORE PUSH1 0x41 PUSH1 0x4 MSTORE PUSH1 0x24 PUSH1 0x0 REVERT INVALID PUSH1 0x80 PUSH1 0x40 DUP2 DUP2 MSTORE PUSH1 0x4 DUP1 CALLDATASIZE LT ISZERO PUSH2 0x15 JUMPI PUSH1 0x0 DUP1 REVERT JUMPDEST PUSH1 0x0 SWAP3 DUP4 CALLDATALOAD PUSH1 0xE0 SHR SWAP1 DUP2 PUSH4 0x132002FC EQ PUSH2 0xA3F JUMPI POP DUP1 PUSH4 0x416A4F19 EQ PUSH2 0x8C5 JUMPI DUP1 PUSH4 0x4F896D4F EQ PUSH2 0x6D9 JUMPI DUP1 PUSH4 0x80F55605 EQ PUSH2 0x6B1 JUMPI DUP1 PUSH4 0x81D12C58 EQ PUSH2 0x63F JUMPI DUP1 PUSH4 0xAE169A50 EQ PUSH2 0x36B JUMPI DUP1 PUSH4 0xB9F79451 EQ PUSH2 0x32E JUMPI DUP1 PUSH4 0xC9D27AFE EQ PUSH2 0xF3 JUMPI PUSH4 0xD23254B4 EQ PUSH2 0x86 JUMPI PUSH1 0x0 DUP1 REVERT JUMPDEST CALLVALUE PUSH2 0xEF JUMPI DUP2 PUSH1 0x3 NOT CALLDATASIZE ADD SLT PUSH2 0xEF JUMPI PUSH1 0x24 CALLDATALOAD PUSH1 0x1 PUSH1 0x1 PUSH1 0xA0 SHL SUB DUP2 AND SWAP2 SWAP1 DUP3 SWAP1 SUB PUSH2 0xEA JUMPI PUSH1 0x60 SWAP4 DUP4 SWAP2 CALLDATALOAD DUP2 MSTORE PUSH1 0x3 PUSH1 0x20 MSTORE KECCAK256 SWAP1 PUSH1 0x0 MSTORE PUSH1 0x20 MSTORE DUP1 PUSH1 0x0 KECCAK256 SWAP1 PUSH1 0xFF PUSH1 0x1 DUP4 SLOAD SWAP4 ADD SLOAD DUP3 MLOAD SWAP4 DUP5 MSTORE DUP2 DUP2 AND ISZERO ISZERO PUSH1 0x20 DUP6 ADD MSTORE PUSH1 0x8 SHR AND ISZERO ISZERO SWAP1 DUP3 ADD MSTORE RETURN JUMPDEST PUSH1 0x0 DUP1 REVERT JUMPDEST DUP3 DUP1 REVERT JUMPDEST POP DUP3 SWAP1 DUP3 PUSH1 0x3 NOT CALLDATASIZE ADD SLT PUSH2 0x32A JUMPI DUP1 CALLDATALOAD PUSH1 0x24 SWAP4 DUP5 CALLDATALOAD DUP1 ISZERO ISZERO SWAP4 DUP5 DUP3 SUB PUSH2 0x326 JUMPI DUP4 DUP7 MSTORE PUSH1 0x20 SWAP2 PUSH1 0x2 DUP4 MSTORE DUP4 DUP8 KECCAK256 SWAP2 PUSH1 0xFF DUP2 DUP5 ADD SLOAD PUSH1 0x10 SHR AND ISZERO PUSH2 0x2E4 JUMPI PUSH1 0x1 DUP4 ADD SLOAD TIMESTAMP LT ISZERO PUSH2 0x2B2 JUMPI CALLVALUE ISZERO PUSH2 0x27F JUMPI DUP6 DUP9 MSTORE PUSH1 0x3 DUP5 MSTORE DUP5 DUP9 KECCAK256 CALLER PUSH1 0x0 MSTORE DUP5 MSTORE DUP5 PUSH1 0x0 KECCAK256 SLOAD PUSH2 0x24D JUMPI DUP5 MLOAD SWAP9 PUSH1 0x60 DUP11 ADD SWAP2 DUP11 DUP4 LT PUSH8 0xFFFFFFFFFFFFFFFF DUP5 GT OR PUSH2 0x23A JUMPI POP POP PUSH32 0xD5FBDAD2A4BB43B8C8EE1BECC8085BB21684241593A04BF8795A83F56436B43D SWAP6 SWAP7 SWAP8 SWAP9 PUSH2 0x1FF SWAP2 DUP7 MSTORE CALLVALUE DUP2 MSTORE DUP10 PUSH2 0x1E8 PUSH1 0x1 DUP8 DUP5 ADD SWAP4 DUP13 DUP6 MSTORE DUP10 DUP1 DUP3 ADD SWAP5 DUP1 DUP7 MSTORE DUP14 DUP2 MSTORE PUSH1 0x3 DUP12 MSTORE KECCAK256 CALLER PUSH1 0x0 MSTORE DUP10 MSTORE DUP10 PUSH1 0x0 KECCAK256 SWAP1 MLOAD DUP2 SSTORE ADD SWAP3 MLOAD ISZERO ISZERO DUP4 SWAP1 PUSH1 0xFF DUP1 NOT DUP4 SLOAD AND SWAP2 ISZERO ISZERO AND OR SWAP1 SSTORE JUMP JUMPDEST MLOAD DUP2 SLOAD PUSH2 0xFF00 NOT AND SWAP1 ISZERO ISZERO PUSH1 0x8 SHL PUSH2 0xFF00 AND OR SWAP1 SSTORE JUMP JUMPDEST ISZERO PUSH2 0x225 JUMPI PUSH1 0x2 ADD PUSH2 0x212 CALLVALUE DUP3 SLOAD PUSH2 0xA5B JUMP JUMPDEST SWAP1 SSTORE JUMPDEST DUP2 MLOAD SWAP5 DUP6 MSTORE CALLVALUE SWAP1 DUP6 ADD MSTORE CALLER SWAP4 LOG3 DUP1 RETURN JUMPDEST PUSH1 0x3 ADD PUSH2 0x233 CALLVALUE DUP3 SLOAD PUSH2 0xA5B JUMP JUMPDEST SWAP1 SSTORE PUSH2 0x215 JUMP JUMPDEST PUSH1 0x41 SWAP1 PUSH4 0x4E487B71 PUSH1 0xE0 SHL PUSH1 0x0 MSTORE MSTORE PUSH1 0x0 REVERT JUMPDEST DUP5 MLOAD PUSH3 0x461BCD PUSH1 0xE5 SHL DUP2 MSTORE SWAP1 DUP2 ADD DUP5 SWAP1 MSTORE PUSH1 0xD DUP2 DUP11 ADD MSTORE PUSH13 0x105B1C9958591E481D9BDD1959 PUSH1 0x9A SHL PUSH1 0x44 DUP3 ADD MSTORE PUSH1 0x64 SWAP1 REVERT JUMPDEST DUP5 MLOAD PUSH3 0x461BCD PUSH1 0xE5 SHL DUP2 MSTORE SWAP1 DUP2 ADD DUP5 SWAP1 MSTORE PUSH1 0xE DUP2 DUP11 ADD MSTORE PUSH14 0x14DD185AD9481C995C5D5A5C9959 PUSH1 0x92 SHL PUSH1 0x44 DUP3 ADD MSTORE PUSH1 0x64 SWAP1 REVERT JUMPDEST DUP5 MLOAD PUSH3 0x461BCD PUSH1 0xE5 SHL DUP2 MSTORE SWAP1 DUP2 ADD DUP5 SWAP1 MSTORE PUSH1 0xD DUP2 DUP11 ADD MSTORE PUSH13 0x159BDD1A5B99C818DB1BDCD959 PUSH1 0x9A SHL PUSH1 0x44 DUP3 ADD MSTORE PUSH1 0x64 SWAP1 REVERT JUMPDEST DUP5 MLOAD PUSH3 0x461BCD PUSH1 0xE5 SHL DUP2 MSTORE SWAP1 DUP2 ADD DUP5 SWAP1 MSTORE PUSH1 0x18 DUP2 DUP11 ADD MSTORE PUSH32 0x5265736F6C7574696F6E206E6F74207265717565737465640000000000000000 PUSH1 0x44 DUP3 ADD MSTORE PUSH1 0x64 SWAP1 REVERT JUMPDEST DUP6 DUP1 REVERT JUMPDEST POP DUP1 REVERT JUMPDEST POP SWAP2 CALLVALUE PUSH2 0x368 JUMPI PUSH1 0x20 CALLDATASIZE PUSH1 0x3 NOT ADD SLT PUSH2 0x368 JUMPI DUP3 CALLDATALOAD PUSH1 0x1 PUSH1 0x1 PUSH1 0xA0 SHL SUB DUP2 AND SWAP2 SWAP1 DUP3 SWAP1 SUB PUSH2 0xEA JUMPI PUSH1 0x20 SWAP4 DUP4 SWAP3 DUP3 MSTORE DUP5 MSTORE KECCAK256 SLOAD SWAP1 MLOAD SWAP1 DUP2 MSTORE RETURN JUMPDEST DUP1 REVERT JUMPDEST POP SWAP1 CALLVALUE PUSH2 0xEF JUMPI PUSH1 0x20 DUP1 PUSH1 0x3 NOT CALLDATASIZE ADD SLT PUSH2 0x63B JUMPI DUP3 CALLDATALOAD SWAP2 DUP3 DUP6 MSTORE PUSH1 0x2 DUP3 MSTORE DUP1 DUP6 KECCAK256 SWAP4 DUP1 DUP6 ADD SLOAD SWAP5 PUSH1 0xFF DUP7 AND ISZERO PUSH2 0x60A JUMPI DUP5 DUP8 MSTORE PUSH1 0x3 DUP5 MSTORE DUP3 DUP8 KECCAK256 CALLER PUSH1 0x0 MSTORE DUP5 MSTORE DUP3 PUSH1 0x0 KECCAK256 SWAP1 DUP2 SLOAD SWAP2 DUP3 ISZERO PUSH2 0x5DD JUMPI PUSH1 0x1 ADD SWAP2 DUP3 SLOAD SWAP8 PUSH1 0xFF DUP10 PUSH1 0x8 SHR AND PUSH2 0x5A8 JUMPI PUSH1 0xFF SWAP1 PUSH1 0x8 SHR AND DUP1 ISZERO ISZERO PUSH1 0xFF DUP11 AND ISZERO ISZERO SUB PUSH2 0x571 JUMPI ISZERO PUSH2 0x563 JUMPI PUSH2 0x3FF PUSH1 0x2 DUP4 ADD SLOAD SWAP3 JUMPDEST PUSH1 0x3 PUSH1 0x2 DUP3 ADD SLOAD SWAP2 ADD SLOAD SWAP1 PUSH2 0xA5B JUMP JUMPDEST DUP3 ISZERO SWAP1 DUP2 PUSH2 0x556 JUMPI DUP1 DUP4 MUL SWAP3 DUP4 DIV SUB PUSH2 0x543 JUMPI PUSH2 0x530 JUMPI DIV SWAP6 PUSH2 0x100 SWAP1 JUMPDEST PUSH2 0xFF00 NOT AND OR SWAP1 SSTORE CALLER DUP7 MSTORE DUP1 DUP4 MSTORE DUP2 DUP7 KECCAK256 DUP1 SLOAD SWAP1 PUSH1 0x1 DUP3 ADD DUP1 SWAP3 GT PUSH2 0x51D JUMPI SSTORE DUP5 PUSH2 0x471 JUMPI JUMPDEST POP SWAP1 PUSH32 0x24B5EFA61DD1CFC659205A97FB8ED868F3CB8C81922BAB2B96423E5DE1DE2CB7 SWAP2 MLOAD SWAP4 DUP5 MSTORE CALLER SWAP4 LOG3 DUP1 RETURN JUMPDEST DUP6 DUP1 DUP1 DUP1 DUP9 CALLER GAS CALL RETURNDATASIZE ISZERO PUSH2 0x518 JUMPI PUSH8 0xFFFFFFFFFFFFFFFF RETURNDATASIZE DUP2 DUP2 GT PUSH2 0x505 JUMPI DUP5 MLOAD SWAP2 PUSH1 0x1F DUP3 ADD PUSH1 0x1F NOT SWAP1 DUP2 AND PUSH1 0x3F ADD AND DUP4 ADD SWAP1 DUP2 GT DUP4 DUP3 LT OR PUSH2 0x4F0 JUMPI DUP6 MSTORE DUP2 MSTORE DUP8 DUP6 RETURNDATASIZE SWAP3 ADD RETURNDATACOPY JUMPDEST PUSH2 0x443 JUMPI DUP3 PUSH1 0x64 SWAP3 MLOAD SWAP2 PUSH3 0x461BCD PUSH1 0xE5 SHL DUP4 MSTORE DUP3 ADD MSTORE PUSH1 0xF PUSH1 0x24 DUP3 ADD MSTORE PUSH15 0x151C985B9CD9995C8819985A5B1959 PUSH1 0x8A SHL PUSH1 0x44 DUP3 ADD MSTORE REVERT JUMPDEST PUSH1 0x41 DUP6 PUSH4 0x4E487B71 PUSH1 0xE0 SHL PUSH1 0x0 MSTORE MSTORE PUSH1 0x24 PUSH1 0x0 REVERT JUMPDEST PUSH4 0x4E487B71 PUSH1 0xE0 SHL DUP10 MSTORE PUSH1 0x41 DUP5 MSTORE PUSH1 0x24 DUP10 REVERT JUMPDEST PUSH2 0x4B9 JUMP JUMPDEST PUSH4 0x4E487B71 PUSH1 0xE0 SHL DUP9 MSTORE PUSH1 0x11 DUP4 MSTORE PUSH1 0x24 DUP9 REVERT JUMPDEST PUSH4 0x4E487B71 PUSH1 0xE0 SHL DUP10 MSTORE PUSH1 0x12 DUP5 MSTORE PUSH1 0x24 DUP10 REVERT JUMPDEST PUSH4 0x4E487B71 PUSH1 0xE0 SHL DUP11 MSTORE PUSH1 0x11 DUP6 MSTORE PUSH1 0x24 DUP11 REVERT JUMPDEST POP POP PUSH2 0x100 SWAP2 POP SWAP7 PUSH2 0x41D JUMP JUMPDEST PUSH2 0x3FF PUSH1 0x3 DUP4 ADD SLOAD SWAP3 PUSH2 0x3EF JUMP JUMPDEST DUP6 MLOAD PUSH3 0x461BCD PUSH1 0xE5 SHL DUP2 MSTORE DUP1 DUP7 ADD DUP9 SWAP1 MSTORE PUSH1 0x11 PUSH1 0x24 DUP3 ADD MSTORE PUSH17 0x566F74656420696E636F72726563746C79 PUSH1 0x78 SHL PUSH1 0x44 DUP3 ADD MSTORE PUSH1 0x64 SWAP1 REVERT JUMPDEST DUP6 MLOAD PUSH3 0x461BCD PUSH1 0xE5 SHL DUP2 MSTORE DUP1 DUP7 ADD DUP9 SWAP1 MSTORE PUSH1 0xF PUSH1 0x24 DUP3 ADD MSTORE PUSH15 0x105B1C9958591E4818DB185A5B5959 PUSH1 0x8A SHL PUSH1 0x44 DUP3 ADD MSTORE PUSH1 0x64 SWAP1 REVERT JUMPDEST DUP5 MLOAD PUSH3 0x461BCD PUSH1 0xE5 SHL DUP2 MSTORE DUP1 DUP6 ADD DUP8 SWAP1 MSTORE PUSH1 0x7 PUSH1 0x24 DUP3 ADD MSTORE PUSH7 0x4E6F20766F7465 PUSH1 0xC8 SHL PUSH1 0x44 DUP3 ADD MSTORE PUSH1 0x64 SWAP1 REVERT JUMPDEST POP DUP3 PUSH1 0x64 SWAP3 MLOAD SWAP2 PUSH3 0x461BCD PUSH1 0xE5 SHL DUP4 MSTORE DUP3 ADD MSTORE PUSH1 0xC PUSH1 0x24 DUP3 ADD MSTORE PUSH12 0x139BDD081C995CDBDB1D9959 PUSH1 0xA2 SHL PUSH1 0x44 DUP3 ADD MSTORE REVERT JUMPDEST DUP4 DUP1 REVERT JUMPDEST POP SWAP1 CALLVALUE PUSH2 0xEF JUMPI PUSH1 0x20 CALLDATASIZE PUSH1 0x3 NOT ADD SLT PUSH2 0xEF JUMPI DUP1 PUSH1 0xFF SWAP2 PUSH1 0xE0 SWAP5 DUP5 CALLDATALOAD DUP2 MSTORE PUSH1 0x2 PUSH1 0x20 MSTORE KECCAK256 DUP1 SLOAD SWAP4 PUSH1 0x1 DUP3 ADD SLOAD SWAP3 PUSH1 0x2 DUP4 ADD SLOAD SWAP2 PUSH1 0x3 DUP5 ADD SLOAD SWAP4 ADD SLOAD SWAP4 DUP2 MLOAD SWAP7 DUP8 MSTORE PUSH1 0x20 DUP8 ADD MSTORE DUP6 ADD MSTORE PUSH1 0x60 DUP5 ADD MSTORE DUP2 DUP2 AND ISZERO ISZERO PUSH1 0x80 DUP5 ADD MSTORE DUP2 DUP2 PUSH1 0x8 SHR AND ISZERO ISZERO PUSH1 0xA0 DUP5 ADD MSTORE PUSH1 0x10 SHR AND ISZERO ISZERO PUSH1 0xC0 DUP3 ADD MSTORE RETURN JUMPDEST POP POP CALLVALUE PUSH2 0x32A JUMPI DUP2 PUSH1 0x3 NOT CALLDATASIZE ADD SLT PUSH2 0x32A JUMPI SWAP1 SLOAD SWAP1 MLOAD PUSH1 0x1 PUSH1 0x1 PUSH1 0xA0 SHL SUB SWAP1 SWAP2 AND DUP2 MSTORE PUSH1 0x20 SWAP1 RETURN JUMPDEST POP CALLVALUE PUSH2 0xEF JUMPI PUSH1 0x20 DUP1 PUSH1 0x3 NOT CALLDATASIZE ADD SLT PUSH2 0x63B JUMPI DUP2 CALLDATALOAD SWAP3 DUP4 DUP6 MSTORE PUSH1 0x2 DUP3 MSTORE DUP1 DUP6 KECCAK256 DUP4 DUP2 ADD SWAP4 DUP5 SLOAD PUSH1 0xFF DUP2 PUSH1 0x10 SHR AND ISZERO PUSH2 0x892 JUMPI PUSH1 0xFF AND PUSH2 0x85C JUMPI PUSH1 0x1 DUP3 ADD SLOAD TIMESTAMP LT PUSH2 0x828 JUMPI DUP7 PUSH1 0x2 DUP4 ADD SWAP2 PUSH1 0x3 DUP4 SLOAD SWAP5 ADD SWAP4 DUP5 SLOAD LT SWAP7 PUSH2 0x74B DUP9 DUP3 SWAP1 PUSH2 0xFF00 DUP3 SLOAD SWAP2 ISZERO ISZERO PUSH1 0x8 SHL AND SWAP1 PUSH2 0xFF00 NOT AND OR SWAP1 SSTORE JUMP JUMPDEST DUP1 SLOAD PUSH1 0xFF NOT AND PUSH1 0x1 OR SWAP1 SSTORE DUP2 SLOAD PUSH1 0x1 PUSH1 0x1 PUSH1 0xA0 SHL SUB AND DUP1 EXTCODESIZE ISZERO PUSH2 0xEF JUMPI DUP3 SWAP1 PUSH1 0x44 DUP8 MLOAD DUP1 SWAP6 DUP2 SWAP4 PUSH4 0x456F6A15 PUSH1 0xE0 SHL DUP4 MSTORE DUP14 DUP8 DUP5 ADD MSTORE DUP13 PUSH1 0x24 DUP5 ADD MSTORE GAS CALL DUP1 ISZERO PUSH2 0x81E JUMPI PUSH2 0x7CE JUMPI JUMPDEST POP POP SLOAD SWAP1 SLOAD DUP3 MLOAD SWAP5 DUP6 MSTORE SWAP3 DUP5 ADD MSTORE DUP3 ADD MSTORE PUSH32 0x9B1ACFA1DF6412C1E28798791091B690FA3F291EB47073454626675E7D0FCE5 SWAP1 PUSH1 0x60 SWAP1 LOG2 DUP1 RETURN JUMPDEST PUSH8 0xFFFFFFFFFFFFFFFF DUP3 SWAP10 SWAP4 SWAP10 GT PUSH2 0x80B JUMPI POP DUP4 MSTORE SWAP6 DUP2 PUSH32 0x9B1ACFA1DF6412C1E28798791091B690FA3F291EB47073454626675E7D0FCE5 PUSH2 0x794 JUMP JUMPDEST PUSH4 0x4E487B71 PUSH1 0xE0 SHL DUP4 MSTORE PUSH1 0x41 SWAP1 MSTORE PUSH1 0x24 DUP3 REVERT JUMPDEST DUP6 MLOAD RETURNDATASIZE DUP12 DUP3 RETURNDATACOPY RETURNDATASIZE SWAP1 REVERT JUMPDEST DUP3 MLOAD PUSH3 0x461BCD PUSH1 0xE5 SHL DUP2 MSTORE SWAP1 DUP2 ADD DUP5 SWAP1 MSTORE PUSH1 0xE PUSH1 0x24 DUP3 ADD MSTORE PUSH14 0x566F74696E67206F6E676F696E67 PUSH1 0x90 SHL PUSH1 0x44 DUP3 ADD MSTORE PUSH1 0x64 SWAP1 REVERT JUMPDEST DUP3 MLOAD PUSH3 0x461BCD PUSH1 0xE5 SHL DUP2 MSTORE SWAP1 DUP2 ADD DUP5 SWAP1 MSTORE PUSH1 0x10 PUSH1 0x24 DUP3 ADD MSTORE PUSH16 0x105B1C9958591E481C995CDBDB1D9959 PUSH1 0x82 SHL PUSH1 0x44 DUP3 ADD MSTORE PUSH1 0x64 SWAP1 REVERT JUMPDEST DUP4 MLOAD PUSH3 0x461BCD PUSH1 0xE5 SHL DUP2 MSTORE DUP1 DUP4 ADD DUP7 SWAP1 MSTORE PUSH1 0xD PUSH1 0x24 DUP3 ADD MSTORE PUSH13 0x139BDD081C995C5D595CDD1959 PUSH1 0x9A SHL PUSH1 0x44 DUP3 ADD MSTORE PUSH1 0x64 SWAP1 REVERT JUMPDEST POP SWAP2 SWAP1 CALLVALUE PUSH2 0x32A JUMPI PUSH1 0x20 DUP1 PUSH1 0x3 NOT CALLDATASIZE ADD SLT PUSH2 0xEF JUMPI DUP4 CALLDATALOAD SWAP2 DUP3 DUP5 MSTORE PUSH1 0x2 DUP3 MSTORE PUSH1 0xFF DUP6 DUP3 DUP7 KECCAK256 ADD SLOAD PUSH1 0x10 SHR AND PUSH2 0xA08 JUMPI PUSH2 0x900 PUSH1 0x1 SLOAD TIMESTAMP PUSH2 0xA5B JUMP JUMPDEST DUP2 MLOAD SWAP1 PUSH1 0xE0 DUP3 ADD DUP3 DUP2 LT PUSH8 0xFFFFFFFFFFFFFFFF DUP3 GT OR PUSH2 0x9F5 JUMPI DUP6 PUSH2 0x9B1 DUP9 SWAP10 PUSH32 0x5AD836D211B61EDE522AFD8AD8002AF2302833BB6DE0FE2AAC370F49634D28B4 SWAP9 SWAP10 SWAP6 DUP9 PUSH1 0x1 SWAP7 PUSH2 0x9C8 SWAP7 DUP11 MSTORE TIMESTAMP DUP4 MSTORE DUP2 DUP4 ADD SWAP1 DUP2 MSTORE DUP10 DUP4 ADD SWAP1 DUP10 DUP3 MSTORE DUP11 DUP11 PUSH1 0x2 PUSH1 0x60 DUP8 ADD SWAP6 DUP3 DUP8 MSTORE PUSH1 0x80 DUP9 ADD SWAP14 DUP15 MSTORE PUSH1 0xA0 DUP9 ADD SWAP11 DUP4 DUP13 MSTORE PUSH1 0xC0 DUP10 ADD SWAP14 DUP15 MSTORE DUP4 MSTORE MSTORE KECCAK256 SWAP4 MLOAD DUP5 SSTORE MLOAD PUSH1 0x1 DUP5 ADD SSTORE MLOAD PUSH1 0x2 DUP4 ADD SSTORE MLOAD PUSH1 0x3 DUP3 ADD SSTORE ADD SWAP5 MLOAD ISZERO ISZERO DUP6 SWAP1 PUSH1 0xFF DUP1 NOT DUP4 SLOAD AND SWAP2 ISZERO ISZERO AND OR SWAP1 SSTORE JUMP JUMPDEST MLOAD DUP4 SLOAD PUSH2 0xFF00 NOT AND SWAP1 ISZERO ISZERO PUSH1 0x8 SHL PUSH2 0xFF00 AND OR DUP4 SSTORE JUMP JUMPDEST MLOAD DUP2 SLOAD PUSH3 0xFF0000 NOT AND SWAP1 ISZERO ISZERO PUSH1 0x10 SHL PUSH3 0xFF0000 AND OR SWAP1 SSTORE PUSH1 0x1 SLOAD PUSH2 0x9EC SWAP1 TIMESTAMP PUSH2 0xA5B JUMP JUMPDEST SWAP1 MLOAD SWAP1 DUP2 MSTORE LOG2 DUP1 RETURN JUMPDEST PUSH4 0x4E487B71 PUSH1 0xE0 SHL DUP8 MSTORE PUSH1 0x41 DUP9 MSTORE PUSH1 0x24 DUP8 REVERT JUMPDEST MLOAD PUSH3 0x461BCD PUSH1 0xE5 SHL DUP2 MSTORE DUP1 DUP6 ADD SWAP2 SWAP1 SWAP2 MSTORE PUSH1 0x11 PUSH1 0x24 DUP3 ADD MSTORE PUSH17 0x105B1C9958591E481C995C5D595CDD1959 PUSH1 0x7A SHL PUSH1 0x44 DUP3 ADD MSTORE PUSH1 0x64 SWAP1 REVERT JUMPDEST DUP5 SWAP1 CALLVALUE PUSH2 0x32A JUMPI DUP2 PUSH1 0x3 NOT CALLDATASIZE ADD SLT PUSH2 0x32A JUMPI PUSH1 0x20 SWAP1 PUSH1 0x1 SLOAD DUP2 MSTORE RETURN JUMPDEST SWAP2 SWAP1 DUP3 ADD DUP1 SWAP3 GT PUSH2 0xA68 JUMPI JUMP JUMPDEST PUSH4 0x4E487B71 PUSH1 0xE0 SHL PUSH1 0x0 MSTORE PUSH1 0x11 PUSH1 0x4 MSTORE PUSH1 0x24 PUSH1 0x0 REVERT INVALID LOG2 PUSH5 0x6970667358 0x22 SLT KECCAK256 0xEA 0x4A PUSH28 0x80F735CF36FC21F72AC86626D8A5A3FBD05B7A16C8934D214D8F29D SWAP3 PUSH5 0x736F6C6343 STOP ADDMOD EQ STOP CALLER "},"methodIdentifiers":{"claimReward(uint256)":"ae169a50","market()":"80f55605","reputation(address)":"b9f79451","requestResolution(uint256)":"416a4f19","requests(uint256)":"81d12c58","resolve(uint256)":"4f896d4f","vote(uint256,bool)":"c9d27afe","votes(uint256,address)":"d23254b4","votingDuration()":"132002fc"}}}}}