{
  "_format": "hh-sol-artifact-1",
  "contractName": "Betting",
  "sourceName": "contracts/OracleTest.sol",
  "abi": [
    {
      "anonymous": false,
      "inputs": [
        {
          "indexed": true,
          "internalType": "address",
          "name": "user",
          "type": "address"
        },
        {
          "indexed": false,
          "internalType": "uint256",
          "name": "amount",
          "type": "uint256"
        },
        {
          "indexed": false,
          "internalType": "string",
          "name": "choice",
          "type": "string"
        }
      ],
      "name": "BetPlaced",
      "type": "event"
    },
    {
      "inputs": [
        {
          "internalType": "uint256",
          "name": "",
          "type": "uint256"
        }
      ],
      "name": "bets",
      "outputs": [
        {
          "internalType": "address",
          "name": "user",
          "type": "address"
        },
        {
          "internalType": "uint256",
          "name": "amount",
          "type": "uint256"
        },
        {
          "internalType": "string",
          "name": "choice",
          "type": "string"
        }
      ],
      "stateMutability": "view",
      "type": "function"
    },
    {
      "inputs": [],
      "name": "getBets",
      "outputs": [
        {
          "components": [
            {
              "internalType": "address",
              "name": "user",
              "type": "address"
            },
            {
              "internalType": "uint256",
              "name": "amount",
              "type": "uint256"
            },
            {
              "internalType": "string",
              "name": "choice",
              "type": "string"
            }
          ],
          "internalType": "struct Betting.Bet[]",
          "name": "",
          "type": "tuple[]"
        }
      ],
      "stateMutability": "view",
      "type": "function"
    },
    {
      "inputs": [
        {
          "internalType": "string",
          "name": "choice",
          "type": "string"
        }
      ],
      "name": "placeBet",
      "outputs": [],
      "stateMutability": "payable",
      "type": "function"
    }
  ],
  "bytecode": "0x608060405234801561001057600080fd5b50610c8a806100206000396000f3fe6080604052600436106100345760003560e01c806322af00fa1461003957806397bfeb8814610078578063a6afd5fd14610094575b600080fd5b34801561004557600080fd5b50610060600480360381019061005b91906104d4565b6100bf565b60405161006f939291906105e1565b60405180910390f35b610092600480360381019061008d9190610684565b6101a1565b005b3480156100a057600080fd5b506100a9610343565b6040516100b6919061084b565b60405180910390f35b600081815481106100cf57600080fd5b90600052602060002090600302016000915090508060000160009054906101000a900473ffffffffffffffffffffffffffffffffffffffff169080600101549080600201805461011e9061089c565b80601f016020809104026020016040519081016040528092919081815260200182805461014a9061089c565b80156101975780601f1061016c57610100808354040283529160200191610197565b820191906000526020600020905b81548152906001019060200180831161017a57829003601f168201915b5050505050905083565b600034116101e4576040517f08c379a00000000000000000000000000000000000000000000000000000000081526004016101db90610919565b60405180910390fd5b600060405180606001604052803373ffffffffffffffffffffffffffffffffffffffff16815260200134815260200184848080601f016020809104026020016040519081016040528093929190818152602001838380828437600081840152601f19601f82011690508083019250505050505050815250908060018154018082558091505060019003906000526020600020906003020160009091909190915060008201518160000160006101000a81548173ffffffffffffffffffffffffffffffffffffffff021916908373ffffffffffffffffffffffffffffffffffffffff1602179055506020820151816001015560408201518160020190816102ea9190610b14565b5050503373ffffffffffffffffffffffffffffffffffffffff167ff14919ff92658c8b721faa944957b48dedaee13316a12a2635add911929e917034848460405161033793929190610c22565b60405180910390a25050565b60606000805480602002602001604051908101604052809291908181526020016000905b8282101561048b57838290600052602060002090600302016040518060600160405290816000820160009054906101000a900473ffffffffffffffffffffffffffffffffffffffff1673ffffffffffffffffffffffffffffffffffffffff1673ffffffffffffffffffffffffffffffffffffffff168152602001600182015481526020016002820180546103fa9061089c565b80601f01602080910402602001604051908101604052809291908181526020018280546104269061089c565b80156104735780601f1061044857610100808354040283529160200191610473565b820191906000526020600020905b81548152906001019060200180831161045657829003601f168201915b50505050508152505081526020019060010190610367565b50505050905090565b600080fd5b600080fd5b6000819050919050565b6104b18161049e565b81146104bc57600080fd5b50565b6000813590506104ce816104a8565b92915050565b6000602082840312156104ea576104e9610494565b5b60006104f8848285016104bf565b91505092915050565b600073ffffffffffffffffffffffffffffffffffffffff82169050919050565b600061052c82610501565b9050919050565b61053c81610521565b82525050565b61054b8161049e565b82525050565b600081519050919050565b600082825260208201905092915050565b60005b8381101561058b578082015181840152602081019050610570565b60008484015250505050565b6000601f19601f8301169050919050565b60006105b382610551565b6105bd818561055c565b93506105cd81856020860161056d565b6105d681610597565b840191505092915050565b60006060820190506105f66000830186610533565b6106036020830185610542565b818103604083015261061581846105a8565b9050949350505050565b600080fd5b600080fd5b600080fd5b60008083601f8401126106445761064361061f565b5b8235905067ffffffffffffffff81111561066157610660610624565b5b60208301915083600182028301111561067d5761067c610629565b5b9250929050565b6000806020838503121561069b5761069a610494565b5b600083013567ffffffffffffffff8111156106b9576106b8610499565b5b6106c58582860161062e565b92509250509250929050565b600081519050919050565b600082825260208201905092915050565b6000819050602082019050919050565b61070681610521565b82525050565b6107158161049e565b82525050565b600082825260208201905092915050565b600061073782610551565b610741818561071b565b935061075181856020860161056d565b61075a81610597565b840191505092915050565b600060608301600083015161077d60008601826106fd565b506020830151610790602086018261070c565b50604083015184820360408601526107a8828261072c565b9150508091505092915050565b60006107c18383610765565b905092915050565b6000602082019050919050565b60006107e1826106d1565b6107eb81856106dc565b9350836020820285016107fd856106ed565b8060005b85811015610839578484038952815161081a85826107b5565b9450610825836107c9565b925060208a01995050600181019050610801565b50829750879550505050505092915050565b6000602082019050818103600083015261086581846107d6565b905092915050565b7f4e487b7100000000000000000000000000000000000000000000000000000000600052602260045260246000fd5b600060028204905060018216806108b457607f821691505b6020821081036108c7576108c661086d565b5b50919050565b7f426574206d757374206861766520736f6d652045544800000000000000000000600082015250565b600061090360168361055c565b915061090e826108cd565b602082019050919050565b60006020820190508181036000830152610932816108f6565b9050919050565b7f4e487b7100000000000000000000000000000000000000000000000000000000600052604160045260246000fd5b60008190508160005260206000209050919050565b60006020601f8301049050919050565b600082821b905092915050565b6000600883026109ca7fffffffffffffffffffffffffffffffffffffffffffffffffffffffffffffffff8261098d565b6109d4868361098d565b95508019841693508086168417925050509392505050565b6000819050919050565b6000610a11610a0c610a078461049e565b6109ec565b61049e565b9050919050565b6000819050919050565b610a2b836109f6565b610a3f610a3782610a18565b84845461099a565b825550505050565b600090565b610a54610a47565b610a5f818484610a22565b505050565b5b81811015610a8357610a78600082610a4c565b600181019050610a65565b5050565b601f821115610ac857610a9981610968565b610aa28461097d565b81016020851015610ab1578190505b610ac5610abd8561097d565b830182610a64565b50505b505050565b600082821c905092915050565b6000610aeb60001984600802610acd565b1980831691505092915050565b6000610b048383610ada565b9150826002028217905092915050565b610b1d82610551565b67ffffffffffffffff811115610b3657610b35610939565b5b610b40825461089c565b610b4b828285610a87565b600060209050601f831160018114610b7e5760008415610b6c578287015190505b610b768582610af8565b865550610bde565b601f198416610b8c86610968565b60005b82811015610bb457848901518255600182019150602085019450602081019050610b8f565b86831015610bd15784890151610bcd601f891682610ada565b8355505b6001600288020188555050505b505050505050565b82818337600083830152505050565b6000610c01838561055c565b9350610c0e838584610be6565b610c1783610597565b840190509392505050565b6000604082019050610c376000830186610542565b8181036020830152610c4a818486610bf5565b905094935050505056fea264697066735822122083fbfd70e2f330fa9fb32d50151246226865a28e962ebd62a5807e19106b03b064736f6c63430008140033",
  "linkReferences": {},
  "deployedLinkReferences": {}
}