{
  "_format": "hh-sol-artifact-1",
  "contractName": "StakingOracle",
  "sourceName": "contracts/StakingOracle.sol",
  "abi": [
    {
      "inputs": [
        {
          "internalType": "address",
          "name": "_market",
          "type": "address"
        }
      ],
      "stateMutability": "nonpayable",
      "type": "constructor"
    },
    {
      "anonymous": false,
      "inputs": [
        {
          "indexed": true,
          "internalType": "uint256",
          "name": "marketId",
          "type": "uint256"
        },
        {
          "indexed": false,
          "internalType": "bool",
          "name": "outcomeYes",
          "type": "bool"
        },
        {
          "indexed": false,
          "internalType": "uint256",
          "name": "totalYes",
          "type": "uint256"
        },
        {
          "indexed": false,
          "internalType": "uint256",
          "name": "totalNo",
          "type": "uint256"
        }
      ],
      "name": "OracleResolved",
      "type": "event"
    },
    {
      "anonymous": false,
      "inputs": [
        {
          "indexed": true,
          "internalType": "uint256",
          "name": "marketId",
          "type": "uint256"
        },
        {
          "indexed": false,
          "internalType": "uint256",
          "name": "deadline",
          "type": "uint256"
        }
      ],
      "name": "ResolutionRequested",
      "type": "event"
    },
    {
      "anonymous": false,
      "inputs": [
        {
          "indexed": true,
          "internalType": "uint256",
          "name": "marketId",
          "type": "uint256"
        },
        {
          "indexed": true,
          "internalType": "address",
          "name": "voter",
          "type": "address"
        },
        {
          "indexed": false,
          "internalType": "uint256",
          "name": "amount",
          "type": "uint256"
        }
      ],
      "name": "RewardClaimed",
      "type": "event"
    },
    {
      "anonymous": false,
      "inputs": [
        {
          "indexed": true,
          "internalType": "uint256",
          "name": "marketId",
          "type": "uint256"
        },
        {
          "indexed": true,
          "internalType": "address",
          "name": "voter",
          "type": "address"
        },
        {
          "indexed": false,
          "internalType": "bool",
          "name": "supportYes",
          "type": "bool"
        },
        {
          "indexed": false,
          "internalType": "uint256",
          "name": "amount",
          "type": "uint256"
        }
      ],
      "name": "VoteSubmitted",
      "type": "event"
    },
    {
      "inputs": [
        {
          "internalType": "uint256",
          "name": "marketId",
          "type": "uint256"
        }
      ],
      "name": "claimReward",
      "outputs": [],
      "stateMutability": "nonpayable",
      "type": "function"
    },
    {
      "inputs": [],
      "name": "market",
      "outputs": [
        {
          "internalType": "contract IMarket",
          "name": "",
          "type": "address"
        }
      ],
      "stateMutability": "view",
      "type": "function"
    },
    {
      "inputs": [
        {
          "internalType": "address",
          "name": "",
          "type": "address"
        }
      ],
      "name": "reputation",
      "outputs": [
        {
          "internalType": "uint256",
          "name": "",
          "type": "uint256"
        }
      ],
      "stateMutability": "view",
      "type": "function"
    },
    {
      "inputs": [
        {
          "internalType": "uint256",
          "name": "marketId",
          "type": "uint256"
        }
      ],
      "name": "requestResolution",
      "outputs": [],
      "stateMutability": "nonpayable",
      "type": "function"
    },
    {
      "inputs": [
        {
          "internalType": "uint256",
          "name": "",
          "type": "uint256"
        }
      ],
      "name": "requests",
      "outputs": [
        {
          "internalType": "uint256",
          "name": "startTime",
          "type": "uint256"
        },
        {
          "internalType": "uint256",
          "name": "votingDeadline",
          "type": "uint256"
        },
        {
          "internalType": "uint256",
          "name": "totalStakeYes",
          "type": "uint256"
        },
        {
          "internalType": "uint256",
          "name": "totalStakeNo",
          "type": "uint256"
        },
        {
          "internalType": "bool",
          "name": "resolved",
          "type": "bool"
        },
        {
          "internalType": "bool",
          "name": "outcomeYes",
          "type": "bool"
        },
        {
          "internalType": "bool",
          "name": "exists",
          "type": "bool"
        }
      ],
      "stateMutability": "view",
      "type": "function"
    },
    {
      "inputs": [
        {
          "internalType": "uint256",
          "name": "marketId",
          "type": "uint256"
        }
      ],
      "name": "resolve",
      "outputs": [],
      "stateMutability": "nonpayable",
      "type": "function"
    },
    {
      "inputs": [
        {
          "internalType": "uint256",
          "name": "marketId",
          "type": "uint256"
        },
        {
          "internalType": "bool",
          "name": "supportYes",
          "type": "bool"
        }
      ],
      "name": "vote",
      "outputs": [],
      "stateMutability": "payable",
      "type": "function"
    },
    {
      "inputs": [
        {
          "internalType": "uint256",
          "name": "",
          "type": "uint256"
        },
        {
          "internalType": "address",
          "name": "",
          "type": "address"
        }
      ],
      "name": "votes",
      "outputs": [
        {
          "internalType": "uint256",
          "name": "amount",
          "type": "uint256"
        },
        {
          "internalType": "bool",
          "name": "supportYes",
          "type": "bool"
        },
        {
          "internalType": "bool",
          "name": "claimed",
          "type": "bool"
        }
      ],
      "stateMutability": "view",
      "type": "function"
    },
    {
      "inputs": [],
      "name": "votingDuration",
      "outputs": [
        {
          "internalType": "uint256",
          "name": "",
          "type": "uint256"
        }
      ],
      "stateMutability": "view",
      "type": "function"
    }
  ],
  "bytecode": "0x60803461007a57601f610b4a38819003918201601f19168301916001600160401b0383118484101761007f5780849260209460405283398101031261007a57516001600160a01b0381169081900361007a57610e10600155600080546001600160a01b031916919091179055604051610ab490816100968239f35b600080fd5b634e487b7160e01b600052604160045260246000fdfe6080604081815260048036101561001557600080fd5b600092833560e01c908163132002fc14610a3f57508063416a4f19146108c55780634f896d4f146106d957806380f55605146106b157806381d12c581461063f578063ae169a501461036b578063b9f794511461032e578063c9d27afe146100f35763d23254b41461008657600080fd5b346100ef57816003193601126100ef576024356001600160a01b03811691908290036100ea57606093839135815260036020522090600052602052806000209060ff6001835493015482519384528181161515602085015260081c16151590820152f35b600080fd5b8280fd5b5082908260031936011261032a57803560249384358015159384820361032657838652602091600283528387209160ff8184015460101c16156102e45760018301544210156102b257341561027f5785885260038452848820336000528452846000205461024d5784519860608a01918a831067ffffffffffffffff84111761023a5750507fd5fbdad2a4bb43b8c8ee1becc8085bb21684241593a04bf8795a83f56436b43d959697986101ff918652348152896101e86001878401938c855289808201948086528d815260038b522033600052895289600020905181550192511515839060ff801983541691151516179055565b51815461ff00191690151560081b61ff0016179055565b1561022557600201610212348254610a5b565b90555b815194855234908501523393a380f35b600301610233348254610a5b565b9055610215565b604190634e487b7160e01b600052526000fd5b845162461bcd60e51b8152908101849052600d818a01526c105b1c9958591e481d9bdd1959609a1b6044820152606490fd5b845162461bcd60e51b8152908101849052600e818a01526d14dd185ad9481c995c5d5a5c995960921b6044820152606490fd5b845162461bcd60e51b8152908101849052600d818a01526c159bdd1a5b99c818db1bdcd959609a1b6044820152606490fd5b845162461bcd60e51b81529081018490526018818a01527f5265736f6c7574696f6e206e6f742072657175657374656400000000000000006044820152606490fd5b8580fd5b5080fd5b5091346103685760203660031901126103685782356001600160a01b03811691908290036100ea5760209383928252845220549051908152f35b80fd5b5090346100ef5760208060031936011261063b578235918285526002825280852093808501549460ff86161561060a5784875260038452828720336000528452826000209081549182156105dd576001019182549760ff8960081c166105a85760ff9060081c1680151560ff8a161515036105715715610563576103ff6002830154925b6003600282015491015490610a5b565b82159081610556578083029283040361054357610530570495610100905b61ff0019161790553386528083528186208054906001820180921161051d575584610471575b50907f24b5efa61dd1cfc659205a97fb8ed868f3cb8c81922bab2b96423e5de1de2cb791519384523393a380f35b8580808088335af13d156105185767ffffffffffffffff3d81811161050557845191601f8201601f19908116603f01168301908111838210176104f0578552815287853d92013e5b6104435782606492519162461bcd60e51b8352820152600f60248201526e151c985b9cd9995c8819985a5b1959608a1b6044820152fd5b604185634e487b7160e01b6000525260246000fd5b634e487b7160e01b895260418452602489fd5b6104b9565b634e487b7160e01b885260118352602488fd5b634e487b7160e01b895260128452602489fd5b634e487b7160e01b8a526011855260248afd5b505061010091509661041d565b6103ff6003830154926103ef565b855162461bcd60e51b81528086018890526011602482015270566f74656420696e636f72726563746c7960781b6044820152606490fd5b855162461bcd60e51b8152808601889052600f60248201526e105b1c9958591e4818db185a5b5959608a1b6044820152606490fd5b845162461bcd60e51b815280850187905260076024820152664e6f20766f746560c81b6044820152606490fd5b5082606492519162461bcd60e51b8352820152600c60248201526b139bdd081c995cdbdb1d995960a21b6044820152fd5b8380fd5b5090346100ef5760203660031901126100ef578060ff9160e0948435815260026020522080549360018201549260028301549160038401549301549381519687526020870152850152606084015281811615156080840152818160081c16151560a084015260101c16151560c0820152f35b50503461032a578160031936011261032a57905490516001600160a01b039091168152602090f35b50346100ef5760208060031936011261063b578135928385526002825280852083810193845460ff8160101c16156108925760ff1661085c576001820154421061082857866002830191600383549401938454109661074b88829061ff00825491151560081b169061ff001916179055565b805460ff1916600117905581546001600160a01b0316803b156100ef578290604487518095819363456f6a1560e01b83528d878401528c60248401525af1801561081e576107ce575b50505490548251948552928401528201527f09b1acfa1df6412c1e28798791091b690fa3f291eb47073454626675e7d0fce590606090a280f35b67ffffffffffffffff829993991161080b5750835295817f09b1acfa1df6412c1e28798791091b690fa3f291eb47073454626675e7d0fce5610794565b634e487b7160e01b835260419052602482fd5b85513d8b823e3d90fd5b825162461bcd60e51b8152908101849052600e60248201526d566f74696e67206f6e676f696e6760901b6044820152606490fd5b825162461bcd60e51b8152908101849052601060248201526f105b1c9958591e481c995cdbdb1d995960821b6044820152606490fd5b835162461bcd60e51b8152808301869052600d60248201526c139bdd081c995c5d595cdd1959609a1b6044820152606490fd5b5091903461032a576020806003193601126100ef578335918284526002825260ff85828620015460101c16610a085761090060015442610a5b565b81519060e0820182811067ffffffffffffffff8211176109f557856109b188997f5ad836d211b61ede522afd8ad8002af2302833bb6de0fe2aac370f49634d28b4989995886001966109c8968a52428352818301908152898301908982528a8a60026060870195828752608088019d8e5260a088019a838c5260c089019d8e5283525220935184555160018401555160028301555160038201550194511515859060ff801983541691151516179055565b51835461ff00191690151560081b61ff0016178355565b51815462ff0000191690151560101b62ff0000161790556001546109ec9042610a5b565b9051908152a280f35b634e487b7160e01b875260418852602487fd5b5162461bcd60e51b8152808501919091526011602482015270105b1c9958591e481c995c5d595cdd1959607a1b6044820152606490fd5b84903461032a578160031936011261032a576020906001548152f35b91908201809211610a6857565b634e487b7160e01b600052601160045260246000fdfea2646970667358221220ea4a7b080f735cf36fc21f72ac86626d8a5a3fbd05b7a16c8934d214d8f29d9264736f6c63430008140033",
  "linkReferences": {},
  "deployedLinkReferences": {}
}