{
  "_format": "hh-sol-artifact-1",
  "contractName": "Market",
  "sourceName": "contracts/Market.sol",
  "abi": [
    {
      "inputs": [],
      "stateMutability": "nonpayable",
      "type": "constructor"
    },
    {
      "anonymous": false,
      "inputs": [
        {
          "indexed": true,
          "internalType": "uint256",
          "name": "marketId",
          "type": "uint256"
        },
        {
          "indexed": false,
          "internalType": "bool",
          "name": "proposedOutcomeYes",
          "type": "bool"
        },
        {
          "indexed": true,
          "internalType": "address",
          "name": "challenger",
          "type": "address"
        },
        {
          "indexed": false,
          "internalType": "uint256",
          "name": "amount",
          "type": "uint256"
        }
      ],
      "name": "Challenged",
      "type": "event"
    },
    {
      "anonymous": false,
      "inputs": [
        {
          "indexed": true,
          "internalType": "uint256",
          "name": "marketId",
          "type": "uint256"
        },
        {
          "indexed": true,
          "internalType": "address",
          "name": "creator",
          "type": "address"
        },
        {
          "indexed": false,
          "internalType": "uint256",
          "name": "amount",
          "type": "uint256"
        }
      ],
      "name": "CommissionPaid",
      "type": "event"
    },
    {
      "anonymous": false,
      "inputs": [
        {
          "indexed": true,
          "internalType": "uint256",
          "name": "marketId",
          "type": "uint256"
        }
      ],
      "name": "MarketActive",
      "type": "event"
    },
    {
      "anonymous": false,
      "inputs": [
        {
          "indexed": true,
          "internalType": "uint256",
          "name": "marketId",
          "type": "uint256"
        },
        {
          "indexed": false,
          "internalType": "uint256",
          "name": "betAId",
          "type": "uint256"
        },
        {
          "indexed": false,
          "internalType": "uint256",
          "name": "betBId",
          "type": "uint256"
        },
        {
          "indexed": false,
          "internalType": "string",
          "name": "category",
          "type": "string"
        },
        {
          "indexed": false,
          "internalType": "string",
          "name": "currency",
          "type": "string"
        },
        {
          "indexed": false,
          "internalType": "uint256",
          "name": "stake",
          "type": "uint256"
        },
        {
          "indexed": false,
          "internalType": "address",
          "name": "creator",
          "type": "address"
        }
      ],
      "name": "MarketCreated",
      "type": "event"
    },
    {
      "anonymous": false,
      "inputs": [
        {
          "indexed": true,
          "internalType": "uint256",
          "name": "marketId",
          "type": "uint256"
        },
        {
          "indexed": false,
          "internalType": "enum Market.State",
          "name": "state",
          "type": "uint8"
        }
      ],
      "name": "MarketStateChanged",
      "type": "event"
    },
    {
      "anonymous": false,
      "inputs": [
        {
          "indexed": true,
          "internalType": "uint256",
          "name": "marketId",
          "type": "uint256"
        },
        {
          "indexed": false,
          "internalType": "bool",
          "name": "outcomeYes",
          "type": "bool"
        },
        {
          "indexed": false,
          "internalType": "uint256",
          "name": "deadline",
          "type": "uint256"
        }
      ],
      "name": "ProvisionalSet",
      "type": "event"
    },
    {
      "anonymous": false,
      "inputs": [
        {
          "indexed": true,
          "internalType": "uint256",
          "name": "marketId",
          "type": "uint256"
        },
        {
          "indexed": false,
          "internalType": "bool",
          "name": "finalOutcomeYes",
          "type": "bool"
        }
      ],
      "name": "Resolved",
      "type": "event"
    },
    {
      "anonymous": false,
      "inputs": [
        {
          "indexed": true,
          "internalType": "uint256",
          "name": "marketId",
          "type": "uint256"
        },
        {
          "indexed": true,
          "internalType": "address",
          "name": "user",
          "type": "address"
        },
        {
          "indexed": false,
          "internalType": "uint256",
          "name": "amount",
          "type": "uint256"
        }
      ],
      "name": "Withdrawn",
      "type": "event"
    },
    {
      "inputs": [
        {
          "internalType": "uint256",
          "name": "marketId",
          "type": "uint256"
        },
        {
          "internalType": "bool",
          "name": "proposedOutcomeYes",
          "type": "bool"
        }
      ],
      "name": "challengeOutcome",
      "outputs": [],
      "stateMutability": "payable",
      "type": "function"
    },
    {
      "inputs": [],
      "name": "challengeWindowSeconds",
      "outputs": [
        {
          "internalType": "uint256",
          "name": "",
          "type": "uint256"
        }
      ],
      "stateMutability": "view",
      "type": "function"
    },
    {
      "inputs": [
        {
          "internalType": "uint256",
          "name": "marketId",
          "type": "uint256"
        }
      ],
      "name": "checkExpiration",
      "outputs": [],
      "stateMutability": "nonpayable",
      "type": "function"
    },
    {
      "inputs": [
        {
          "internalType": "uint256",
          "name": "",
          "type": "uint256"
        },
        {
          "internalType": "address",
          "name": "",
          "type": "address"
        }
      ],
      "name": "claimed",
      "outputs": [
        {
          "internalType": "bool",
          "name": "",
          "type": "bool"
        }
      ],
      "stateMutability": "view",
      "type": "function"
    },
    {
      "inputs": [
        {
          "internalType": "uint256",
          "name": "marketId",
          "type": "uint256"
        }
      ],
      "name": "closeMarket",
      "outputs": [],
      "stateMutability": "nonpayable",
      "type": "function"
    },
    {
      "inputs": [
        {
          "internalType": "uint256",
          "name": "betAId",
          "type": "uint256"
        },
        {
          "internalType": "uint256",
          "name": "betBId",
          "type": "uint256"
        },
        {
          "internalType": "string",
          "name": "category",
          "type": "string"
        },
        {
          "internalType": "string",
          "name": "currency",
          "type": "string"
        },
        {
          "internalType": "uint256",
          "name": "stake",
          "type": "uint256"
        },
        {
          "internalType": "uint256",
          "name": "expiration",
          "type": "uint256"
        },
        {
          "internalType": "bool",
          "name": "isYesSide",
          "type": "bool"
        }
      ],
      "name": "createPair",
      "outputs": [
        {
          "internalType": "uint256",
          "name": "",
          "type": "uint256"
        }
      ],
      "stateMutability": "payable",
      "type": "function"
    },
    {
      "inputs": [
        {
          "internalType": "uint256",
          "name": "",
          "type": "uint256"
        },
        {
          "internalType": "address",
          "name": "",
          "type": "address"
        }
      ],
      "name": "hasParticipated",
      "outputs": [
        {
          "internalType": "bool",
          "name": "",
          "type": "bool"
        }
      ],
      "stateMutability": "view",
      "type": "function"
    },
    {
      "inputs": [
        {
          "internalType": "uint256",
          "name": "",
          "type": "uint256"
        }
      ],
      "name": "markets",
      "outputs": [
        {
          "components": [
            {
              "internalType": "uint256",
              "name": "betAId",
              "type": "uint256"
            },
            {
              "internalType": "uint256",
              "name": "betBId",
              "type": "uint256"
            },
            {
              "internalType": "string",
              "name": "category",
              "type": "string"
            },
            {
              "internalType": "string",
              "name": "currency",
              "type": "string"
            },
            {
              "internalType": "uint256",
              "name": "stake",
              "type": "uint256"
            }
          ],
          "internalType": "struct Market.Pair",
          "name": "pair",
          "type": "tuple"
        },
        {
          "internalType": "enum Market.State",
          "name": "state",
          "type": "uint8"
        },
        {
          "internalType": "bool",
          "name": "provisionalOutcomeYes",
          "type": "bool"
        },
        {
          "internalType": "bool",
          "name": "finalOutcomeYes",
          "type": "bool"
        },
        {
          "internalType": "uint256",
          "name": "totalYes",
          "type": "uint256"
        },
        {
          "internalType": "uint256",
          "name": "totalNo",
          "type": "uint256"
        },
        {
          "internalType": "uint256",
          "name": "challengeDeadline",
          "type": "uint256"
        },
        {
          "internalType": "uint256",
          "name": "challengePot",
          "type": "uint256"
        },
        {
          "internalType": "bool",
          "name": "finalized",
          "type": "bool"
        },
        {
          "internalType": "address",
          "name": "creator",
          "type": "address"
        },
        {
          "internalType": "uint256",
          "name": "participantCount",
          "type": "uint256"
        },
        {
          "internalType": "uint256",
          "name": "commission",
          "type": "uint256"
        },
        {
          "internalType": "uint256",
          "name": "expiration",
          "type": "uint256"
        }
      ],
      "stateMutability": "view",
      "type": "function"
    },
    {
      "inputs": [
        {
          "internalType": "uint256",
          "name": "marketId",
          "type": "uint256"
        }
      ],
      "name": "matchMarket",
      "outputs": [],
      "stateMutability": "payable",
      "type": "function"
    },
    {
      "inputs": [],
      "name": "minChallengeStake",
      "outputs": [
        {
          "internalType": "uint256",
          "name": "",
          "type": "uint256"
        }
      ],
      "stateMutability": "view",
      "type": "function"
    },
    {
      "inputs": [],
      "name": "nextMarketId",
      "outputs": [
        {
          "internalType": "uint256",
          "name": "",
          "type": "uint256"
        }
      ],
      "stateMutability": "view",
      "type": "function"
    },
    {
      "inputs": [
        {
          "internalType": "uint256",
          "name": "",
          "type": "uint256"
        },
        {
          "internalType": "address",
          "name": "",
          "type": "address"
        }
      ],
      "name": "noPositions",
      "outputs": [
        {
          "internalType": "uint256",
          "name": "",
          "type": "uint256"
        }
      ],
      "stateMutability": "view",
      "type": "function"
    },
    {
      "inputs": [],
      "name": "oracle",
      "outputs": [
        {
          "internalType": "address",
          "name": "",
          "type": "address"
        }
      ],
      "stateMutability": "view",
      "type": "function"
    },
    {
      "inputs": [],
      "name": "owner",
      "outputs": [
        {
          "internalType": "address",
          "name": "",
          "type": "address"
        }
      ],
      "stateMutability": "view",
      "type": "function"
    },
    {
      "inputs": [
        {
          "internalType": "uint256",
          "name": "marketId",
          "type": "uint256"
        },
        {
          "internalType": "bool",
          "name": "yes",
          "type": "bool"
        }
      ],
      "name": "placeBet",
      "outputs": [],
      "stateMutability": "payable",
      "type": "function"
    },
    {
      "inputs": [
        {
          "internalType": "uint256",
          "name": "marketId",
          "type": "uint256"
        },
        {
          "internalType": "bool",
          "name": "finalOutcomeYes",
          "type": "bool"
        }
      ],
      "name": "resolveOutcome",
      "outputs": [],
      "stateMutability": "nonpayable",
      "type": "function"
    },
    {
      "inputs": [
        {
          "internalType": "uint256",
          "name": "windowSeconds",
          "type": "uint256"
        },
        {
          "internalType": "uint256",
          "name": "minStake",
          "type": "uint256"
        }
      ],
      "name": "setChallengeParams",
      "outputs": [],
      "stateMutability": "nonpayable",
      "type": "function"
    },
    {
      "inputs": [
        {
          "internalType": "address",
          "name": "o",
          "type": "address"
        }
      ],
      "name": "setOracle",
      "outputs": [],
      "stateMutability": "nonpayable",
      "type": "function"
    },
    {
      "inputs": [
        {
          "internalType": "uint256",
          "name": "marketId",
          "type": "uint256"
        },
        {
          "internalType": "bool",
          "name": "outcomeYes",
          "type": "bool"
        }
      ],
      "name": "setProvisionalOutcome",
      "outputs": [],
      "stateMutability": "nonpayable",
      "type": "function"
    },
    {
      "inputs": [
        {
          "internalType": "uint256",
          "name": "marketId",
          "type": "uint256"
        }
      ],
      "name": "setProvisionalOutcomeDefault",
      "outputs": [],
      "stateMutability": "nonpayable",
      "type": "function"
    },
    {
      "inputs": [
        {
          "internalType": "uint256",
          "name": "marketId",
          "type": "uint256"
        }
      ],
      "name": "withdraw",
      "outputs": [],
      "stateMutability": "nonpayable",
      "type": "function"
    },
    {
      "inputs": [
        {
          "internalType": "uint256",
          "name": "",
          "type": "uint256"
        },
        {
          "internalType": "address",
          "name": "",
          "type": "address"
        }
      ],
      "name": "yesPositions",
      "outputs": [
        {
          "internalType": "uint256",
          "name": "",
          "type": "uint256"
        }
      ],
      "stateMutability": "view",
      "type": "function"
    }
  ],
  "bytecode": "0x6080806040523461003a5762015180600355662386f26fc10000600455600080546001600160a01b03191633179055611ef490816100408239f35b600080fdfe608080604052600436101561001357600080fd5b60003560e01c908163120aa87714611ace575080631986aabd14611ab05780632abd7803146118de5780632e1a7d4d14611651578063406ef2ef14611633578063456f6a151461153857806358f319b2146111c257806366e47cc3146110ca578063723931ca146110205780637adbf97314610fcd5780637dc0d1d014610fa45780638da5cb5b14610f7b5780639ed9c74d14610dbe578063a34398a214610d71578063ae41809514610cb9578063b1283e7714610b4b578063b5615dee14610912578063cc3bdeee146108ca578063d33dc7b4146108ac578063da524e1014610864578063eae85024146107b45763ed5a52f61461011157600080fd5b60e03660031901126107af576044803567ffffffffffffffff81116107af5761013e903690600401611cb5565b906064803567ffffffffffffffff81116107af57610160903690600401611cb5565b9160c435151560c435036107af57600160055461018060ff821615611d34565b60ff1916176005556004351515806107a4575b156107715783518015159081610765575b50156107315782518015159081610725575b50156106f157608435156106c0576084353403610686574260a43511156106505750506101e4600254611d6c565b90816002556040516101f581611b75565b600435815260243560208201526040810190848252826060820152608435608082015283600052600660205260406000209181518355602082015160018401555180519067ffffffffffffffff821161056a5781906102576002860154611b3b565b601f81116105fd575b50602090601f831160011461058b57600092610580575b50508160011b916000199060031b1c19161760028301555b606081015180519067ffffffffffffffff821161056a576102b36003850154611b3b565b601f8111610523575b509160209693918695938890601f831160011461048357608061040b94846103fd98957fc06eff8f60beb27586bef537008582bb227e20e33c8b850ea5265d58a627d6a89a9895600495600092610478575b50508160011b916000199060031b1c19161760038501555b01519101556000868152600689526040902060058101805460ff19169055600a81018054610100600160a81b0319163360081b610100600160a81b031617905560a435600d9091015560c43515610447578560005260078852604060002033600052885260843560406000205585600052600688526084356006604060002001555b85600052600688526001600b60406000200155600a885260406000203360005288526040600020600160ff1982541617905560405193849360043585526024358a86015260c0604086015260c0850190611c59565b908382036060850152611c59565b60843560808301523360a08301520390a280600080516020611e9f8339815191528360405160008152a260ff1960055416600555604051908152f35b60088852604060002033600052885260843560406000205585600052600688526084356007604060002001556103a8565b01519050388061030e565b9060038501600052896000209160005b601f1985168110610509575061040b946001857fc06eff8f60beb27586bef537008582bb227e20e33c8b850ea5265d58a627d6a89a98956004956080956103fd9c99601f198116106104f0575b505050811b016003850155610326565b015160001960f88460031b161c191690553880806104e0565b8183015184558a9950600190930192918b01918b01610493565b600385016000526020600020601f840160051c810160208510610563575b601f830160051c820181106105575750506102bc565b60008155600101610541565b5080610541565b634e487b7160e01b600052604160045260246000fd5b015190503880610277565b9250600285016000526020600020906000935b601f19841685106105e2576001945083601f198116106105c9575b505050811b01600283015561028f565b015160001960f88460031b161c191690553880806105b9565b8181015183556020948501946001909301929091019061059e565b909150600285016000526020600020601f840160051c810160208510610649575b90849392915b601f830160051c8201811061063a575050610260565b60008155859450600101610624565b508061061e565b7124b73b30b634b21032bc3834b930ba34b7b760711b6040519162461bcd60e51b83526020600484015260126024840152820152fd5b75125b98dbdc9c9958dd081cdd185ad948185b5bdd5b9d60521b6040519162461bcd60e51b83526020600484015260166024840152820152fd5b6c496e76616c6964207374616b6560981b6040519162461bcd60e51b835260206004840152600d6024840152820152fd5b6f496e76616c69642063757272656e637960801b6040519162461bcd60e51b83526020600484015260106024840152820152fd5b601091501115386101b6565b6f496e76616c69642063617465676f727960801b6040519162461bcd60e51b83526020600484015260106024840152820152fd5b602091501115386101a4565b6e496e76616c6964206265742069647360881b6040519162461bcd60e51b835260206004840152600f6024840152820152fd5b506024351515610193565b600080fd5b346107af5760403660031901126107af57600435602435906107e160018060a01b03600054163314611cfc565b610e10811061082c5781156107f857600355600455005b60405162461bcd60e51b815260206004820152600c60248201526b06d696e5374616b65203e20360a41b6044820152606490fd5b60405162461bcd60e51b815260206004820152601060248201526f1dda5b991bddc81d1bdbc81cda1bdc9d60821b6044820152606490fd5b346107af5760403660031901126107af5761087d611b16565b600435600052600760205260406000209060018060a01b03166000526020526020604060002054604051908152f35b346107af5760003660031901126107af576020600454604051908152f35b346107af5760403660031901126107af576108e3611b16565b600435600052600860205260406000209060018060a01b03166000526020526020604060002054604051908152f35b6020806003193601126107af576004356005549161093360ff841615611d34565b600160ff198094161760055581600052600681526040600020600581019060ff8254166006811015610b3557610b025760048101543403610ac457600a8101543360089190911c6001600160a01b031614610a8857600681018054600080516020611e9f833981519152949392919015610a66575084600052600883526040600020336000528352346040600020553460078201555b84600052600a8352604060002033600052835260ff6040600020541615610a2f575b50600185825416179055604051837f2a9615e57b2aba23102f9e7ae5d5cff829603ca77618e713b9a80b073cda0961600080a260018152a260055416600555600080f35b600b9085600052600a84526040600020336000528452604060002060018882541617905501610a5e8154611d6c565b9055856109eb565b85600052600784526040600020336000528452346040600020553490556109c9565b60405162461bcd60e51b8152600481018490526014602482015273086e4cac2e8dee440c6c2dcdcdee840dac2e8c6d60631b6044820152606490fd5b60405162461bcd60e51b8152600481018490526016602482015275125b98dbdc9c9958dd081b585d18da08185b5bdd5b9d60521b6044820152606490fd5b60405162461bcd60e51b815260048101849052600b60248201526a4e6f742070656e64696e6760a81b6044820152606490fd5b634e487b7160e01b600052602160045260246000fd5b346107af5760203660031901126107af576004356000526006602052604060002060405190610b7982611b75565b8054825260018101546020830190815291610b9660028301611bb3565b60408201908152610ba960038401611bb3565b926060830193845260048101546080840152600581015493600682015460078301546008840154600985015491600a86015493600b87015495600c88015497600d015498604051809d6101a08083528d519083015251906101c00152516101e08d0160a090526102408d01610c1d91611c59565b90518c820361019f19016102008e0152610c379190611c59565b98608001516102208c015260ff8a166006811015610b35578b9a60ff9160208d0152818160081c16151560408d015260101c16151560608b015260808a015260a089015260c088015260e087015260ff8116151561010087015260018060a01b039060081c166101208601526101408501526101608401526101808301520390f35b346107af5760203660031901126107af57600435610ce260018060a01b03600054163314611cfc565b80600052600660205260056040600020610d0160048201541515611d7b565b01805460ff81166006811015610b3557600103610d3d5760029060ff1916179055600080516020611e9f833981519152602060405160028152a2005b60405162461bcd60e51b815260206004820152600c60248201526b4d757374206265206c69766560a01b6044820152606490fd5b346107af5760403660031901126107af57610d8a611b16565b600435600052600a60205260406000209060018060a01b0316600052602052602060ff604060002054166040519015158152f35b60403660031901126107af57600435610dd5611b2c565b9060055491610de760ff841615611d34565b600160ff198094161760055581600052602060068152604060002091610e1260048401541515611d7b565b60ff6005840154166006811015610b35576001610e2f9114611dba565b3415610f4957600d830154421015610f1a5783600052600a8252604060002033600052825260ff6040600020541615610ee4575b15610eaa576006926000526007815260406000209033600052526040600020610e8d348254611df1565b905501610e9b348254611df1565b90555b60055416600555600080f35b6007926000526008815260406000209033600052526040600020610ecf348254611df1565b905501610edd348254611df1565b9055610e9e565b83600052600a825260406000203360005282526040600020600186825416179055600b8301610f138154611d6c565b9055610e63565b60405162461bcd60e51b8152600481018390526007602482015266115e1c1a5c995960ca1b6044820152606490fd5b60405162461bcd60e51b815260048101839052600a6024820152690616d6f756e74203e20360b41b6044820152606490fd5b346107af5760003660031901126107af576000546040516001600160a01b039091168152602090f35b346107af5760003660031901126107af576001546040516001600160a01b039091168152602090f35b346107af5760203660031901126107af576004356001600160a01b03818116918290036107af5761100390600054163314611cfc565b6bffffffffffffffffffffffff60a01b6001541617600155600080f35b346107af5760203660031901126107af576004358060005260066020526040600020600581019081549060ff8216906006821015610b35576110666001600d9314611dba565b015442106110935760029060ff1916179055600080516020611e9f833981519152602060405160028152a2005b60405162461bcd60e51b815260206004820152600f60248201526e139bdd08195e1c1a5c9959081e595d608a1b6044820152606490fd5b346107af5760203660031901126107af576004356110f360018060a01b03600054163314611cfc565b8060005260066020526040600020600581019060ff8254166006811015610b355783926111a460087f5dfa492edf776bd526302890c698aed537e30b0e025f38033a7158004ccad90d9461114b600260ff9614611dfe565b60068101546007820154855461ff00191691101560081b61ff0016178455600385198554161780945561118060035442611df1565b918291015560405193849360081c1683602090939291936040810194151581520152565b0390a2600080516020611e9f833981519152602060405160038152a2005b346107af5760403660031901126107af576004356111de611b2c565b6000546001600160a01b03919082163314801561152b575b156114f557826000526020906006825260406000206005810180549260ff8416600681101580610b355760038214809281156114e6575b50156114b157610b355761146a575b600a83019182549160ff8316611439579160019160058a9796959415159662ff00008860101b169062ff00ff19161717905560ff1916179586825561128a6006840154600785015490611df1565b918215158061142b575b6112df575b85600080516020611e9f83398151915288827fe940c2f4a2e1dda6ea582b576e35520a2ec6b80e436c26962c1150ddd7d07993828a604051908152a260405160058152a2005b9091929450600b850154600a810290808204600a14901517156114155760640194856064116114155761271061132687600c968c99916103e880911161140d575b50611e3b565b04938491015582611338575b80611299565b919350919394600080808686829560081c165af1611354611e6e565b50156113c8579380938693847fec530ab710fdaa2b5968fe15f486992441a96f643219cf0150904aa5b9eedf82847fe940c2f4a2e1dda6ea582b576e35520a2ec6b80e436c26962c1150ddd7d0799396600080516020611e9f8339815191529a5460081c1693604051908152a39187611332565b60405162461bcd60e51b815260048101869052601a60248201527f436f6d6d697373696f6e207472616e73666572206661696c65640000000000006044820152606490fd5b91508d611320565b634e487b7160e01b600052601160045260246000fd5b50818860081c161515611294565b60405162461bcd60e51b8152600481018890526009602482015268119a5b985b1a5e995960ba1b6044820152606490fd5b6008830154421161123c5760405162461bcd60e51b815260048101869052601460248201527321b430b63632b733b29039ba34b6361037b832b760611b6044820152606490fd5b60405162461bcd60e51b815260048101889052600d60248201526c496e76616c696420737461746560981b6044820152606490fd5b9150506004600091148a61122d565b60405162461bcd60e51b815260206004820152600e60248201526d139bdd08185d5d1a1bdc9a5e995960921b6044820152606490fd5b50816001541633146111f6565b346107af5760403660031901126107af57600435611554611b2c565b6001546001600160a01b0316330361160057816000526006602052604060002090600582019060ff825416906006821015610b355784937f5dfa492edf776bd526302890c698aed537e30b0e025f38033a7158004ccad90d936115bb600260089514611dfe565b805461ffff191661ff0084151560081b16176003908117909155546115e09042611df1565b9201829055604080519115158252602082019290925290819081016111a4565b60405162461bcd60e51b815260206004820152600b60248201526a4f6e6c79206f7261636c6560a81b6044820152606490fd5b346107af5760003660031901126107af576020600254604051908152f35b346107af576020806003193601126107af5760043560059182549161167960ff841615611d34565b600160ff198094161784558060005260068252604060002091848301549260ff84166006811015610b35578614806118d0575b1561189c578260005260098252604060002033600052825260ff6040600020541661186557826000526007825260406000203360005282526040600020548360005260088352604060002033600052835260406000205490600683015492600781015490600c61171c8387611df1565b91015480821061185b57810390811161141557925b60009760101c60ff161561181f57505082151580611816575b6117f8575b5050505b816000526009815260406000203360005281526040600020600185825416179055826117ac575b7fcf7d23a3cbe4e8b36ff82fd1b05b1b17373dc7804b4ebbd6e2356716ef202372906040519384523393a38154169055005b600080808086335af16117bd611e6e565b5061177a576064906040519062461bcd60e51b82526004820152600f60248201526e151c985b9cd9995c8819985a5b1959608a1b6044820152fd5b61180d9395509061180891611e3b565b611e4e565b9185808061174f565b5080151561174a565b9150809350151580611852575b611839575b505050611753565b6118499395509061180891611e3b565b91858080611831565b5080151561182c565b5050600092611731565b60405162461bcd60e51b815260048101839052600f60248201526e105b1c9958591e4818db185a5b5959608a1b6044820152606490fd5b60405162461bcd60e51b815260048101839052600c60248201526b139bdd081c995cdbdb1d995960a21b6044820152606490fd5b5060ff600a820154166116ac565b60403660031901126107af576004356118f5611b2c565b906005549061190760ff831615611d34565b600160ff1980931617600555806000526020600681526040600020936005850180549560ff87166006811015610b3557600303611a755760088101544211611a3d576004543410611a085760ff8760081c161515831515146119d75785600080516020611e9f833981519152959697600960049301611987348254611df1565b905516179055604080519115158252346020830152339185917f74dc3c28712597af17d7089c11c00eefea6373566cfd87d7e8d8607faa298db891a360405160048152a260055416600555600080f35b60405162461bcd60e51b81526004810185905260096024820152684e6f206368616e676560b81b6044820152606490fd5b60405162461bcd60e51b815260048101859052600d60248201526c5374616b6520746f6f206c6f7760981b6044820152606490fd5b60405162461bcd60e51b815260048101859052601060248201526f10da185b1b195b99d94818db1bdcd95960821b6044820152606490fd5b60405162461bcd60e51b8152600481018590526013602482015272135d5cdd081899481c1c9bdd9a5cda5bdb985b606a1b6044820152606490fd5b346107af5760003660031901126107af576020600354604051908152f35b346107af5760403660031901126107af57602090611aea611b16565b60043560009081526009845260408082206001600160a01b039093168252918452205460ff1615158152f35b602435906001600160a01b03821682036107af57565b6024359081151582036107af57565b90600182811c92168015611b6b575b6020831014611b5557565b634e487b7160e01b600052602260045260246000fd5b91607f1691611b4a565b60a0810190811067ffffffffffffffff82111761056a57604052565b90601f8019910116810190811067ffffffffffffffff82111761056a57604052565b9060405191826000825492611bc784611b3b565b908184526001948581169081600014611c365750600114611bf3575b5050611bf192500383611b91565b565b9093915060005260209081600020936000915b818310611c1e575050611bf193508201013880611be3565b85548884018501529485019487945091830191611c06565b915050611bf194506020925060ff191682840152151560051b8201013880611be3565b919082519283825260005b848110611c85575050826000602080949584010152601f8019910116010190565b602081830181015184830182015201611c64565b67ffffffffffffffff811161056a57601f01601f191660200190565b81601f820112156107af57803590611ccc82611c99565b92611cda6040519485611b91565b828452602083830101116107af57816000926020809301838601378301015290565b15611d0357565b60405162461bcd60e51b81526020600482015260096024820152682737ba1037bbb732b960b91b6044820152606490fd5b15611d3b57565b60405162461bcd60e51b81526020600482015260096024820152681499595b9d1c985b9d60ba1b6044820152606490fd5b60001981146114155760010190565b15611d8257565b60405162461bcd60e51b815260206004820152601060248201526f13585c9ad95d081b9bdd08199bdd5b9960821b6044820152606490fd5b15611dc157565b60405162461bcd60e51b81526020600482015260086024820152674e6f74206c69766560c01b6044820152606490fd5b9190820180921161141557565b15611e0557565b60405162461bcd60e51b815260206004820152600e60248201526d135d5cdd0818994818db1bdcd95960921b6044820152606490fd5b8181029291811591840414171561141557565b8115611e58570490565b634e487b7160e01b600052601260045260246000fd5b3d15611e99573d90611e7f82611c99565b91611e8d6040519384611b91565b82523d6000602084013e565b60609056fe248d595ec1f86fca734f2147cbddceb451a4d2a98d6f093ca89f4515f663a00da26469706673582212201a7e4d9ec209820ebab581e1431adf62e57fe79c735b2ccac2948b59b4c8872d64736f6c63430008140033",
  "linkReferences": {},
  "deployedLinkReferences": {}
}