{
  "_format": "hh-sol-artifact-1",
  "contractName": "OracleTest",
  "sourceName": "contracts/OracleTest.sol",
  "abi": [
    {
      "anonymous": false,
      "inputs": [
        {
          "indexed": false,
          "internalType": "string",
          "name": "result",
          "type": "string"
        }
      ],
      "name": "RequestFulfilled",
      "type": "event"
    },
    {
      "inputs": [],
      "name": "requestResult",
      "outputs": [],
      "stateMutability": "nonpayable",
      "type": "function"
    }
  ],
  "bytecode": "0x608060405234801561001057600080fd5b50610196806100206000396000f3fe608060405234801561001057600080fd5b506004361061002b5760003560e01c80636d7180d314610030575b600080fd5b61003861003a565b005b60006040518060400160405280600281526020017f343200000000000000000000000000000000000000000000000000000000000081525090507f083542d7532363ebf1f5ddd435e82f33c12251d61bae6088bacc46b57bea3822816040516100a3919061013e565b60405180910390a150565b600081519050919050565b600082825260208201905092915050565b60005b838110156100e85780820151818401526020810190506100cd565b60008484015250505050565b6000601f19601f8301169050919050565b6000610110826100ae565b61011a81856100b9565b935061012a8185602086016100ca565b610133816100f4565b840191505092915050565b600060208201905081810360008301526101588184610105565b90509291505056fea2646970667358221220e9fee9cd56e134fe16dbe051463ec85438396e0fe91946aa202ace0a89f30a4d64736f6c63430008140033",
  "linkReferences": {},
  "deployedLinkReferences": {}
}