{
  "_format": "hh-sol-artifact-1",
  "contractName": "Betting",
  "sourceName": "contracts/OracleTest.sol",
  "abi": [
    {
      "inputs": [],
      "stateMutability": "nonpayable",
      "type": "constructor"
    },
    {
      "anonymous": false,
      "inputs": [
        {
          "indexed": true,
          "internalType": "address",
          "name": "user",
          "type": "address"
        },
        {
          "indexed": false,
          "internalType": "uint256",
          "name": "amount",
          "type": "uint256"
        },
        {
          "indexed": false,
          "internalType": "string",
          "name": "choice",
          "type": "string"
        }
      ],
      "name": "BetPlaced",
      "type": "event"
    },
    {
      "anonymous": false,
      "inputs": [
        {
          "indexed": false,
          "internalType": "uint256",
          "name": "minBet",
          "type": "uint256"
        },
        {
          "indexed": false,
          "internalType": "uint256",
          "name": "maxBet",
          "type": "uint256"
        }
      ],
      "name": "LimitsUpdated",
      "type": "event"
    },
    {
      "anonymous": false,
      "inputs": [
        {
          "indexed": true,
          "internalType": "address",
          "name": "account",
          "type": "address"
        }
      ],
      "name": "Paused",
      "type": "event"
    },
    {
      "anonymous": false,
      "inputs": [
        {
          "indexed": true,
          "internalType": "address",
          "name": "account",
          "type": "address"
        }
      ],
      "name": "Unpaused",
      "type": "event"
    },
    {
      "inputs": [
        {
          "internalType": "uint256",
          "name": "",
          "type": "uint256"
        }
      ],
      "name": "bets",
      "outputs": [
        {
          "internalType": "address",
          "name": "user",
          "type": "address"
        },
        {
          "internalType": "uint256",
          "name": "amount",
          "type": "uint256"
        },
        {
          "internalType": "string",
          "name": "choice",
          "type": "string"
        }
      ],
      "stateMutability": "view",
      "type": "function"
    },
    {
      "inputs": [],
      "name": "getBets",
      "outputs": [
        {
          "components": [
            {
              "internalType": "address",
              "name": "user",
              "type": "address"
            },
            {
              "internalType": "uint256",
              "name": "amount",
              "type": "uint256"
            },
            {
              "internalType": "string",
              "name": "choice",
              "type": "string"
            }
          ],
          "internalType": "struct Betting.Bet[]",
          "name": "",
          "type": "tuple[]"
        }
      ],
      "stateMutability": "view",
      "type": "function"
    },
    {
      "inputs": [
        {
          "internalType": "uint256",
          "name": "start",
          "type": "uint256"
        },
        {
          "internalType": "uint256",
          "name": "count",
          "type": "uint256"
        }
      ],
      "name": "getBetsRange",
      "outputs": [
        {
          "components": [
            {
              "internalType": "address",
              "name": "user",
              "type": "address"
            },
            {
              "internalType": "uint256",
              "name": "amount",
              "type": "uint256"
            },
            {
              "internalType": "string",
              "name": "choice",
              "type": "string"
            }
          ],
          "internalType": "struct Betting.Bet[]",
          "name": "",
          "type": "tuple[]"
        }
      ],
      "stateMutability": "view",
      "type": "function"
    },
    {
      "inputs": [],
      "name": "maxBet",
      "outputs": [
        {
          "internalType": "uint256",
          "name": "",
          "type": "uint256"
        }
      ],
      "stateMutability": "view",
      "type": "function"
    },
    {
      "inputs": [],
      "name": "minBet",
      "outputs": [
        {
          "internalType": "uint256",
          "name": "",
          "type": "uint256"
        }
      ],
      "stateMutability": "view",
      "type": "function"
    },
    {
      "inputs": [],
      "name": "owner",
      "outputs": [
        {
          "internalType": "address",
          "name": "",
          "type": "address"
        }
      ],
      "stateMutability": "view",
      "type": "function"
    },
    {
      "inputs": [],
      "name": "paused",
      "outputs": [
        {
          "internalType": "bool",
          "name": "",
          "type": "bool"
        }
      ],
      "stateMutability": "view",
      "type": "function"
    },
    {
      "inputs": [
        {
          "internalType": "string",
          "name": "choice",
          "type": "string"
        }
      ],
      "name": "placeBet",
      "outputs": [],
      "stateMutability": "payable",
      "type": "function"
    },
    {
      "inputs": [
        {
          "internalType": "uint256",
          "name": "minAmount",
          "type": "uint256"
        },
        {
          "internalType": "uint256",
          "name": "maxAmount",
          "type": "uint256"
        }
      ],
      "name": "setLimits",
      "outputs": [],
      "stateMutability": "nonpayable",
      "type": "function"
    },
    {
      "inputs": [
        {
          "internalType": "bool",
          "name": "v",
          "type": "bool"
        }
      ],
      "name": "setPaused",
      "outputs": [],
      "stateMutability": "nonpayable",
      "type": "function"
    }
  ],
  "bytecode": "0x6080806040523461003957600080546001600160a81b0319163360ff60a01b191617905560018055600019600255610c64908161003f8239f35b600080fdfe604060a081526004908136101561001557600080fd5b600090813560e01c806316c38b3c1461086457806322af00fa146107fe5780632e5b2168146107e05780635c975abb146107bc5780638da5cb5b1461079557806391d943b5146106405780639619367d1461062257806397bfeb88146101ec578063a6afd5fd1461015a5763c4590d3f1461008f57600080fd5b346101565761009d36610acb565b936100b260018060a01b038554163314610b6c565b8115610129578185106100f957507f4d4981437d0211f9e6843eb024d9ada1fa3a99514d4343d4aece106dd11524bb9293816001558060025582519182526020820152a180f35b606490602084519162461bcd60e51b8352820152600a60248201526936b0bc101f1e9036b4b760b11b6044820152fd5b606490602084519162461bcd60e51b8352820152600760248201526606d696e203e20360cc1b6044820152fd5b5080fd5b509190346101e957806003193601126101e9579080549061017a82610ba4565b92610187855194856109c3565b82845290815260207f8a35acfbc15ff81a39ae7d344fd709f28e8600b4aa8c65c6b64bfe7fe36bd19b8185015b8484106101cc578651806101c88882610ae6565b0390f35b6003836001926101db85610bbc565b8152019201930192906101b4565b80fd5b5060208060031936011261061e57833567ffffffffffffffff9182821161061a573660238301121561061a57818601358381116106165760249283810190848336920101116106125760ff875460a01c166105e75760039586549560ff87166105b95760018060ff1980991617895580543410610587576002543411610555578415158061054b575b1561051857899a839a98999a519061028c82610991565b33825287820198348a52601f199283601f8a01169b6102b48d8c8a51918260805201906109c3565b896080515289898c60805101378a8a6080510101528681019a6080518c528354680100000000000000008110156105045780876102f392018655610906565b9290926104f1575182546001600160a01b0319166001600160a01b039190911617825551858201559951805160029b909b019a9590929086116104e0575050918b918d97969594936103458b54610957565b8a601f8211610483575b50508991601f86116001146103da5750938088979594818998957ff14919ff92658c8b721faa944957b48dedaee13316a12a2635add911929e91709e9560609c988e956103cf575b50501b92600019911b1c19161790555b80805198348a52890152870152838601378301015260608133948101030190a2815416905580f35b015193503880610397565b859394919b951691858a528a8a20928a5b818110610453575092899896939285927ff14919ff92658c8b721faa944957b48dedaee13316a12a2635add911929e91709e8b9a9760609d999610610439575b50505050811b0190556103a7565b01519060f884600019921b161c19169055388f818061042b565b9496989a5091509395979980878d9487839f015181550195019301928f99979593918f929c9b999795939c6103eb565b91939596979899909294508b815220601f860160051c8101918a87106104d6575b918f999897969593918f9593601f0160051c01905b8181106104c757508a61034f565b998a558f998f955084016104b9565b90915081906104a4565b634e487b7160e01b8f52604190528dfd5b5050634e487b7160e01b8f52508d82528dfd5b5050634e487b7160e01b8f5250604182528dfd5b825162461bcd60e51b8152808c01879052600e818901526d496e76616c69642063686f69636560901b6044820152606490fd5b5085851115610275565b825162461bcd60e51b8152808c01879052600d818901526c42657420746f6f206c6172676560981b6044820152606490fd5b825162461bcd60e51b8152808c01879052600d818901526c10995d081d1bdbc81cdb585b1b609a1b6044820152606490fd5b815162461bcd60e51b8152808b01869052600981880152681499595b9d1c985b9d60ba1b6044820152606490fd5b855162461bcd60e51b81528089018490526006818601526514185d5cd95960d21b6044820152606490fd5b8680fd5b8580fd5b8480fd5b8280fd5b50346101565781600319360112610156576020906001549051908152f35b5082903461061e5761065136610acb565b9390928054948585101561075d5784019485851161074a57808611610742575b5061067c8486610bf7565b9361068685610ba4565b94610693855196876109c3565b8086526106a2601f1991610ba4565b01835b81811061071a575050805b8681106106c4578451806101c88882610ae6565b6106f56106d082610906565b506106e46106de8585610bf7565b91610bbc565b6106ee828a610c1a565b5287610c1a565b506000198114610707576001016106b0565b634e487b7160e01b845260118352602484fd5b602090865161072881610991565b868152828781830152606089830152828a010152016106a5565b945085610671565b634e487b7160e01b835260118252602483fd5b835162461bcd60e51b815260208184015260126024820152717374617274206f7574206f662072616e676560701b6044820152606490fd5b5034610156578160031936011261015657905490516001600160a01b039091168152602090f35b503461015657816003193601126101565760ff6020925460a01c1690519015158152f35b50346101565781600319360112610156576020906002549051908152f35b509190346101e95760203660031901126101e957813591548210156101e9575061082790610906565b50906101c860018060a01b0383541691606061084a6002600187015496016109e5565b918051958695865260208601528401526060830190610a8b565b828434610156576020366003190112610156573580151580820361061e57825490610899336001600160a01b03841614610b6c565b60ff60a01b1990911660a09190911b60ff60a01b16178255156108de57337f62e78cea01bee320cd4e420270b5ea74000d11b0c9f74754ebdbfc544b05a2588280a280f35b337f5db9ee0a495bf2e6ff9c91a7834c1ba4fdd244a5e8aa4e537bd38aeae4b073aa8280a280f35b600454811015610941576003906004600052027f8a35acfbc15ff81a39ae7d344fd709f28e8600b4aa8c65c6b64bfe7fe36bd19b0190600090565b634e487b7160e01b600052603260045260246000fd5b90600182811c92168015610987575b602083101461097157565b634e487b7160e01b600052602260045260246000fd5b91607f1691610966565b6060810190811067ffffffffffffffff8211176109ad57604052565b634e487b7160e01b600052604160045260246000fd5b90601f8019910116810190811067ffffffffffffffff8211176109ad57604052565b90604051918260008254926109f984610957565b908184526001948581169081600014610a685750600114610a25575b5050610a23925003836109c3565b565b9093915060005260209081600020936000915b818310610a50575050610a2393508201013880610a15565b85548884018501529485019487945091830191610a38565b915050610a2394506020925060ff191682840152151560051b8201013880610a15565b919082519283825260005b848110610ab7575050826000602080949584010152601f8019910116010190565b602081830181015184830182015201610a96565b6040906003190112610ae1576004359060243590565b600080fd5b602080820190808352835180925260409283810182858560051b8401019601946000925b858410610b1b575050505050505090565b909192939495968580610b5b600193603f19868203018852868c51868060a01b038151168352848101518584015201519060609081898201520190610a8b565b990194019401929594939190610b0a565b15610b7357565b60405162461bcd60e51b81526020600482015260096024820152682737ba1037bbb732b960b91b6044820152606490fd5b67ffffffffffffffff81116109ad5760051b60200190565b90604051610bc981610991565b82546001600160a01b0316815260018301546020820152918290604090610bf2906002016109e5565b910152565b91908203918211610c0457565b634e487b7160e01b600052601160045260246000fd5b80518210156109415760209160051b01019056fea2646970667358221220658991816b61168a8330aa4398c666a271606cfc9c6621cfa8c0ff8b6fb22faf64736f6c63430008140033",
  "linkReferences": {},
  "deployedLinkReferences": {}
}